:100000000C9465010C9400000C94A6010C94000063
:100010000C9400000C9400000C9400000C94000060
:100020000C9400000C9400000C9400000C94000050
:100030000C9400000C94BB010C9400000C94000084
:100040000C9400000C9400000C9400000C94000030
:100050000C9400000C9400000C9400000C94000020
:100060000C9400000C9400001027E80364000A00C0
:1000700001000010000110000100494F5434372ED8
:10008000636F6D202D20454E4332384A3630207440
:1000900075746F7269616C202121210D0A000000C6
:1000A00020071998C0A801C544616E67206B686F6E
:1000B000692074616F20454E4332384A3630202E15
:1000C0002E2E0D0A000D0A596F7572204D414320E6
:1000D00061646472203D20253032583A2530325810
:1000E0003A253032583A253032583A253032583A8B
:1000F000253032580D0A004B686F692074616F20FB
:100100006D6F64756C6520454E4332384A36302039
:10011000746861742062616920210D0A000000008A
:1001200000000000FFFFFFFFFFFF00004461206CA4
:1001300075752069702025692E25692E25692E2563
:1001400069203D20253032583A253032583A253042
:1001500032583A253032583A253032583A25303222
:10016000580D0A004C4544313D4F4E004461206219
:100170006174204C4544310D0A004C4544313D4FDB
:100180004600446120746174204C4544310D0A00DE
:100190004C4544323D4F4E00446120626174204C16
:1001A0004544320D0A004C4544323D4F46004461FF
:1001B00020746174204C4544320D0A004C45443390
:1001C0003D4F4E00446120626174204C4544330D24
:1001D0000A004C4544333D4F46004461207461742D
:1001E000204C4544330D0A004C4544343D4F4E00ED
:1001F000446120626174204C4544340D0A004C4532
:1002000044343D4F4600446120746174204C4544A1
:10021000340D0A00436875612067756920676F694E
:100220002074696E207564700D0A000001002D4E67
:10023000414E00494E460000240000037A000600AB
:1002400032049E0004003804A4001D002403A8000A
:1002500026004103F700010003002A01080067039C
:1002600064010E006F036C0108007D037A010E002B
:10027000850382010800930390010E009B039801FF
:100280000800A903A6010E00B103AE010800BF03D8
:10029000BC010E00C703C4010800D503D2010E0043
:1002A000DD03DA010800EB03E8010E00F303F001BF
:1002B00008000104FE010E000904060217001704DD
:1002C00014020100B0062C020000F894EE27EFBBE8
:1002D000F1E0F5BFE5BFF8E1A895A4B7A77FA4BFFB
:1002E000F0936000E09360008DE0A2E0BB27ED9307
:1002F0008A95E9F780E098E0A0E0B1E0ED930197FE
:10030000E9F7E8E3F2E085919591009761F0A59116
:10031000B59105901590BF01F00105900D920197E0
:10032000E1F7FB01F0CFE0E0EEBBEFEFEDBFE8E07F
:10033000EEBFC0E0D3E00C94D7015B985398E8E09F
:10034000E0936900E2E0EDBBECBB08950E94D40AA3
:100350000E94B5041EC0E0E0E0932E04E0932F0459
:10036000E0933004E0933104E2E0E0938100E1E0C7
:10037000E0936F0008950E94D40AE8EFE0938500AF
:10038000EDE2E0938400AEE2B4E00E94E20A0E9453
:100390009805E991EFBFF991E991B991A9919991E6
:1003A000899179916991F990199009901895E0E8EF
:1003B000E0936100E0E0E0936100EFEFE5B9E4B9BC
:1003C0002498E8B9E7B9EBB9EAB9E0E5ECBDE0E0BB
:1003D000EDBD0BD0B2DFBFDFE0E0F3E00E94EB0A3F
:1003E0000E948D027894FFCFFFCF299A289A5098C7
:1003F000519AE0E0E093C000E8E9E093C100E6E054
:10040000E093C200E0E0E093C500E7E6E093C400BB
:100410000895E091C000E072E1F3E881E093C60046
:100420005CC0A881B981EC91E03041F0EA93F1DF42
:10043000E881F9813196E883F983F3CF44C0E881FC
:10044000EA930E94CD0849C01A93EFEFEA930E9405
:10045000CD081E2FE12F199108950E94EF0AE8811F
:10046000EA93EDDF2A9A57C01A930E94EF0AE981B6
:10047000E07809F0E9DFE8DF1E2F2A9AE12F1881E2
:100480004AC0E881E0764E1699F0E0EAEA93EFE19F
:10049000EA93E3E0EA93E1DFE881E0764E2E0E9402
:1004A000F70AA42DB0E0E5E00E945E0CEA93D5DFE8
:1004B00014C0E981EA93E5DFE0E4EA93EA81EA9394
:1004C000EA81EA93CADF22960895E881EA93D9DFA8
:1004D000E0E0EA93E981EA93C7DF21960895EA8193
:1004E000EA93E981EA93E5DFEA81EF5FEA93EA8143
:1004F000EA93DFDF10C0E4EDEA93EB81EA93D9DF02
:10050000E6EDEA93E981FA810E94FC0AEAEEEA93B9
:10051000DCDFE170D9F7239608952697E4E2F3E053
:100520000E94EB0AEFEFEA93EFE1EA93E0E0EA934F
:1005300094DFE2E0F0E0FA93EA930E94400CE0E0FE
:10054000EA93EDE1EA9390DF0E948E0CE170B9F737
:10055000E0E0EA93BADFEA3F11F0C7D0C4C0E0E0C0
:10056000E0937804E0937904E8E00E94000BEAE06D
:10057000EA93EFEFFBE00E94FC0AE4E0EA93E0E09C
:10058000FCE00E94FC0AE6E0EA93EFEFF1E10E9452
:10059000FC0AECE00E94000BEEE00E94000BE0EC95
:1005A000EA93EDE0EA9385DFE1ECEA93E0E0EA9399
:1005B00080DFE0E8EA93E2ECEA93E2E3EA934DDFDE
:1005C000E6ECEA93E2E1FCE00E94FC0AE4ECEA9348
:1005D000E2E1EA936EDFEAECEA93ECEDEA9369DF9D
:1005E000E4EEEA93E0913204EA9363DFE5EEEA9306
:1005F000E0913304EA935DDFE2EEEA93E0913404A4
:10060000EA9357DFE3EEEA93E0913504EA9351DF92
:10061000E0EEEA93E0913604EA934BDFE1EEEA93F1
:10062000E0913704EA9345DFE4EEEA934EDFE88396
:10063000E5EEEA934ADFE983E2EEEA9346DFEA83F6
:10064000E3EEEA9342DFEB83E0EEEA933EDFEC83F6
:10065000E1EEEA933ADFED83ECE3F4E0FA93EA9318
:10066000E5ECF0E0FA93EA93EC810E94040BE98553
:100670000E94040BEE850E94040BEB890E94040B80
:10068000E88D0E94040BED8D0E94040B88E10E940E
:10069000A20A6C96ECE3F4E00E94EB0AE0E1EA9334
:1006A000E0E0F1E0FA93EA9326DFE4E1EA93E6E79B
:1006B000F4E0FA93EA931FDFEFE1EA93E2DEE0E889
:1006C000EA93EBE1EA93E0ECEA93C7DEE5E7EA932D
:1006D000E2E0EA93EEDE80E58A95F1F70E94F70A00
:1006E000E4E0EA93BADE26960895E1E4F3E00E949E
:1006F000EB0A0895EAE3EA93E0E0EA93B5DE0895B1
:100700002A98EAE3EA939BDEEA81FB81309769F05D
:100710003197EA83FB8398DEA881B981EC93E88165
:10072000F9813196E883F983EFCFA881B981E0E0C0
:10073000EC932A9AA3C00E94B50C20E030E0E9E3D4
:10074000EA93C3DEE13010F40C94FC03E0E0EA939A
:10075000E0917804F09179040E94FC0ACBDFF0E08C
:100760000E940A0BFE2FE0E0A0917804B09179047A
:10077000EA2BFB2B0E940A0B2E2F3327BBDFFE2F09
:10078000E0E02E2B3F2B24503040EC81FD81E2171E
:10079000F30710F42C813D81ADDF0E2F1127AADF66
:1007A000FE2FE0E00E2B1F2B07FD03C020E030E002
:1007B00005C03A932A930E94100BA2DFA0917804FF
:1007C000B09179041197A030ECE0BE0728F0ECE07E
:1007D000EA93EFEFFBE006C0ECE0EA93E0917804E7
:1007E000F0917904FA93EA937ADEE0E8EA93EEE195
:1007F000EA93E0E4EA9331DEF9010E94BC0C6DC09B
:100800002A98EAE7EA931BDEEA81FB813197EA83C3
:10081000FB83319641F0A881B981ED91A883B9831A
:10082000EA930DDEF1CF2A9A29C0EFE1EA934DDE7B
:10083000E870D9F7E2E0EA93E0E0FCE00E94FC0A0D
:10084000E6E0EA93E981FA81E050F44F0E94FC0A65
:10085000EAE7EA93E0E0EA93EA93FFDDE881F981D1
:100860000E94150BCDDF0E94F70AE8E0EA93F5DD60
:1008700005C00E941C0B0E941C0BD7DF2496089514
:100880000E94210B04E110E0002E012AD1F0AE817C
:10089000BF810E942A0B7F936F93FF93EF93AE81EA
:1008A000BF811196EC91AF91BF918F919F910E9462
:1008B000340BEE81FF813296EE83FF8302501040AD
:1008C000E3CF0E94480B0E94AA0C29F00E94480B1B
:1008D0000E944F0BF6CF0E945A0B28960895AA81CA
:1008E000BB815796AC91A13039F40E941C0B0E9439
:1008F0001C0B0E940C070CC0AA81BB815796AC91BF
:10090000A13131F40E941C0B0E941C0B0E94220793
:100910000C942F09AA81BB811C96AC91A83031F4AC
:10092000AA81BB811D96AC91A63009F00AC0A881AE
:10093000B9819A9728F00E941C0B0E941C0B65D16C
:1009400012C0AA81BB811C96AC91A83031F4AA8157
:10095000BB811D96AC91A03009F005C00E941C0B14
:100960000E941C0BBCDF0C942F091A930A93EAE730
:10097000F4E0FA93EA93E0E0F2E0FA93EA93DBDE44
:100980008F01002E012A41F0EAE7F4E0FA93EA939E
:100990001A930A93BFDFEBCF0991199108951A9327
:1009A0000A9300E010E00530E0E01E0794F5AA810C
:1009B000BB816C910E94740BE658F94FE081E617F9
:1009C000F1F4EA81FB8161810E94740BE558F94FD3
:1009D000E081E617A1F4EA81FB8162810E94740B39
:1009E000E458F94FE081E61751F4EA81FB81638115
:1009F0000E94740BE358F94FE081E61709F006C036
:100A0000E02FEF5F198108810C942F090F5F1F4FB2
:100A1000CACFEFEF198108810C942F091A930A931A
:100A2000EC81FD81FA93EA93BADFF0E0E7FDFFEF96
:100A300031978F010E941C0B0E94740BE258F94FF2
:100A40000E947A0B198108810C94FA080E941C0BF1
:100A5000A6DFEF3F11F00C949605ECE3F4E0FA9377
:100A6000EA93ECE2F1E0FA93EA93AE81BF81EC9174
:100A70000E94040BAA85BB851196EC910E94040B81
:100A8000AE85BF851296EC910E94040BAA89BB89A2
:100A90001396EC910E94040BAC89BD89EC910E94E5
:100AA000040BA88DB98D1196EC910E94040BAC8DAE
:100AB000BD8D1296EC910E94040BA8A1B9A11396CA
:100AC000EC910E94040BACA1BDA11496EC910E9484
:100AD000040BA8A5B9A51596EC910E94040B88E219
:100AE0000E94A20AAC96ECE3F4E00E94EB0AE32D2C
:100AF000AAE0EA9FF001E658F94F0E94150B0E9408
:100B0000820BE32DAAE0EA9FF001E258F94FFA9335
:100B1000EA930E941C0BE6E0F0E0FA93EA930E944D
:100B2000EC083394E5E0E31509F433240C942F0921
:100B30000E94B50CACEAB6E00E94E20AE13CA7E2F2
:100B4000FA07A9E06A07A0E07A07B8F0E0E0E093CE
:100B5000AC06E093AD06E093AE06E093AF062AE75D
:100B600036E0F901F2968F012017310730F4D901F0
:100B7000E0E0EC932F5F3F4FF7CF0E94BC0C0C944A
:100B80002F09E6978CE0A0E0B0E0EEE1F1E00E94F2
:100B9000C10CFE013C96FA93EA93FE0138960E943E
:100BA0007A0BFE01BC96FA93EA93FE0132960E94FC
:100BB0007A0BFE01F2960E94880B0E94820BFE01C6
:100BC00072960E948F0BFE01B2960E948F0BFE015F
:100BD000B8960E94940BE8E0F6E0E88FF98FE0E029
:100BE000F1E0EA8FFB8FE8E0F0E0EC8FFD8FE6E0CC
:100BF000F4E0EE8FFF8FE0E0F1E0E8A3F9A3FE015F
:100C00003C960E949B0BE8960895E897FE01389663
:100C10000E94A30B36960E947A0BFE0134960E9426
:100C2000A30B7C960E94A80BFE010E94A30BB69614
:100C30000E94A80BE0913804A881EA1779F4E091AA
:100C40003904A981EA1751F4E0913A04AA81EA171C
:100C500029F4E0913B04AB81EA1711F00C94CB0826
:100C6000AAADBBAD5496AC91A03031F4AAADBBADEA
:100C70005596AC91A13009F035C0FE013E960E9418
:100C8000AB0BFE01BE960E94AB0BFE01F496FA93ED
:100C9000EA93FE0136960E94A80BFE0174960E940C
:100CA0008F0BFE01B4960E948F0BFE01BA960E9434
:100CB000940BE8E0F6E0EA8FFB8FE0E0F1E0EC8FE8
:100CC000FD8FE8E0F0E0EE8FFF8FE6E0F4E0E8A3D0
:100CD000F9A3E0E0F2E0EAA3FBA3FE013E960E9446
:100CE0009B0B0DC0AAADBBAD5496AC91A03031F4B6
:100CF000AAADBBAD5596AC91A23009F005C0FE017E
:100D000034960E94B00BA2DE0C94CB080E94210BFB
:100D1000A885B98594960E94B70BEE81FF81B297A2
:100D2000EE83FF83E885F985B2968F01AE81BF819E
:100D3000129788F0D8010E942A0BDF01CB01F8013D
:100D4000E1810E94340B0E5F1F4FEE81FF813297CD
:100D5000EE83FF83EBCFEE81FF81309769F0D801FE
:100D60000E942A0BAA81BB818C819D810E94500C1C
:100D7000EA83FB836C837D830E94480B0E94AA0C4C
:100D800029F00E94480B0E944F0BF6CF0E945A0B8D
:100D900044C126970E94BC0B36960E947A0BE885C8
:100DA000F9853696FA93EA93EA85FB850E947A0BD9
:100DB0000E94100BFE0132960E947A0B0E94BC0B1F
:100DC0007A960E94A80BE885F9857A96FA93EA93B9
:100DD000EA85FB857E960E94A80BE885F9857E96BC
:100DE000FA93EA93FE0132960E94A80BA885B98572
:100DF0009296E0E0EC930E94100B0E94100B86DFAD
:100E0000A885B9859496ED93FC930E94100B0E94DF
:100E1000100B0E94390401C10E94C20B21F01981FC
:100E200008810C94FA08F801A2A1A83039F41A93A9
:100E30000A93EC81FD81FA93EA93ABDF1981088173
:100E40000C94FA080E94C20B21F0198108810C94BD
:100E5000FA08F801BA960E94EB0A0E94D60BE7E660
:100E6000F3E00E94DB0B31F040980E94E10BEFE6CB
:100E7000F3E05AC00E94D60BEDE7F3E00E94DB0BD3
:100E800031F0409A0E94E10BE5E8F3E04DC00E948A
:100E9000D60BE3E9F3E00E94DB0B31F041980E94AE
:100EA000E10BEBE9F3E040C00E94D60BE9EAF3E086
:100EB0000E94DB0B31F0419A0E94E10BE1EBF3E081
:100EC00033C00E94D60BEFEBF3E00E94DB0B31F056
:100ED00042980E94E10BE7ECF3E026C00E94D60B9B
:100EE000E5EDF3E00E94DB0B31F0429A0E94E10B4A
:100EF000EDEDF3E019C00E94D60BEBEEF3E00E949B
:100F0000DB0B31F043980E94E10BE3EFF3E00CC000
:100F10000E94D60BE1E0F4E00E94DB0B71F0439AF3
:100F20000E94E10BE9E0F4E0FA93EA93E8EEF3E0E3
:100F300060E070E00E94A50C72D0198108810C94C9
:100F4000FA0824970E94B50CA885B98598960E9446
:100F5000B70BE885F985A6A1B7A1FD01EF2FF0E059
:100F60000F01FD01FE2FE0E0E029F12938969F01F5
:100F7000E885F9857A968F01F90171963897662789
:100F800077270E94F70B2230E0E03E07C8F0D80137
:100F90000E942A0BDF01CB01F801E181FF276627C0
:100FA00077270E94550C662777270E94FC0B66273F
:100FB00077270E94010C0E5F1F4F22503040E3CF75
:100FC000022E032A39F0D8010E942A0B0E94FC0B42
:100FD0000E94010C0E94040C0E94AA0C49F00E947D
:100FE000040CAC81BD81882799270E94010CF2CFA7
:100FF000EC81FD816E817F810E94890C0E94F70B3C
:101000000E94FC0BE8E00E94730CF070DF01FC8191
:10101000E0E0EA2BFB2B0E94BC0C2A960895AE97C9
:10102000E0E0EAA7EBA7ECA7EDA70E94B50CEEA9BC
:10103000FFA9FA93EA930E9407098F010E940B0C03
:101040000E94CF04EF3F41F50E940B0C0E94C105A6
:10105000E2E3F0E0FA93EA930E94400CEEA5FFA5CC
:1010600068A979A9EE5CFF4F6F4F7F4FEEA7FFA7EE
:1010700068AB79ABEAA9FBA96CA97DA9AEA5BFA510
:1010800088A999A90E94AE0C30F0E7E1F4E00E9433
:10109000EB0AE0E07EC0D2CF0E940B0CFE01369638
:1010A000FA93EA930E940E05FE013A960E948F0B76
:1010B000E8E0F0E0E88BF98BE5E4EA8BE0E0EB8B2D
:1010C000F8017C96EF2FF0E0DF01F8017C96FE2F0F
:1010D000E0E0EA2BFB2BEC8BFD8BE1E1F1E2EE8B08
:1010E000FF8BE0E0E88FE98FE0E8EA8FE1E1EB8F4A
:1010F000E0E0EC8FED8FFE017E960E94940BFE01E6
:10110000B2960E94A30B0E94A80BFE017296FA935E
:10111000EA930E944004EC8FFD8FE1E5FEE3EEA32D
:10112000FFA3E9ADF070DF01F8ADE0E0EA2BFB2BA7
:10113000E8A7F9A7F8013896EF2FF0E0DF01F801F2
:101140003896FE2FE0E0EA2BFB2BEAA7FBA7E0E0B6
:10115000ECA7EDA7FE01BE960E94880B0E94FC083A
:10116000FE013496FA93EA93ECDEECA7FDA7EBA51B
:10117000F070DF01FAA5E0E0EA2BFB2BB2969F01AD
:10118000FE013496FA93EA933A932A930E94390423
:10119000E1E00E94BC0CEC960895E881EEBDEDB54F
:1011A000E7FFFDCFEEB52196089566277727899151
:1011B0009991E991F991A991B991009629F0019736
:1011C0006D9171916717C9F3671B10F4EFEF0895E4
:1011D000E0E009F0E395089599818881009641F057
:1011E000BD81AC81FB81EA8161916D930197E1F74B
:1011F000FD81EC8126960895E991F991A991B99123
:10120000CD0161916D936623E1F7FC010895A991E9
:10121000B991EE27FF276D91662311F03196FBCF30
:101220000895AA27BB27E991F9910590002011F0B4
:101230001196FBCFFD010895AA81BB81CD01E88104
:10124000F9817191772311F4FC0109C06D91671741
:10125000C1F30196DC01662391F7EE27FF27249660
:1012600008951A930A93AA81BB8112960E94930C47
:10127000309759F1AA81BB8114960E94930C8F017B
:10128000309761F00230E0E01E07F0F0F80131978E
:101290008F01AA81BB811496ED93FC93AA81BB8137
:1012A0001296ED91FD913196FE93EE933197AC81BC
:1012B000A083AA81BB810E94930CFF232AF0ED91A9
:1012C000FD913196FE93EE9306C0AA81BB81EFEFAC
:1012D000FFEFED93FC9319810881259608952697D9
:1012E0000E94B30C10E0AC85BD850E94B70BEA8963
:1012F000FB893196EA8BFB8B3197E4912E2FE030FE
:1013000011F40C949A0AE12FE03039F4253211F4EB
:1013100011E002C00E94100C0CC1E130A9F425328A
:1013200019F40E94100C04C112E040E000E02D32DC
:1013300011F401E0FEC02B3211F44BE2FAC020326E
:1013400011F440E2F6C002C0E23039F450E013E09C
:10135000203311F40068EDC004C0E33011F00C94A8
:10136000990A203310F02A3308F007C0AAE05A9FE8
:10137000502DE22FE0535E0FDCC0E22FE33649F43C
:101380000E94190CE889F989A481AA930E941F0C74
:10139000CFC0E33741F40E94190C0E94270C0E9431
:1013A00007091E2F0AC0E03761F40E94190C0E9441
:1013B000270C0E9411091E2F086002600F7730E091
:1013C00035C0E43611F0E93611F4046002C0E537A7
:1013D00031F4E8E6F0E0EE83FF8315E00DC0E83578
:1013E00011F4086004C0E83711F00C94980AE2E7A1
:1013F000F0E0EE83FF8314E002FF14C00E94190C9A
:101400000E94310CAB85AA233AF4EA85FB850E9441
:101410005A0CEA87FB874DE2403011F01F5F01C094
:101420000B7F04C00E94190C0E94310C00FD11C0FA
:10143000151778F407FF08C002FF04C00B7F242FA4
:10144000115001C020E301C020E20E94100C515055
:10145000EFCF312F01FF17C03030A1F003FF06C0DE
:10146000EE81FF812591EE83FF8305C0AE81BF81B0
:101470002D91AE83BF830E94100C503009F0515063
:101480003150EACF4BC020E3EE81FF810E94A10CD6
:10149000E887F987EE81FF813296EE83FF83E88546
:1014A000F985AA85BB85AE17BF0750F02F5FA885C9
:1014B000B985EA85FB85EA1BFB0BEA87FB87EFCF43
:1014C0002A3328F003FF02C0295F01C0295D04FD13
:1014D0001AC0213320F4A885B985119709F409C0F1
:1014E000531710F000FF01C013C020E207FF0BC02C
:1014F00020E3006102FF07C00B7F4A930E941F0C8C
:10150000503009F051500E94100C503009F05150E9
:101510003150A885B985129708F0B5CF00FF08C0F3
:10152000503031F05150E0E2EA930E941F0CF8CFA6
:1015300010E0DDCEAC85BD850E94930C0E94BA0CF4
:1015400064960895FF92F82E26970E94B50C0E948B
:10155000390C309719F4EFEFFFEF21C0DE0116963A
:101560000E944C0C8D010E94390CEE83FF83E0E059
:10157000E887E987DE011A960E944C0C0E94930CC2
:10158000FA93EA931A930A93E1E3F9E00E94B00B0D
:10159000A6DE9F01AE81BF81E0E0EC93F9010E94DD
:1015A000BC0C2A96FF9008950A921A92FA926A93B6
:1015B0007A938A939A93AA93BA93EA93FA93EFB79A
:1015C000EA9308950E94970CEF5FFF4F6F4F7F4F94
:1015D0000E949C0C0895FA93EA930C9411022A98A5
:1015E000E981EF71AA81EA2BEA930C941F02E0E8EB
:1015F000EA93EFE1EA930895FA93EA930C946F0269
:10160000EA93E0E0F0E0F8CFFF27662777270E9413
:10161000A50C0895E0937804F09379040C947A0370
:10162000E885F985FA93EA930895FA93EA93EC81B1
:10163000FD81FA93EA930895EA81FB81FA93EA9394
:1016400008952497E0E0E883E983EA83EB831A9323
:101650000A930895EC91F0E00E94840CDF01CB0125
:10166000E8E00E94670C0895FF27662777270E940D
:10167000550C66277727AA81BB818C819D816627BF
:1016800077270E94500CEA83FB836C837D83089547
:10169000EA81FB816C817D810E947F0C0895AA8183
:1016A000BB81882799270E94500CEA83FB836C83B7
:1016B0007D830895EA81FB816C817D810E94890C84
:1016C000EA83FB836C837D83AA81BB818C819D81AE
:1016D000E8E00E94730CF070DF01FA81E0E0EA2B91
:1016E000FB2B198108810895AAE0A09FF001A19F1A
:1016F000F00D0895FA93EA93E6E0F0E0FA93EA93A6
:101700000C94EC08E4E0F0E0FA93EA930C94EC0813
:10171000FA93EA93E8ADF9ADFA93EA930895FA9350
:10172000EA93E2E3F4E0E6CFFA93EA93E8E3F4E045
:10173000FA93EA93E7CFFA93EA93EAE2F0E0FA93B6
:10174000EA930C943904FA93EA93ECADFDAD089555
:10175000FA93EA93D7CFFA93EA93FE013A96CACF67
:10176000FA93EA93FE013A96FA93EA930895E0E039
:10177000F0E0ED93FC930895FE01FA93EA93EA8575
:10178000FB8508951A930A930C811D81F8017E96BA
:10179000FA93EA93E8E3F4E0FA93EA93E4E0F0E002
:1017A000FA93EA930E94D508E0300895F801BA96BA
:1017B000FA93EA930895FA93EA930E941C093097EA
:1017C0000895F8017A96FA93EA93F801A2A1B3A1D9
:1017D000FD01EF2FF0E00F01F801A2A1B3A1FD017F
:1017E000FE2FE0E0E029F129FA93EA930895EC83D3
:1017F000FD836E837F830895AC81BD818E819F813F
:1018000008950E94500CF3CFEC81FD816E817F81A1
:101810000E947F0C0895EAADFBADFA93EA93089518
:101820002A93ED85FE85FA93EA93E989FA89099569
:101830000895E889F9893497E88BF98B0895ED8547
:10184000FE85FA93EA93E989FA8909950895A889AA
:10185000B98914960E94930CEE83FF83FA93EA935E
:101860000895A889B98914960E94930CEA87FB878A
:101870000895DE011C960E944C0C0E94930C089562
:10188000E991F991309639F080EA9FE00197F1F7FC
:10189000A8953197C9F708950024AF0DB01D08959C
:1018A000EA0FFB1F681F791F0895EA2BFB2B682B9B
:1018B000792B0895F195E195F0400895EE230E2ED1
:1018C000FD0121F0F595E7950A94E1F70895EE23DF
:1018D0000E2EFD01BC0131F0EE0FFF1F661F771FBA
:1018E0000A94D1F70895EE230E2EFD01BC0131F0CC
:1018F00076956795F795E7950A94D1F70895E62FC1
:10190000F72F60E070E008956F2F660F660B762F5B
:101910000895E095F095609570950895EE23E1E0C7
:1019200009F0EE270895ED91FC9111970895ED913E
:10193000FD916D917D9108957E936E93FE93EE934C
:1019400008950590F491E02D08957A936A93FA939F
:10195000EA9308953097604070400895AE17BF072E
:101960008607970708955A934A933A932A931A93AE
:101970000A9308955D814C813B812A8119810881F8
:101980000895AC0FBD1F05900D928A95E1F708955B
:00000001FF
