:020000040800F2
:10000000B8060020890100087F0B00087B0B000860
:100010007D0B00088F020008610C00080000000042
:10002000000000000000000000000000830B00083A
:100030009102000800000000810B0008850B0008F9
:10004000A3010008A3010008A3010008A301000800
:10005000A3010008A3010008A3010008A3010008F0
:10006000A3010008A3010008A3010008A3010008E0
:10007000A3010008A3010008A3010008A3010008D0
:10008000A3010008A3010008A3010008A3010008C0
:10009000A3010008A3010008A3010008A3010008B0
:1000A000A3010008A3010008A3010008A3010008A0
:1000B000A3010008A3010008E90B0008A301000840
:1000C000A3010008A3010008A3010008A301000880
:1000D000A3010008A3010008A3010008A301000870
:1000E000A3010008A3010008A301000800F002F822
:1000F00000F03AF80AA090E8000C82448344AAF188
:100100000107DA4501D100F02FF8AFF2090EBAE885
:100110000F0013F0010F18BFFB1A43F0010318473B
:10012000EC0F00000C100000103A24BF78C878C112
:10013000FAD8520724BF30C830C144BF04680C60ED
:10014000704700000023002400250026103A28BF35
:1001500078C1FBD8520728BF30C148BF0B60704739
:100160001FB51FBD10B510BD00F058F81146FFF7C0
:10017000F7FF00F087FD00F076F803B4FFF7F2FF19
:1001800003BC00F07DF8000009488047094800479B
:10019000FEE7FEE7FEE7FEE7FEE7FEE7FEE7FEE737
:1001A000FEE7FEE704480549054A064B7047000094
:1001B000E50B0008ED000008B8000020B80600209C
:1001C000B8020020B80200204FF0000200B513462C
:1001D00094469646203922BFA0E80C50A0E80C5067
:1001E000B1F12001BFF4F7AF090728BFA0E80C5018
:1001F00048BF0CC05DF804EB890028BF40F8042B11
:1002000008BF704748BF20F8022B11F0804F18BF7D
:1002100000F8012B7047704770477047754600F033
:100220002BF8AE4605006946534620F00700854688
:1002300018B020B5FFF7B6FFBDE820404FF000062C
:100240004FF000074FF000084FF0000B21F00701BE
:10025000AC46ACE8C009ACE8C009ACE8C009ACE801
:10026000C0098D46704710B50446AFF300802046A4
:10027000BDE81040FFF781BF0048704758000020DC
:1002800001491820ABBEFEE7260002007047FEE7DA
:100290007047000070B5044600F00EF80546601C7B
:1002A00002D004480078044400F006F8401BA04245
:1002B000FAD370BD0000002001488068704700003C
:1002C0000000002002488168027811448160704774
:1002D00000000020074810B5016841F010010160DE
:1002E000032000F08FF80F2000F006F800F03EF831
:1002F000002010BD0020024000B5014687B000225A
:100300001E2000F05FF81E2000F04EF81348C1696F
:1003100041F00401C161C06905A900F00400069024
:10032000684600F017F900F035F90D494000B0FBC0
:10033000F1F10D480B4A491E0260416040F2E7327C
:100340000021C0E90321816000F0FCFA10B1012016
:1003500007B000BD044800F023FBF9E7001002409D
:1003600040420F0000080040100000200C4808B573
:10037000816941F001018161816901F00101009110
:10038000C16941F08051C161C06900F080500090A6
:100390000448416821F0E06141F00071416008BD0E
:1003A0000010024000000140002809DB00F01F029D
:1003B000012191404009800000F1E020C0F80011C7
:1003C00070470000F0B40E4B1B680C46C3F30223C9
:1003D000C3F10705042D00D90425191D072901D2F1
:1003E000002300E0DB1E012606FA05F1491E21402C
:1003F00099409E40761E16403143F0BC00F031BC5F
:100400000CED00E0064900F0070208684FF6FF0314
:10041000184040EA0220034A104308607047000079
:100420000CED00E00000FA052DE9F0470F4605004D
:1004300061D0434E306800F00700B84209D23068FE
:1004400020F0070038433060306800F00700B84201
:1004500051D128683B4C810712D5400703D560680D
:1004600040F4E06060602878000703D5606840F4DD
:10047000605060606068A96820F0F0000843606028
:100480002878C00728D06868012810D02168022881
:1004900010D0890700292EDA616821F00301014399
:1004A0006160FFF709FF804641F288390DE021685D
:1004B0008903EFE78901EDE7FFF7FEFEA0EB0801F6
:1004C000494502D90320BDE8F0876068696800F0FB
:1004D0000C00B0EB810FEFD1306800F00700B8429C
:1004E0000BD9306820F0070038433060306800F0E6
:1004F0000700B84201D00120E5E72878400705D57C
:100500006068E96820F4E0600843606028780007CC
:1005100006D56068296920F4605040EAC100606037
:1005200000F048F86168084AC1F30311515CC84003
:100530000649086006480068FFF7DEFE0020C2E7B3
:100540000020024000100240AC0E00080C00002009
:10055000040000200F2202600C4A536803F00303DA
:100560004360536803F0F0038360536803F4E0636F
:10057000C36052684FF4E06303EAD20202610448A8
:10058000006800F00700086070470000001002409B
:10059000002002400448054900684968044AC1F344
:1005A0000221515CC84070470C000020001002403E
:1005B000BC0E000812A185B00FC98DE80F0014A071
:1005C000144A006804905168134801F00C03042B8E
:1005D00010D0082B0ED1C1F38343C9031DF80300CB
:1005E0000AD5516804AAC1F34041515C0A4A5043FC
:1005F000B0FBF1F005B0704708494843FAE7000046
:1006000002030405060708090A0B0C0D0E0F101053
:10061000010200000010024000127A0000093D00B3
:100620002DE9F84F040070D02078C04DC00749D0A4
:100630006868C0F38100012807D06868C0F38100B2
:10064000022809D16868C00306D52868800339D517
:1006500060680028E7D035E06068B0F5803F0BD0D7
:1006600010B1B0F5A02F11D0286820F48030286098
:10067000286820F4802002E0286840F48030286058
:10068000606890B1FFF718FE06460AE0286840F45B
:1006900080202860F0E700BFFFF70EFE801B642873
:1006A00073D828688003F7D50CE0FFF705FE0646EF
:1006B00005E000BFFFF700FE801B6428F0D8286823
:1006C0008003F7D420789A4E80074FF001094FF04D
:1006D000000839D5686810F00C0F07D06868C0F3BF
:1006E0008100022809D16868C00306D42868800701
:1006F00014D52069012808D110E02069B0B1C6F8EE
:100700000090FFF7D9FD074605E00AE1FFF7D4FDA9
:10071000C01B0228C4D828688007F7D528686169FB
:1007200020F0F80040EAC10028600DE0C6F8008023
:10073000FFF7C2FD074604E0FFF7BEFDC01B02281D
:1007400023D828688007F7D4207800072CD579486B
:10075000A169D9B1C0F80090FFF7AEFD074604E0EB
:10076000FFF7AAFDC01B02280FD8686A8007F7D5DB
:1007700071484FF4FA510068B0FBF1F0009000BFEF
:100780000098411E0091FAD20EE080E0C0F800808F
:10079000FFF792FD074604E0FFF78EFDC01B02281D
:1007A00075D8686A8007F7D42078400760D5E86973
:1007B0000027C00008D4E86940F08050E861E8698B
:1007C000012700F0805000905C480168C90513D4EF
:1007D0000168834641F480710160FFF76DFD824638
:1007E00006E000BFFFF768FDA0EB0A0064284ED8C2
:1007F000DBF80000C005F5D5E06801280AD008B193
:10080000052813D0286A20F001002862286A20F009
:10081000040002E0286A40F001002862E06841F22A
:10082000883B98B1FFF748FD82460BE0286A40F00C
:1008300004002862EEE700BFFFF73EFDA0EB0A01CF
:1008400059455AD8286A8007F6D50CE0FFF734FDE1
:10085000824605E0FFF730FDA0EB0A0159454CD870
:10086000286A8007F6D41FB1E86920F08050E8615B
:10087000E06988B36968C1F38101022944D0022884
:10088000C6F8608004D0FFF717FD044638E034E076
:10089000FFF712FD074604E0FFF70EFDC01B02281C
:1008A0002BD828688001F7D4206AB0F5803F05D1A5
:1008B0006868A16820F4003008436860D4E9080142
:1008C0000843696821F4741108436860C6F86090B1
:1008D000FFF7F2FC044606E025E000BFFFF7ECFC62
:1008E000001B022809D828688001F7D51BE000BF4B
:1008F000FFF7E2FC001B022802D90320BDE8F88FB5
:1009000028688001F4D40EE00128F7D06868226AD4
:1009100000F48031914204D1616A00F47010884281
:1009200001D00120EAE70020E8E7000000100240C3
:1009300000004242800442420C000020007000404F
:100940007047704710B5040003D094F83D0010B113
:1009500007E0012010BD002084F83C00204600F094
:100960001EF8022084F83D00211D206800F042F9A5
:10097000012084F8460084F83E0084F83F0084F8A3
:10098000400084F8410084F8420084F8430084F871
:10099000440084F8450084F83D00002010BD7047F5
:1009A00090F83D10012901D001207047022180F804
:1009B0003D100168CA6842F00102CA6000680B4934
:1009C000884208D0B0F1804F05D00949884202D052
:1009D0000849884204D1816801F00701062903D043
:1009E000016841F00101016000207047002C0140C6
:1009F0000004004000080040704770B504460068DD
:100A000001694FF00005C943890715D4C168C9437E
:100A1000890711D4E91E01610120207720688069CF
:100A20008007204602D0FFF7E7FF04E000F098F8C7
:100A3000204600F096F8257720680169C9434907E8
:100A400017D4C168C943490713D46FF00401016189
:100A5000022020772068806910F4407F204602D071
:100A6000FFF7CAFF04E000F07BF8204600F079F8B9
:100A7000257720680169C943090716D4C168C943AD
:100A8000090712D46FF00801016104202077206863
:100A9000C0698007204602D0FFF7AEFF04E000F0F7
:100AA0005FF8204600F05DF8257720680169C943AA
:100AB000C90617D4C168C943C90613D46FF0100121
:100AC0000161082020772068C06910F4407F20462B
:100AD00002D0FFF791FF04E000F042F8204600F05A
:100AE00040F8257720680169C943C90708D1C16862
:100AF000C943C90704D1891E0161204600F032F8BC
:100B000020680169C943090609D4C168C9430906B7
:100B100005D46FF0800101612046FFF711FF2068C6
:100B20000169C943490609D4C168C943490605D4C6
:100B30006FF040010161204600F01EF82068016955
:100B4000C94389060BD4C168C943890607D46FF02D
:100B5000200101612046BDE87040FFF7F2BE70BD84
:100B60007047704700680349884201D1FFF7AABB6C
:100B700070470000000800407047FEE7FEE7FEE710
:100B800070477047704730B58FB028216846FFF72F
:100B90001BFB14210AA8FFF717FB01210804CDE96C
:100BA00000100024029402250491CDE907504FF46F
:100BB000E01009906846FFF733FD08B172B6FEE712
:100BC0000F20CDE90A054FF48060CDE90C400221E9
:100BD0000AA80E94FFF728FC002801D072B6FEE7A1
:100BE0000FB030BD704700000148FFF706BF00009E
:100BF00010000020F0B50268164B174C174D4FF04F
:100C00008047984205D0B84203D0A04201D0A84204
:100C100003D122F070064A683243984205D0B842A8
:100C200003D0A04201D0A84203D122F44074CA6884
:100C300022434C6922F08002224302608A68C26229
:100C40000A688262984201D1096901630121416108
:100C5000F0BD0000002C01400004004000080040EE
:100C6000FEE70907090E002804DB00F1E02080F808
:100C70000014704700F00F0000F1E02080F8141D10
:100C80007047704708B5FFF725FBFFF77CFF0B485F
:100C9000816941F020018161816901F020010091A9
:100CA000816941F004018161806900F004000090D5
:100CB00000F094F8FFF7E5FFFCE7000000100240A9
:100CC00003490A6822F400720A6000F0D9B80000F3
:100CD0000C0C01400346C0EBC30000EB400000B524
:100CE00001EB8000B0F5FC7F09D241F08000FFF7F6
:100CF000E7FF43F040005DF804EBFFF7E1BF00BD04
:100D0000134810B5816941F00401816111480168FF
:100D100021F0FF010160016841F01101016000F064
:100D200071F800F019F82120FFF7CAFF1320FFF730
:100D3000C7FF0720FFF7C4FFC020FFF7C1FF202037
:100D4000FFF7BEFFBDE810400C20FFF7B9BF000061
:100D50000010024004080140074810B5016821F462
:100D6000807101600120FFF795FA0448016841F4A1
:100D70008071016010BD00000C0C01400C080140A6
:100D800070B51446FFF7A6FF1148016841F40071E1
:100D90000160104D286820F4805028600E4E0FE04E
:100DA0000023207800EB400006EB4000184410F8C8
:100DB000C00C00F065F85B1CDBB2062BF1D3641CA1
:100DC00020780028ECD1286840F48050286070BD5D
:100DD0000C0801400C0C0140C40E000810B5FFF7D0
:100DE0008FFF0021BDE8104001A20120FFF7C8BF1E
:100DF0004E677579656E204B686163204E67686940
:100E0000610000001A48C16941F48041C1618169F3
:100E100041F0080181611748016889B201600168E9
:100E2000154A114301601548016821F00301016072
:100E3000016841F004010160016841F0180101609E
:100E4000016821F080010160016841F44071016096
:100E5000016821F480610160016821F40061016092
:100E60000021021D1160016841F0400101607047DE
:100E700000100240040C014000009199003800402D
:100E800008490A6822F480520A60074A1060101F5D
:100E9000026802681206FCD4086840F480500860BA
:100EA000704700000C0C01400C38004000000000AE
:100EB000000000000102030406070809000000000A
:100EC0000102030400000000000000005F000000B9
:100ED000000700070000147F147F1400242A7F2AD3
:100EE00012002313086462003649552250000005A1
:100EF00003000000001C224100000041221C0000F1
:100F000014083E08140008083E080800005030008D
:100F100000000808080808000060600000002010B9
:100F2000080402003E5149453E0000427F40000057
:100F30004261514946002141454B31001814127F4E
:100F400010002745454539003C4A494930000171A8
:100F500009050300364949493600064949291E005A
:100F6000003636000000005636000000081422410A
:100F7000000014141414140000412214080002018B
:100F800051090600324979413E007E1111117E005F
:100F90007F49494936003E41414122007F4141227B
:100FA0001C007F49494941007F09090901003E4170
:100FB00049497A007F0808087F0000417F4100000E
:100FC0002040413F01007F08142241007F40404003
:100FD00040007F020C027F007F0408107F003E412A
:100FE00041413E007F09090906003E4151215E0052
:100FF0007F091929460046494949310001017F010D
:1010000001003F4040403F001F2040201F003F4064
:1010100038403F0063140814630007087008070095
:10102000615149454300007F41410000020408101E
:1010300020000041417F0000040201020400404002
:101040004040400000010204000020545454780045
:101050007F484444380038444444200038444448DD
:101060007F00385454541800087E090102000C52C5
:1010700052523E007F080404780000447D40000086
:101080002040443D00007F102844000000417F4084
:1010900000007C04180478007C08040478003844BC
:1010A000444438007C1414140800081414187C00FC
:1010B0007C0804040800485454542000043F444071
:1010C00020003C4040207C001C2040201C003C4074
:1010D00030403C004428102844000C5050503C0044
:1010E0004464544C440000083641000000007F0076
:1010F000000000413608000010080810080078467B
:101100004146780006090906000000002C1100087D
:101110000000002010000000280100083C11000819
:1011200010000020A8060000440100080100000093
:0C11300010000000000000000024F4008B
:04000005080000ED02
:00000001FF
