:020000040800F2
:10000000B806002089010008A30B00089F0B000818
:10001000A10B00088F020008850C000800000000FA
:10002000000000000000000000000000A70B000816
:100030009102000800000000A50B0008A90B0008B1
:10004000A3010008A3010008A3010008A301000800
:10005000A3010008A3010008A3010008A3010008F0
:10006000A3010008A3010008A3010008A3010008E0
:10007000A3010008A3010008A3010008A3010008D0
:10008000A3010008A3010008A3010008A3010008C0
:10009000A3010008A3010008A3010008A3010008B0
:1000A000A3010008A3010008A3010008A3010008A0
:1000B000A3010008A30100080D0C0008A30100081B
:1000C000A3010008A3010008A3010008A301000880
:1000D000A3010008A3010008A3010008A301000870
:1000E000A3010008A3010008A301000800F002F822
:1000F00000F03AF80AA090E8000C82448344AAF188
:100100000107DA4501D100F02FF8AFF2090EBAE885
:100110000F0013F0010F18BFFB1A43F0010318473B
:10012000C80C0000E80C0000103A24BF78C878C161
:10013000FAD8520724BF30C830C144BF04680C60ED
:10014000704700000023002400250026103A28BF35
:1001500078C1FBD8520728BF30C148BF0B60704739
:100160001FB51FBD10B510BD00F058F81146FFF7C0
:10017000F7FF00F0C3FD00F076F803B4FFF7F2FFDD
:1001800003BC00F07DF8000009488047094800479B
:10019000FEE7FEE7FEE7FEE7FEE7FEE7FEE7FEE737
:1001A000FEE7FEE704480549054A064B7047000094
:1001B000090C0008ED000008B8000020B806002077
:1001C000B8020020B80200204FF0000200B513462C
:1001D00094469646203922BFA0E80C50A0E80C5067
:1001E000B1F12001BFF4F7AF090728BFA0E80C5018
:1001F00048BF0CC05DF804EB890028BF40F8042B11
:1002000008BF704748BF20F8022B11F0804F18BF7D
:1002100000F8012B7047704770477047754600F033
:100220002BF8AE4605006946534620F00700854688
:1002300018B020B5FFF7B6FFBDE820404FF000062C
:100240004FF000074FF000084FF0000B21F00701BE
:10025000AC46ACE8C009ACE8C009ACE8C009ACE801
:10026000C0098D46704710B50446AFF300802046A4
:10027000BDE81040FFF781BF0048704758000020DC
:1002800001491820ABBEFEE7260002007047FEE7DA
:100290007047000070B5044600F00EF80546601C7B
:1002A00002D004480078044400F006F8401BA04245
:1002B000FAD370BD0000002001488068704700003C
:1002C0000000002002488168027811448160704774
:1002D00000000020074810B5016841F010010160DE
:1002E000032000F0A1F80F2000F006F800F050F80D
:1002F000002010BD0020024030B505461F4887B0E1
:10030000C16941F00401C161C06906A900F004009F
:10031000009001A800F030F90498B0B100F04CF959
:1003200040001749174AB0FBF1F11748491E026017
:10033000416040F2E7320021C0E903218160816120
:1003400000F012FB040003D015E000F035F9E8E7F7
:100350000D4800F037FB04000DD11E2000F036F8E8
:10036000102D07D2002229461E2000F03DF8074834
:10037000056000E0012407B0204630BD00100240B7
:1003800040420F0000080040100000200400002040
:100390000C4808B5816941F001018161816901F072
:1003A00001010091C16941F08051C161C06900F053
:1003B000805000900448416821F0E06141F00071F4
:1003C000416008BD0010024000000140002809DB28
:1003D00000F01F02012191404009800000F1E0205F
:1003E000C0F8001170470000F0B40E4B1B680C46BB
:1003F000C3F30223C3F10705042D00D90425191DF9
:10040000072901D2002300E0DB1E012606FA05F1D0
:10041000491E214099409E40761E16403143F0BC53
:1004200000F031BC0CED00E0064900F0070208685E
:100430004FF6FF03184040EA0220034A10430860C9
:10044000704700000CED00E00000FA052DE9F047D0
:100450000F46050061D0434E306800F00700B842F7
:1004600009D2306820F0070038433060306800F06F
:100470000700B84251D128683B4C810712D540078C
:1004800003D5606840F4E06060602878000703D519
:10049000606840F4605060606068A96820F0F00017
:1004A000084360602878C00728D06868012810D009
:1004B0002168022810D0890700292EDA616821F00E
:1004C000030101436160FFF7F7FE804641F288397E
:1004D0000DE021688903EFE78901EDE7FFF7ECFE06
:1004E000A0EB0801494502D90320BDE8F087606808
:1004F000696800F00C00B0EB810FEFD1306800F0BC
:100500000700B8420BD9306820F00700384330604C
:10051000306800F00700B84201D00120E5E72878F4
:10052000400705D56068E96820F4E0600843606032
:100530002878000706D56068296920F4605040EAF1
:10054000C100606000F048F86168084AC1F3031117
:10055000515CC8400649086006480068FFF7CCFEB9
:100560000020C2E70020024000100240D00D000829
:100570000C000020040000200F2202600C4A536887
:1005800003F003034360536803F0F0038360536890
:1005900003F4E063C36052684FF4E06303EAD202FD
:1005A00002610448006800F007000860704700001E
:1005B00000100240002002400448054900684968D4
:1005C000044AC1F30221515CC84070470C0000206E
:1005D00000100240E00D000812A185B00FC98DE89F
:1005E0000F0014A0144A006804905168134801F0E9
:1005F0000C03042B10D0082B0ED1C1F38343C90385
:100600001DF803000AD5516804AAC1F34041515CAA
:100610000A4A5043B0FBF1F005B07047084948431F
:10062000FAE7000002030405060708090A0B0C0D8F
:100630000E0F1010010200000010024000127A009C
:1006400000093D002DE9F84F040070D02078C04D1E
:10065000C00749D06868C0F38100012807D06868E6
:10066000C0F38100022809D16868C00306D5286854
:10067000800339D560680028E7D035E06068B0F5C0
:10068000803F0BD010B1B0F5A02F11D0286820F416
:1006900080302860286820F4802002E0286840F438
:1006A00080302860606890B1FFF706FE06460AE0D9
:1006B000286840F480202860F0E700BFFFF7FCFDC9
:1006C000801B642873D828688003F7D50CE0FFF7F7
:1006D000F3FD064605E000BFFFF7EEFD801B642832
:1006E000F0D828688003F7D420789A4E80074FF01E
:1006F00001094FF0000839D5686810F00C0F07D0D9
:100700006868C0F38100022809D16868C00306D474
:100710002868800714D52069012808D110E02069D5
:10072000B0B1C6F80090FFF7C7FD074605E00AE143
:10073000FFF7C2FDC01B0228C4D828688007F7D580
:100740002868616920F0F80040EAC10028600DE0E7
:10075000C6F80080FFF7B0FD074604E0FFF7ACFDE8
:10076000C01B022823D828688007F7D42078000708
:100770002CD57948A169D9B1C0F80090FFF79CFD4C
:10078000074604E0FFF798FDC01B02280FD8686AEF
:100790008007F7D571484FF4FA510068B0FBF1F0CB
:1007A000009000BF0098411E0091FAD20EE080E058
:1007B000C0F80080FFF780FD074604E0FFF77CFDEE
:1007C000C01B022875D8686A8007F7D420784007D4
:1007D00060D5E8690027C00008D4E86940F080507F
:1007E000E861E869012700F0805000905C480168EA
:1007F000C90513D40168834641F480710160FFF795
:100800005BFD824606E000BFFFF756FDA0EB0A0045
:1008100064284ED8DBF80000C005F5D5E068012853
:100820000AD008B1052813D0286A20F001002862F8
:10083000286A20F0040002E0286A40F001002862E3
:10084000E06841F2883B98B1FFF736FD82460BE045
:10085000286A40F004002862EEE700BFFFF72CFD95
:10086000A0EB0A0159455AD8286A8007F6D50CE052
:10087000FFF722FD824605E0FFF71EFDA0EB0A010F
:1008800059454CD8286A8007F6D41FB1E86920F092
:100890008050E861E06988B36968C1F38101022989
:1008A00044D00228C6F8608004D0FFF705FD044656
:1008B00038E034E0FFF700FD074604E0FFF7FCFCFA
:1008C000C01B02282BD828688001F7D4206AB0F515
:1008D000803F05D16868A16820F400300843686053
:1008E000D4E908010843696821F474110843686079
:1008F000C6F86090FFF7E0FC044606E025E000BF84
:10090000FFF7DAFC001B022809D828688001F7D518
:100910001BE000BFFFF7D0FC001B022802D9032018
:10092000BDE8F88F28688001F4D40EE00128F7D0E4
:100930006868226A00F48031914204D1616A00F44F
:100940007010884201D00120EAE70020E8E70000AB
:100950000010024000004242800442420C0000208D
:10096000007000407047704710B5040003D094F841
:100970003D0010B107E0012010BD002084F83C00CC
:10098000204600F01EF8022084F83D00211D20685A
:1009900000F042F9012084F8460084F83E0084F813
:1009A0003F0084F8400084F8410084F8420084F855
:1009B000430084F8440084F8450084F83D0000209A
:1009C00010BD704790F83D10012901D001207047FB
:1009D000022180F83D100168CA6842F00102CA6035
:1009E00000680B49884208D0B0F1804F05D0094912
:1009F000884202D00849884204D1816801F0070189
:100A0000062903D0016841F0010101600020704710
:100A1000002C01400004004000080040704770B501
:100A20000446006801694FF00005C943890715D4E1
:100A3000C168C943890711D4E91E016101202077EB
:100A4000206880698007204602D0FFF7E7FF04E0B6
:100A500000F098F8204600F096F8257720680169A4
:100A6000C943490717D4C168C943490713D46FF074
:100A700004010161022020772068806910F4407F22
:100A8000204602D0FFF7CAFF04E000F07BF82046C2
:100A900000F079F8257720680169C943090716D461
:100AA000C168C943090712D46FF00801016104202D
:100AB00020772068C0698007204602D0FFF7AEFF8C
:100AC00004E000F05FF8204600F05DF8257720682C
:100AD0000169C943C90617D4C168C943C90613D4FB
:100AE0006FF010010161082020772068C06910F4C0
:100AF000407F204602D0FFF791FF04E000F042F86B
:100B0000204600F040F8257720680169C943C907ED
:100B100008D1C168C943C90704D1891E01612046B3
:100B200000F032F820680169C943090609D4C16898
:100B3000C943090605D46FF0800101612046FFF723
:100B400011FF20680169C943490609D4C168C94336
:100B5000490605D46FF040010161204600F01EF8FF
:100B600020680169C94389060BD4C168C943890655
:100B700007D46FF0200101612046BDE87040FFF707
:100B8000F2BE70BD7047704700680349884201D1CA
:100B9000FFF798BB70470000000800407047FEE771
:100BA000FEE7FEE770477047704730B58FB02821E9
:100BB0006846FFF709FB14210AA8FFF705FB01218E
:100BC0000804CDE900100024029402250491CDE927
:100BD00007504FF4E01009906846FFF733FD08B165
:100BE00072B6FEE70F20CDE90A054FF48060CDE92B
:100BF0000C4002210AA80E94FFF728FC002801D01F
:100C000072B6FEE70FB030BD704700000148FFF735
:100C100006BF000010000020F0B50268164B174C0C
:100C2000174D4FF08047984205D0B84203D0A042FC
:100C300001D0A84203D122F070064A68324398429C
:100C400005D0B84203D0A04201D0A84203D122F47B
:100C50004074CA6822434C6922F080022243026039
:100C60008A68C2620A688262984201D10969016396
:100C700001214161F0BD0000002C01400004004052
:100C800000080040FEE70907090E002804DB00F118
:100C9000E02080F80014704700F00F0000F1E02021
:100CA00080F8141D704700000748816941F0100169
:100CB00081610648416821F470014160416841F456
:100CC0008011416070470000001002400010014098
:100CD00070B5094CE06820F40050E0604FF4FA75FC
:100CE0002846FFF7D7FAE06840F40050E060284655
:100CF000BDE87040FFF7CEBA0010014008B5FFF71D
:100D0000E9FAFFF752FF0B48816941F02001816148
:100D1000816901F020010091816941F00401816144
:100D2000806900F00400009000F006F8FFF7D0FFA3
:100D3000FCE700000010024000B5FFF7B5FF5DF8CA
:100D400004EB00F001B800001E48816941F0040185
:100D500081611D490A6822F00F020A600A6842F0A8
:100D60000B020A60816941F400618161174900202A
:100D70000860091D0860091D40F60F6008601348EF
:100D80002438016841F02001016010490C390A68DB
:100D900042F068020A600D49091F0A6842F0030226
:100DA0000A600A4920310A6842F420420A60016858
:100DB00041F00101016005494FF47A70103108607B
:100DC000704700000010024004080140242C01403C
:100DD00000000000000000000102030406070809EB
:100DE0000000000001020304080E000800000020BB
:100DF0001000000028010008180E00081000002054
:100E0000A8060000440100080100000010000000D6
:080E1000000000000024F400C2
:04000005080000ED02
:00000001FF
