:020000040800F2
:1000000030080020A90100083B1F0008F31E00086B
:10001000391F0008310E00085121000800000000BF
:100020000000000000000000000000007520000833
:10003000330E0008000000003D1F00087720000874
:10004000C3010008C3010008C3010008C301000880
:10005000C3010008C3010008C3010008C301000870
:10006000C3010008C3010008C3010008C301000860
:10007000C3010008C3010008C3010008C301000850
:10008000C3010008C3010008C3010008C301000840
:10009000C3010008C3010008C3010008C301000830
:1000A000C3010008C3010008C3010008C301000820
:1000B000C3010008C3010008D9200008C3010008DB
:1000C000C3010008C3010008C3010008C301000800
:1000D000C3010008C3010008C3010008C3010008F0
:1000E000C3010008C3010008C301000800F002F8C2
:1000F00000F04AF80AA090E8000C82448344AAF178
:100100000107DA4501D100F03FF8AFF2090EBAE875
:100110000F0013F0010F18BFFB1A43F0010318473B
:100120001426000034260000103A24BF78C878C195
:10013000FAD8520724BF30C830C144BF04680C60ED
:10014000704700000023002400250026103A28BF35
:1001500078C1FBD8520728BF30C148BF0B60704739
:10016000642900F07580782900F0AE800020704787
:100170001FB59DE8030000F02DFC00F01FFA1FBD25
:1001800010B500F084FA10BD00F0E7FA1146FFF751
:10019000EFFF02F061FA00F0EBFB03B4FFF7F0FFB2
:1001A00003BC00F0A9FD000009488047094800474A
:1001B000FEE7FEE7FEE7FEE7FEE7FEE7FEE7FEE717
:1001C000FEE7FEE704480549054A064B7047000074
:1001D000D7200008ED000008300200203008002081
:1001E00030040020300400200FB4044910B503AAE5
:1001F000029800F0B5F910BC5DF814FB280100204E
:1002000070B5044685690068C10601D5302600E056
:100210002026C00707D070BDD4E9012130469047A1
:10022000206A401C20626D1EF6D570BD70B5044674
:1002300085690078C00707D170BDD4E9012120206D
:100240009047206A401C20626D1EF6D570BD0000EC
:100250002DE9F0410646002410687529314616A59F
:1002600010D0AFF30080002802DA404213A507E067
:1002700031688A0701D512A502E0490704D511A506
:10028000012401E0AFF3008000210A2206F12407D7
:1002900009E0B0FBF2FCB0FBF2F302FB1C003030D3
:1002A00078541846491C0028F3D123462A46304684
:1002B000BDE8F04100F0FAB8000000002D00000099
:1002C0002B0000002000000070B504460D462146BA
:1002D0001068AFF300802188090502D50F4A7A44DF
:1002E00002E00E4A7A440E32002104F1240305E0B4
:1002F00000F00F060009965D5E54491C0028F7D1F6
:1003000020780023000704D5702D02D009B1022304
:1003100011322046BDE8704000F0C8B80A24000041
:100320002DE9F05F894604464FF0000ADFF824B15A
:10033000FB44C0F820A02046E168884700287DD013
:10034000252806D0D4E901219047206A401C20626C
:10035000F1E700255F462046E168884720280646E9
:1003600007DB312E05D2B81910F8200C08B105436F
:10037000F1E7A80701D525F00405C4F81CA0002763
:10038000C4F818A02A2E09D0304601F0F2FE38B386
:1003900004EB8708303EC8F8186019E059F8041BD0
:1003A000204604EB87029161E1688847012F0646E9
:1003B00018D1E069002820DA25F020051DE0D8F8E2
:1003C000180000EB800006EB40003038C8F8180039
:1003D0002046E1688847064601F0CBFE0028EED1B2
:1003E000012F0AD02E2E08D12046E16888477F1CB5
:1003F0000646022F45F02005C4DBA069002803DA79
:10040000404245F00105A061E80701D025F0100544
:10041000A6B1A6F14100192802D8203645F400659E
:100420004A463146204625604D46FFF799FE60B1A9
:10043000012807D0ED1D25F0070000E007E000F1DE
:10044000080978E705F1040975E730467AE7206A7C
:10045000BDE8F09FE02300004FF0000200B5134616
:1004600094469646203922BFA0E80C50A0E80C50D4
:10047000B1F12001BFF4F7AF090728BFA0E80C5085
:1004800048BF0CC05DF804EB890028BF40F8042B7E
:1004900008BF704748BF20F8022B11F0804F18BFEB
:1004A00000F8012B70477047704770472DE9F047FF
:1004B0000D4699469246044600F1240801688806D4
:1004C00004D5E06921F01001216000E00120A8427C
:1004D00001DD471B00E00027A1697A1902EB090042
:1004E000081AA0612078C00602D42046FFF788FED3
:1004F000002608E0D4E901211AF806009047206A96
:10050000401C761C20624E45F4DB2078C0060AD5DC
:100510002046FFF775FE06E0D4E901213020904720
:10052000206A401C2062381EA7F10107F4DC07E0B6
:10053000D4E9012118F805009047206A401C206288
:10054000281EA5F10105F3DC2046FFF76FFE207899
:10055000000602D50220BDE8F0870120FBE700007D
:10056000074B70B50D467B4400F011F80446284651
:1005700000F020F810B14FF0FF3070BD204670BD84
:10058000C320000001694A1C02610878704700B569
:100590008FB0CDE901310021059105497944CDE9BC
:1005A000031011466846FFF7BBFE0FB000BD000008
:1005B000E5FFFFFF007B00F08000704710B5424868
:1005C0005421FFF749FF41485421FFF745FF4048B8
:1005D0005421FFF741FF3F493B483C4A3F4B0860ED
:1005E0003D490A603A491960531C0365481C10656F
:1005F000012008653B48344A39A1784400F01CF9D1
:1006000020B9384878440A3800F0BBF937482F4AF7
:1006100035A1784400F010F920B9344878440A38FC
:1006200000F0AFF932482A4A2FA1784400F004F9CB
:1006300020B92F4878440A3800F0A3F94023224813
:10064000DC000021224600F0D4F820B1254878448F
:10065000543800F096F91D4822464023002100F04E
:10066000C8F820B121487844543800F08AF9184875
:1006700022461023002100F0BCF8002806D01C48B8
:100680007844BDE81040563800F07BB910BD1048E2
:1006900070B5006D20F001040B4800F043F90B48E1
:1006A00000F040F90A4800F03DF909E0206D20F023
:1006B0000105204600F036F9204600F073F82C467C
:1006C000002CF3D170BD0000D400002028010020D0
:1006D0007C010020280000202C0000203000002099
:1006E00072000000272100007700000013210000A5
:1006F000FF2000000EB5CDE9000100F0DDFA029008
:1007000069460120ABBE0EBD08B5694600900220C7
:10071000ABBE08BD1FB58DE8070069460520ABBE1E
:1007200004B010BD1FB58DE80F0069460620ABBEB2
:10073000F6E708B5694600900920ABBE08BD1CB5B8
:10074000CDE9000169460A20ABBE1CBD704708B563
:10075000694600900C20ABBE08BD754600F018F944
:10076000AE4605006946534620F00700854618B09E
:1007700020B5FFF727FDBDE820404FF000064FF001
:1007800000074FF000084FF0000B21F00701AC46C6
:10079000ACE8C009ACE8C009ACE8C009ACE8C009E5
:1007A0008D46704770B50446051F00F0F7F80068E5
:1007B000002C14BF446870BD002C18BFAC423CBF75
:1007C00020466468F8D301680A18AA4218BF456039
:1007D00003D12A6805461144016028684119A142E5
:1007E0001CBF6C6070BD6168696021680844286046
:1007F00070BD70B5C468A50713D0650211D4B2F5F9
:10080000807F09D0B2F5007F06D0B2F5806F08D1A5
:10081000012300F1240106E05D1E6FF07F46B54222
:1008200001D3012070BD0161C361416024F4706196
:100830001143C160002070BD2DE9F0410C46074610
:100840001646104600F06EF82078611C61280AD028
:10085000722802D077283CD102E00125002405E06F
:100860000225042402E0082448F2020511F8010BD5
:100870002B2806D0622809D011F8010C74280AD060
:100880000BE045F0030544F00204EFE745F00405F2
:1008900044F00104EAE744F0100438462146FFF72B
:1008A00029FF411C15D00021316171604FF40071A6
:1008B000F560F1617061200704D530460222002105
:1008C00000F0E6F8306D40F0010030653046BDE8DC
:1008D000F0810020FBE72DE9F0410D460646104C63
:1008E000206DC10704D0410804D020F00104F7E7CF
:1008F00022460EE0542000F09CF807000ED0206D38
:1009000047F001010843542120653846FFF7A4FD54
:100910003A4629463046BDE8F0418DE70020D6E74B
:10092000D40000202DE9F04704464FF000094FF0B5
:10093000FF37C568D4E90486A80707D0204600F031
:1009400057F93046FFF7E0FE002802DA3846BDE8E6
:10095000F087280502D54046FFF724FF4C212046AA
:10096000FFF77AFD206D20F0010020654846EEE794
:1009700010B50446AFF300802046BDE81040FFF7F5
:100980000CBC10B500F07EF9BDE8104000F074B961
:1009900000487047D00100207047000000487047B1
:1009A000D8010020704770477047704738B504463B
:1009B0000A4600206946AFF30080002808BF38BD12
:1009C00002460099204600F0A4F9012038BD01201C
:1009D00000F0F3B9F8B5AFF30080054600200C46EF
:1009E000102000BF0646A819A0420DD9324669461C
:1009F0000020AFF30080070008BF00F0DEF9009888
:100A0000A04218BF0546C419FFF7C8FF0560074696
:100A1000F01D20F007004619284600F073F9B44293
:100A200008BFF8BDA21B31463868BDE8F84000F0A9
:100A300070B970B50646FFF7B1FF056806F10B0007
:100A400020F00704B4429CBF002070BD2B466A68AA
:100A5000BAB11068A04210D304F1080188423CBF2B
:100A60005068586007D35168101941601168091B1C
:100A7000016058601460101D70BD13465268002A52
:100A8000E7D121462846FFF791FF0028DED170BD4F
:100A90002DE9F041044616460D464769007B800764
:100AA0002ED03846FFF745FE50BB3EB3012E02D094
:100AB000022E25D104E0204600F045F905441DE052
:100AC0003846FFF744FEE168002841F01001E1607C
:100AD00005DA204600F058F80120BDE8F081C9038E
:100AE0000BD56268E16A914200D81146A2691144AF
:100AF0002269891A814200DD08460544002D01DA89
:100B00000220EAE7E16A6068E268814206D2910366
:100B1000E06203D522F4003141F01002A6690027FB
:100B2000AE4213DCE16A814201D90B4600E0034684
:100B300003EB060C2369ACEB030CAC4506DD8142EC
:100B400001D98C4600E084469C4505D1A76027600A
:100B500042F02000A5620DE0AD1BE669AE1B8142AC
:100B6000A66000D90846C01A281A2060581960608B
:100B700022F0200003490840E060002084F848701B
:100B8000ABE70000BFCFD7FFC16821F4001141F0EF
:100B90008001C16000218160016070472DE9F0474C
:100BA000814614460E464FF0FF383248D5685769E3
:100BB000054209D03846A169FFF7C1FD002811DBC5
:100BC0002C48C0430540E5602B463246494638462E
:100BD000FFF7A0FDA16920F00042B21A11440028DD
:100BE000A16103D02046FFF7CFFF4046BDE8F08764
:100BF00070B504460569C06A6168884200D8084635
:100C0000E16821F42011E160C90312D5A84208D09F
:100C10002246411B2846FFF7C1FF10B14FF0FF30BD
:100C200070BD0020E562C4E90150E06820F4803026
:100C3000E060002070BD10B50446C06820F02000C0
:100C4000E060A16AA06988420DD02046FFF7D0FF7E
:100C5000E06820F4405040F01000E060A06AA0611D
:100C60002069E062606044F24001E0688843E0602F
:100C700010BD000010000200002801D000F03CB8B8
:100C80007047000010B5014602A000F07DF8012079
:100C900010BD000053494752545245443A20526512
:100CA0006469726563743A2063616E2774206F70A3
:100CB000656E3A200000000010B5431C02E010F8F9
:100CC000011B71B18107FAD14FF0013202C88C1AB1
:100CD0008C4314EAC211F9D0C01A0A0603D0C01E10
:100CE00010BDC01A10BD0A0401D0801E10BD09023B
:100CF000FCD0401E10BD000001491820ABBEFEE72D
:100D00002600020000210160C0E901107047102098
:100D10007047034640688C46002818BF88423CBF95
:100D200003464068F8D318681844884207D00CF18D
:100D3000030020F00700001D411A521A0146081D49
:100D40000A60FFF72FBD10B50146C268900703D0B7
:100D5000900607D5886A0AE000F03EF8012101609C
:100D6000881E10BD8B69486818440B69C01A91F839
:100D700048301BB191F84910401A10BD1103FCD541
:100D80000028FADD401E10BD70B505460C460A204D
:100D900000E06D1C00F018F835B128780028F8D173
:100DA00002E0641C00F010F814B120780028F8D19B
:100DB000BDE870400A2000F007B810B500F010F848
:100DC000BDE81040FFF758BF08B569468DF8000030
:100DD0000320ABBE08BD000000487047D0010020D2
:100DE00010B5012805D0002103A0FFF7CDFF012099
:100DF00010BD09A1F8E7000053494752544D454D35
:100E00003A204F7574206F662068656170206D65AB
:100E10006D6F7279000000003A2048656170206DA6
:100E2000656D6F727920636F72727570746564009E
:100E3000FEE7704770B5044600F004F90546601CF3
:100E400002D004480078044400F0FCF8401BA042A3
:100E5000FAD370BD000000202DE9F84FDFF8B891FB
:100E6000002409F1040A0AF1040B23460F270BF1B1
:100E7000040EC9E00125A5402A40AA427DD1674E53
:100E8000D1F804C0ACEB0608B44532D014DCBCF198
:100E9000030F3AD009DCBCF1000F2AD0BCF1010FDE
:100EA0001CD0BCF1020F31D11DE0BCF1110F17D0E5
:100EB000BCF1120F2AD119E0B8F5881F19D006DC51
:100EC000B8F5803F15D0B8F5801F1FD111E0B8F5F7
:100ED000001F0ED0B8F5041F18D10AE0CB6815E04A
:100EE000CB681B1D12E0CB6808330FE0CB680C33D6
:100EF0000CE08B682BB1012B4FF0080303D0456148
:100F000004E0042302E0056100E00023FF2A01D889
:100F1000064601E000F104064FEA840501D9A5F177
:100F20002005D6F8008007FA05FC28EA0C0803FA29
:100F300005F548EA0508C6F800804D68ED0062D561
:100F4000374DAE6946F00106AE61AD6924F0030687
:100F500005F001050095334D06EB050CDCF8085053
:100F6000A607360F07FA06F825EA0805DFF8B88065
:100F7000404503D14FF0000817E044E0DFF8AC80B3
:100F8000404502D14FF001080FE0DFF8A480404552
:100F900002D14FF0020808E0DFF89880404502D106
:100FA0004FF0030801E04FF0040808FA06F848EA99
:100FB0000508CCF808804D68D9F80060ED034D466F
:100FC00001D5164300E096432E604D68DAF80060C4
:100FD000AD03554601D5164300E096432E604D689B
:100FE000DBF80060ED025D4601D5164300E0964354
:100FF0002E604D68DEF80060AD02754601D51643DF
:1010000000E096432E60641C0D682A46E5407FF49C
:1010100031AFBDE8F88F000000040140000011105E
:10102000001002400000014000080140000C014097
:1010300000100140001401400AB101617047090429
:10104000FBE70000014880687047000000000020B6
:1010500002488168027811448160704700000020D6
:10106000074810B5016841F010010160032000F04D
:10107000A1F80F2000F006F800F050F8002010BD95
:101080000020024030B505461F4887B0C16941F0D5
:101090000401C161C06906A900F00400009001A824
:1010A00000F030F90498B0B100F04CF94000174955
:1010B000174AB0FBF1F11748491E0260416040F247
:1010C000E7320021C0E903218160816100F0F5FD74
:1010D000040003D015E000F035F9E8E70D4800F012
:1010E0001BFE04000DD11E2000F036F8102D07D293
:1010F000002229461E2000F03DF80748056000E068
:10110000012407B0204630BD0010024040420F00CD
:10111000000800408C000020040000200C4808B5A6
:10112000816941F001018161816901F00101009152
:10113000C16941F08051C161C06900F080500090E8
:101140000448416821F0E06141F00071416008BD50
:101150000010024000000140002809DB00F01F02DF
:10116000012191404009800000F1E020C0F8001109
:1011700070470000F0B40E4B1B680C46C3F302230B
:10118000C3F10705042D00D90425191D072901D233
:10119000002300E0DB1E012606FA05F1491E21406E
:1011A00099409E40761E16403143F0BC00F0D1BFFE
:1011B0000CED00E0064900F0070208684FF6FF0357
:1011C000184040EA0220034A1043086070470000BC
:1011D0000CED00E00000FA052DE9F0470F46050090
:1011E00061D0434E306800F00700B84209D2306841
:1011F00020F0070038433060306800F00700B84244
:1012000051D128683B4C810712D5400703D560684F
:1012100040F4E06060602878000703D5606840F41F
:10122000605060606068A96820F0F000084360606A
:101230002878C00728D06868012810D021680228C3
:1012400010D0890700292EDA616821F003010143DB
:101250006160FFF7F7FE804641F288390DE02168B2
:101260008903EFE78901EDE7FFF7ECFEA0EB08014A
:10127000494502D90320BDE8F0876068696800F03D
:101280000C00B0EB810FEFD1306800F00700B842DE
:101290000BD9306820F0070038433060306800F028
:1012A0000700B84201D00120E5E72878400705D5BE
:1012B0006068E96820F4E06008436060287800070F
:1012C00006D56068296920F4605040EAC10060607A
:1012D00000F048F86168084AC1F30311515CC84046
:1012E0000649086006480068FFF7CCFE0020C2E708
:1012F0000020024000100240D42600080C0000200C
:10130000040000200F2202600C4A536803F003031C
:101310004360536803F0F0038360536803F4E063B1
:10132000C36052684FF4E06303EAD20202610448EA
:10133000006800F0070008607047000000100240DD
:10134000002002400448054900684968044AC1F386
:101350000221515CC84070470C0000200010024080
:10136000E426000812A185B00FC98DE80F0014A073
:10137000144A006804905168134801F00C03042BD0
:1013800010D0082B0ED1C1F38343C9031DF803000D
:101390000AD5516804AAC1F34041515C0A4A50433E
:1013A000B0FBF1F005B0704708494843FAE7000088
:1013B00002030405060708090A0B0C0D0E0F101096
:1013C000010200000010024000127A0000093D00F6
:1013D0002DE9F84F040070D02078C04DC00749D0E7
:1013E0006868C0F38100012807D06868C0F38100F5
:1013F000022809D16868C00306D52868800339D55A
:1014000060680028E7D035E06068B0F5803F0BD019
:1014100010B1B0F5A02F11D0286820F480302860DA
:10142000286820F4802002E0286840F4803028609A
:10143000606890B1FFF706FE06460AE0286840F4AF
:1014400080202860F0E700BFFFF7FCFD801B6428C8
:1014500073D828688003F7D50CE0FFF7F3FD064644
:1014600005E000BFFFF7EEFD801B6428F0D8286878
:101470008003F7D420789A4E80074FF001094FF08F
:10148000000839D5686810F00C0F07D06868C0F301
:101490008100022809D16868C00306D42868800743
:1014A00014D52069012808D110E02069B0B1C6F830
:1014B0000090FFF7C7FD074605E00AE1FFF7C2FD10
:1014C000C01B0228C4D828688007F7D5286861693E
:1014D00020F0F80040EAC10028600DE0C6F8008066
:1014E000FFF7B0FD074604E0FFF7ACFDC01B022884
:1014F00023D828688007F7D4207800072CD57948AE
:10150000A169D9B1C0F80090FFF79CFD074604E03F
:10151000FFF798FDC01B02280FD8686A8007F7D52F
:1015200071484FF4FA510068B0FBF1F0009000BF31
:101530000098411E0091FAD20EE080E0C0F80080D1
:10154000FFF780FD074604E0FFF77CFDC01B022883
:1015500075D8686A8007F7D42078400760D5E869B5
:101560000027C00008D4E86940F08050E861E869CD
:10157000012700F0805000905C480168C90513D431
:101580000168834641F480710160FFF75BFD82468C
:1015900006E000BFFFF756FDA0EB0A0064284ED816
:1015A000DBF80000C005F5D5E06801280AD008B1D5
:1015B000052813D0286A20F001002862286A20F04C
:1015C000040002E0286A40F001002862E06841F26D
:1015D000883B98B1FFF736FD82460BE0286A40F061
:1015E00004002862EEE700BFFFF72CFDA0EB0A0124
:1015F00059455AD8286A8007F6D50CE0FFF722FD36
:10160000824605E0FFF71EFDA0EB0A0159454CD8C4
:10161000286A8007F6D41FB1E86920F08050E8619D
:10162000E06988B36968C1F38101022944D00228C6
:10163000C6F8608004D0FFF705FD044638E034E0CA
:10164000FFF700FD074604E0FFF7FCFCC01B022883
:101650002BD828688001F7D4206AB0F5803F05D1E7
:101660006868A16820F4003008436860D4E9080184
:101670000843696821F4741108436860C6F86090F3
:10168000FFF7E0FC044606E025E000BFFFF7DAFCC8
:10169000001B022809D828688001F7D51BE000BF8D
:1016A000FFF7D0FC001B022802D90320BDE8F88F09
:1016B00028688001F4D40EE00128F7D06868226A17
:1016C00000F48031914204D1616A00F470108842C4
:1016D00001D00120EAE70020E8E700000010024006
:1016E00000004242800442420C0000200070004092
:1016F00070B5040009D0606A002540B125616561BC
:10170000A56294F8510040B10CE0012070BD606802
:10171000B0F5827FF4D0E561F2E784F850502046BE
:1017200000F040F8022084F851002068016821F0A0
:1017300040010160A088218900F4827001F4044115
:101740000843A18901F400610843217C01F00201F2
:101750000843217D01F001010843218B01F4007150
:101760000843217F01F03801084394F8201001F06C
:1017700080010843218D01F400510843216808606D
:10178000A069042101EA1040216848602068C1690D
:1017900021F40061C1616565012084F851000020D9
:1017A00070BD000030B585B000240094019402940F
:1017B000039400681449884223D11448816941F494
:1017C00080518161816901F480510491816941F006
:1017D0000401816180690E4D00F004000490A02096
:1017E0000090022001900320039069462846FFF7ED
:1017F00033FB4020CDE90004694628460294FFF7F8
:101800002BFB05B030BD000000300140001002404D
:10181000000801402DE9F84F04464068002598462D
:1018200016460F464FF0040BB0F5827F01D1A06839
:1018300088B194F85000012818D0012084F8500095
:10184000FFF700FC814694F851004FF0000A012890
:101850000ED0022582E084F851B013460A46204695
:10186000CDF8008000F036F9BDE8F88F0220FBE7E4
:10187000002F72D0002E70D084F851B0C4F854A05C
:10188000A763A687E687C4F830A0A4F834A0A4F81C
:1018900036A0C4F840A0C4F844A0A068B0F5004F3A
:1018A00009D12068016821F04001016020680168C9
:1018B00021F48041016020680168490603D4016871
:1018C00041F040010160E068D8B139E020688168EA
:1018D000C90709D0007BA16B0870A06B401CA063F6
:1018E000E08F401EE0870CE0FFF7ACFBA0EB0901A6
:1018F000414503D3B8F1FF3F03D036E0B8F1000F04
:1019000033D0E08F0028E1D11DE020688168C9074D
:1019100009D0C068A16B0880A06B801CA063E08F19
:10192000401EE0870CE0FFF78DFBA0EB090141456D
:1019300003D3B8F1FF3F03D017E0B8F1000F14D084
:10194000E08F0028E1D14A464146204600F0F7FAF0
:1019500008B120206065606D00B10125012084F888
:10196000510084F850A028467EE70325F6E72DE9CC
:10197000F84F044690F8500000271D461646894649
:1019800001280DD04FF0010B84F850B0FFF75AFB3F
:10199000804694F85100BA46012804D0022793E00B
:1019A0000220BDE8F88FB9F1000F73D0002E71D07E
:1019B000032084F85100C4F854A0C4F83090A686DF
:1019C000E686C4F838A0A4F83CA0A4F83EA0C4F869
:1019D00044A0C4F840A0A068B0F5004F09D1206829
:1019E000016821F0400101602068016841F48041F4
:1019F000016020680168490603D4016841F0400194
:101A00000160E068B0F5006F606803D030B3012E6C
:101A100024D041E008B1012E1CD1206B2168008840
:101A2000C86006E020688168890709D5216B0988AC
:101A3000C160206B801C2063E08E401EE08609E0C0
:101A4000FFF700FBA0EB0800A84202D3681C01D0FE
:101A500031E07DB3E08E0028E4D120E0206B2168E6
:101A60000078087306E020688168890709D5216B32
:101A700009780173206B401C2063E08E401EE086D5
:101A80000AE0FFF7DFFAA0EB0800A84203D3681CC6
:101A900002D010E017E06DB1E08E0028E3D142469D
:101AA0002946204600F079FA08B120206065A06838
:101AB00018B106E0FFE7032706E02068C1688068E8
:101AC0000090606D00B1012784F851B084F850A0F7
:101AD000384666E72DE9F84F044690F85000002795
:101AE0000A9E1D4692468B464FF0010901280ED0F2
:101AF000012084F85000FFF7A5FA804694F85100C1
:101B0000616801280CD0B1F5827F07D102E0022084
:101B1000BDE8F88FA16809B9042801D00227C2E006
:101B2000BBF1000F27D0BAF1000F24D01DB394F8F9
:101B30005100042802D0052084F85100002060657F
:101B4000C4F838A0E587A587C4F830B0E586A58637
:101B50002064606420680168490603D4016841F08C
:101B600040010160E068B0F5006F606805D0E8B33F
:101B7000012D46D07FE0012795E008B1012D39D134
:101B8000206B21680088C860206B801C2063E08E79
:101B9000401EE0862EE02068816889070FD5E18E1F
:101BA00069B1B9F1010F0AD1216B0988C160206BBD
:101BB000801C2063E08E401EE0864FF00009206804
:101BC0008168C9070CD0E18F51B1C068A16B088052
:101BD000A06B801CA063E08F401EE0874FF00109DE
:101BE000FFF730FAA0EB0800B04200E009E001D3B3
:101BF000701C50D1E08E0028CDD1E08F0028CAD1D2
:101C00003FE0206B216800780873206B401C206344
:101C1000E08E401EE0862EE02068816889070FD59F
:101C2000E18E69B1B9F1010F0AD1216B0978017315
:101C3000206B401C2063E08E401EE0864FF00009C0
:101C400020688168C9070CD0E18F51B1C068A16BD1
:101C50000870A06B401CA063E08F401EE0874FF02F
:101C60000109FFF7EFF9A0EB0800B04202D3701CA6
:101C700001D010E07EB1E08E0028CDD1E08F0028A9
:101C8000CAD142463146204600F087F928B10127E3
:101C90002020606507E0032705E0A06818B92068E8
:101CA000C16880680090012084F85100002084F809
:101CB000500038462CE77047704710B5040003D039
:101CC00094F83D0010B107E0012010BD002084F819
:101CD0003C00204600F01EF8022084F83D00211D43
:101CE000206800F0FFF9012084F8460084F83E00E7
:101CF00084F83F0084F8400084F8410084F84200F2
:101D000084F8430084F8440084F8450084F83D00DA
:101D1000002010BD7047000090F83D10012901D04F
:101D200001207047022180F83D100168CA6842F026
:101D30000102CA6000680B49884208D0B0F1804FA8
:101D400005D00949884202D00849884204D18168F7
:101D500001F00701062903D0016841F0010101608B
:101D600000207047002C01400004004000080040A3
:101D7000704770B50446006801694FF00005C9431B
:101D8000890715D4C168C943890711D4E91E0161C7
:101D900001202077206880698007204602D0FFF765
:101DA000E7FF04E000F098F8204600F096F8257769
:101DB00020680169C943490717D4C168C943490765
:101DC00013D46FF00401016102202077206880693C
:101DD00010F4407F204602D0FFF7CAFF04E000F075
:101DE0007BF8204600F079F8257720680169C9431F
:101DF000090716D4C168C943090712D46FF0080156
:101E00000161042020772068C0698007204602D045
:101E1000FFF7AEFF04E000F05FF8204600F05DF849
:101E2000257720680169C943C90617D4C168C94329
:101E3000C90613D46FF010010161082020772068D3
:101E4000C06910F4407F204602D0FFF791FF04E004
:101E500000F042F8204600F040F82577206801693C
:101E6000C943C90708D1C168C943C90704D1891E3C
:101E70000161204600F032F820680169C943090673
:101E800009D4C168C943090605D46FF08001016116
:101E90002046FFF710FF20680169C943490609D4AD
:101EA000C168C943490605D46FF04001016120466D
:101EB00000F01EF820680169C94389060BD4C16887
:101EC000C943890607D46FF0200101612046BDE8AF
:101ED0007040FFF7F1BE70BD70477047006803495E
:101EE000884201D1FFF7B4B87047000000080040F5
:101EF0007047FEE70F4810B50D4901604FF482713D
:101F0000416000218160C1604FF400720161C0E94D
:101F100005122022C0E90721416281620A21C162C3
:101F2000FFF7E6FB002801D072B6FEE710BD000007
:101F30000030014034000020FEE7FEE77047F8B5AE
:101F4000044640684FF48273984217D1A0684FF45A
:101F50008065B0F5004F01D0A8420FD12068066817
:101F600026F0400606606068984207D1A068A84243
:101F700004D100920B460022012103E000920B469F
:101F800000228021204600F019F8002804D0606D5E
:101F900040F0200060650320F8BD38B50B46009284
:101FA00004460022802100F009F8002804D0606D6A
:101FB00040F020006065032038BD00002DE9F843A3
:101FC0001E46914688460446089DFFF73BF8401B95
:101FD000351AFFF737F8074625480068C0F3CB30BD
:101FE000684338E0701C37D0FFF72CF8C01BA842BC
:101FF00003D215B1009860B32CE02068416821F04D
:10200000E00141606068B0F5827F0BD1A068B0F557
:10201000004F02D0B0F5806F04D12068016821F034
:1020200040010160A06AB0F5005F09D12068016835
:1020300021F4005101602068016841F40051016001
:10204000012084F85100002084F850000320BDE8EE
:10205000F8830025401E00902068816838EA01005E
:1020600004D000214945BDD10020F0E70121F9E766
:102070000C0000207047704730B58FB028216846AB
:10208000FEF7EAF914210AA8FEF7E6F9012108048F
:10209000CDE900100024029402250491CDE90750F7
:1020A0004FF4E01009906846FFF792F908B172B654
:1020B000FEE70F20CDE90A054FF48060CDE90C4022
:1020C00002210AA80E94FFF787F8002801D072B603
:1020D000FEE70FB030BD70470148FFF74ABE000071
:1020E0008C000020F0B50268164B174C174D4FF0CE
:1020F0008047984205D0B84203D0A04201D0A84200
:1021000003D122F070064A683243984205D0B842A3
:1021100003D0A04201D0A84203D122F44074CA687F
:1021200022434C6922F08002224302608A68C26224
:102130000A688262984201D1096901630121416103
:10214000F0BD0000002C01400004004000080040E9
:10215000FEE70907090E002804DB00F1E02080F803
:102160000014704700F00F0000F1E02080F8141D0B
:10217000704730380A2801D201207047002070478C
:10218000012210210148FEF757BF0000000801405E
:10219000002210210148FEF74FBF00000008014057
:1021A000012208210148FEF747BF00000008014056
:1021B000002208210148FEF73FBF0000000801404F
:1021C0003EB5054690A0FEF70FF84FF47A74FFF77E
:1021D000EFFF0120FEF72EFEFFF7E2FF2046FEF79D
:1021E00029FE00F0A5F900221F21E02000F0BCF933
:1021F0000220FEF71FFE1D21002000F089F9014694
:10220000C00702D1641E24B2F5D2641C7ED083A024
:10221000FDF7EAFF00220421104600F0D9F9082258
:102220000521002000F0D4F9FF220621002000F053
:10223000CFF90F220721002000F0CAF9002208215F
:10224000104600F0C5F900220921104600F0C0F93F
:10225000FF220A21002000F0BBF907220B210020F9
:1022600000F0B6F900220221104600F0B1F9082270
:102270000321002000F0ACF900221146104600F0C6
:10228000A7F900220121104600F0A2F940F6FF72E2
:102290004FF4006165A0FDF7A7FF40F2FF72002137
:1022A00069A0FDF7A1FF0221002000F06EF90446AD
:1022B0000321002000F069F904EB002169A0FDF77B
:1022C00093FF0021084600F060F904460121002038
:1022D00000F05BF904EB002167A0FDF785FF0D22FC
:1022E0000021022000F074F90221B322084600F018
:1022F0006FF9EE220A21022000F06AF905220B2173
:10230000022000F065F91522042100E077E00220A8
:1023100000F05EF912220621022000F059F92A7815
:102320000421032000F054F96A780521032000F00D
:102330004FF9AA780221032000F04AF90321EA7834
:10234000084600F045F92A790021032000F040F901
:102350006A790121032000F03BF90421032000F0F9
:1023600014F94A4C20700521032000F00EF960702A
:102370000221032000F009F9A0700321084600F0B3
:1023800004F9E0700021032000F0FFF82071012122
:10239000032000F0FAF8607162792179E0788DE825
:1023A0000700A3786278217839A0FDF71DFF4FF46C
:1023B0008071002000F018F940F23641142000F03E
:1023C00013F9C0221B21A02000F0CEF8C0221B214F
:1023D000802000F0C9F802221521032000F0F8F84F
:1023E00004221F21802000F0BFF880221E21104609
:1023F00000F0BAF8BDE83E4032A0FDF7F5BE34A0CB
:10240000FDF7F2FE06E70000537461727420696EF6
:102410006974202E2E2E0D0A0000000046696E6998
:102420007368203078253032780D0A005478207394
:1024300070616365203078253034783A3078253003
:1024400034780D0A000000005278207370616365D3
:10245000203078253034783A3078253034780D0AB9
:1024600000000000547820706F696E74657220302F
:1024700078253034780D0A00527820706F696E74B8
:102480006572203078253034780D0A002000002055
:102490004D4143203A203078253032782D30782550
:1024A0003032782D3078253032782D307825303222
:1024B000782D3078253032782D3078253032780DEF
:1024C0000A00000046696E69736820210D0A000049
:1024D00054696D65206F7574200D0A0010B51921BF
:1024E000012000F052F8064A0146D080128905A06A
:1024F000FDF77AFEBDE810404FF4FA60FEF79ABC93
:1025000016000020253464202535640D0A000000E3
:1025100010B501F01F040443FFF73AFE204600F017
:1025200017F800F007F80446FFF72AFE204610BD12
:102530007047000008B54FF0FF3301226946034899
:10254000FFF768F99DF8000008BD00003400002086
:1025500001B54FF0FF33012269460248FFF707FA41
:1025600008BD00003400002070B501F01F041546BE
:102570000443FFF70DFE2046FFF7EAFF2846FFF76A
:10258000E7FFBDE87040FFF7FBBD10B50C4600F05B
:1025900007F82146BDE810400020FFF7B9BF000052
:1025A00010B50446094890F900108C420CD0047014
:1025B00003221F21A020FFF7D7FFE2B21F21BDE8B1
:1025C00010408020FFF7D0BF10BD00001600002093
:1025D00070B514460D46FFF7E3FF22462946BDE8D5
:1025E00070404020FFF7C0BF70B50D4602464FF463
:1025F0007A7414210220FFF7EBFFEAB216210220C1
:10260000FFF7E6FF2A0A17210220FFF7E1FF0A2160
:102610000320FFF7BAFFC00702D1641E24B2F6D22E
:10262000641C01D0012070BD002070BD08490968FC
:10263000C90706D0064980390968CA074FF06041CA
:1026400001D1704700BF0A68002AFBD008707047AC
:10265000800E00E0FFF742BF86B0FEF701FDFFF7F6
:102660000BFD0024164800940194029403948169A0
:1026700041F020018161816901F0200104918169AB
:1026800041F00401816180690E4D00F00400049066
:10269000002218212846FEF7CFFC182000900120C8
:1026A000CDE901040220039069462846FEF7D4FBD9
:1026B000FFF720FC00F008F8FFF7CCFFFCE7000074
:1026C00000100240000801400148FFF779BD0000FA
:1026D00010000020000000000000000001020304C0
:1026E00006070809000000000102030430313233FC
:1026F0003435363738394142434445464030580036
:102700003031323334353637383961626364656667
:1027100040307800040000080000000000000002C3
:1027200000010000103A7474003A7474003A747432
:1027300000000000542700080000002034000000C2
:10274000280100088827000834000020FC0700004A
:10275000440100080100000010000000000000001B
:102760000024F400081019972525FF000000000040
:102770000000000000000000000000000000000059
:08278000000000000000000051
:04000005080000ED02
:00000001FF
