:020000040800F2
:10000000F006002089010008A71400085314000816
:10001000A514000865030008911500080000000001
:10002000000000000000000000000000AB14000809
:100030006703000800000000A9140008AD140008C0
:10004000A3010008A3010008A3010008A301000800
:10005000A3010008A3010008A3010008A3010008F0
:10006000A3010008A3010008A3010008A3010008E0
:10007000A3010008A3010008A3010008A3010008D0
:10008000A3010008A3010008A3010008A3010008C0
:10009000A3010008A3010008A3010008A3010008B0
:1000A000A3010008A3010008A3010008A3010008A0
:1000B000A3010008A301000819150008A301000806
:1000C000A3010008A3010008A3010008A301000880
:1000D000A3010008A3010008A3010008A301000870
:1000E000A3010008A3010008A301000800F002F822
:1000F00000F03AF80AA090E8000C82448344AAF188
:100100000107DA4501D100F02FF8AFF2090EBAE885
:100110000F0013F0010F18BFFB1A43F0010318473B
:100120000815000028150000103A24BF78C878C1CF
:10013000FAD8520724BF30C830C144BF04680C60ED
:10014000704700000023002400250026103A28BF35
:1001500078C1FBD8520728BF30C148BF0B60704739
:100160001FB51FBD10B510BD00F058F81146FFF7C0
:10017000F7FF01F01FFA00F076F803B4FFF7F2FF83
:1001800003BC00F07DF8000009488047094800479B
:10019000FEE7FEE7FEE7FEE7FEE7FEE7FEE7FEE737
:1001A000FEE7FEE704480549054A064B7047000094
:1001B00017150008ED000008F0000020F0060020F0
:1001C000F0020020F00200204FF0000200B51346BC
:1001D00094469646203922BFA0E80C50A0E80C5067
:1001E000B1F12001BFF4F7AF090728BFA0E80C5018
:1001F00048BF0CC05DF804EB890028BF40F8042B11
:1002000008BF704748BF20F8022B11F0804F18BF7D
:1002100000F8012B7047704770477047754600F033
:100220002BF8AE4605006946534620F00700854688
:1002300018B020B5FFF7B6FFBDE820404FF000062C
:100240004FF000074FF000084FF0000B21F00701BE
:10025000AC46ACE8C009ACE8C009ACE8C009ACE801
:10026000C0098D46704710B50446AFF300802046A4
:10027000BDE81040FFF781BF004870478C000020A8
:1002800001491820ABBEFEE72600020070470000BF
:1002900070B5044600688168C943C90717D18168F1
:1002A00021F00101816000F089FB05460AE000BFF2
:1002B00000F084FB401B022804D920688068C043FA
:1002C000C00706D020688068C043C007F0D0002077
:1002D00070BDA06A40F01000A062E06A40F001002A
:1002E000E062012070BD0000F8B5002604460096CB
:1002F00000688168C943C9072DD0816841F00101B8
:100300008160164816490068B0FBF1F000E0401E1D
:1003100000900028FBD100F051FB054616E000BF1D
:1003200000F04CFB401B022810D920688068C043B5
:10033000C0070BD0A06A40F01000A062E06A40F055
:100340000100E06284F824600120F8BD2068806824
:10035000C043C007E4D10020F8BD00001000002019
:1003600040420F00FEE77047F8B50024009490F873
:1003700024202546012A12D0012280F824204A6830
:100380001F23072A0DD20668776B521E02EB8202EA
:1003900093409F430B6893401F43776319E002200B
:1003A000F8BD06680D2A0AD2376BD21F02EB820213
:1003B00093409F430B6893401F43376309E0F76AFC
:1003C0000D3A02EB820293409F430B6893401F4318
:1003D000F7620A68072306680A2A0AD3F7680A3A06
:1003E00002EB420293409F438B6893401F43F760A8
:1003F00008E0376902EB420293409F438B689340C9
:100400001F4337610A68102A01D0112A20D1124BEC
:1004100002689A4217D193681B0219D4936843F477
:10042000000393600968102912D10C490C4A09682D
:10043000B1FBF2F101EB8101490000E0491E00919E
:100440000029FBD104E0816A41F02001816201248E
:1004500080F824502046F8BD002401401000002000
:1004600040420F000068C06C704700002DE9F04169
:100470004FF0000704003D467ED0A06A002628B950
:10048000E66284F82460204600F07EF82046FFF7FC
:10049000FFFEA16AC90600D420B1A06A40F0100096
:1004A000A06269E0A16A21F4885141F00201A162D1
:1004B0006268E169237B0A4347EA43010A43A16872
:1004C0004FF48077B94209D0012907D05FF00001CD
:1004D00094F814C0BCF1010F02D00AE03946F7E7E6
:1004E000F3B1A36A43F02003A362E36A43F001037C
:1004F000E3622368D3F804C02CF4694C4CEA010C85
:10050000C3F804C021688B68DFF870C003EA0C03ED
:1005100013438B60A168B9420BD0012909D00CE0CC
:10052000DFF85CC0A3690CEB43330B4343F4006179
:10053000DFE7218A0D05A5F580152168CB6A23F434
:1005400070032B43CB62216889680E4B194091429E
:1005500008D1E662A16A21F0020141F00101A16225
:10056000BDE8F081A06A20F0020040F01000A06217
:10057000E06A40F00100E0620120F1E7FDF7E1FFF1
:1005800000E0FFFFFE0E1FFF00B585B000210091C7
:1005900001910291039100680E49884218D10E48DA
:1005A000816941F400718161816901F400710491F4
:1005B000816941F0040181618069694600F00400AD
:1005C00004904020009003200190044800F006F9B8
:1005D00005B000BD002401400010024000080140A9
:1005E0002DE9F84300270D460446009700F0E6F990
:1005F000804620688168C90508D5A06A40F02000BF
:10060000A06284F824700120BDE8F8834168C90520
:1006100003D4C06A10F4700F2AD0022000F086FACA
:100620003B490968B1FBF0F62068036939490B4280
:100630004FEA61014FEAA1121FD1C3684FEA611C62
:1006400013EA0C0F19D103690B4225D1C06810427F
:1006500022D1142023E0681C0AD02DB100F0AEF99D
:10066000A0EB0800A84203D920680068800725D5C0
:10067000206800688007EED52DE003690B4202D1A7
:10068000C168114206D0026923490A4206D1C068F6
:10069000084203D1542002E0292000E0FC20464318
:1006A000009816E0681C11D02DB100F087F9A0EB7E
:1006B0000800A8420AD90098B04207D2A06A40F0C8
:1006C0000400A06284F8247003209DE70098401C79
:1006D0000090B042E6D321686FF012000860A06A73
:1006E00040F40070A06220688068C0F34240072890
:1006F0000CD1207B50B9A06A20F48070A062A06A5F
:10070000C00403D4A06A40F00100A06200207BE78F
:1007100010000020244992244992240070B5044618
:1007200090F8240001280DD0012084F824002046F0
:10073000FFF7DAFD02004FF0000005D084F8240036
:10074000104670BD022070BDA16A40F2012399439A
:1007500041F48071A1621F4D23681F49AB4218D13B
:100760000E6816F4702F14D0A66A46F48016A6629E
:100770000E68760505D5A66A26F4005646F480561E
:10078000A662A66AF6040AD5E66A26F00606E662BE
:1007900006E0A66A26F48016A6625E68E9E7E062D3
:1007A00084F824006FF00200186020688368C3F3A7
:1007B0004243072B05D1A84208D1096811F4702FD4
:1007C00004D0816841F480118160B9E7816841F407
:1007D000A001F9E700280140042401402DE9F84F69
:1007E000DFF8B891002409F1040A0AF1040B23464A
:1007F0000F270BF1040EC9E00125A5402A40AA42AB
:100800007DD1674ED1F804C0ACEB0608B44532D0B8
:1008100014DCBCF1030F3AD009DCBCF1000F2AD084
:10082000BCF1010F1CD0BCF1020F31D11DE0BCF1B5
:10083000110F17D0BCF1120F2AD119E0B8F5881F9B
:1008400019D006DCB8F5803F15D0B8F5801F1FD150
:1008500011E0B8F5001F0ED0B8F5041F18D10AE05A
:10086000CB6815E0CB681B1D12E0CB6808330FE0A6
:10087000CB680C330CE08B682BB1012B4FF00803D5
:1008800003D0456104E0042302E0056100E0002399
:10089000FF2A01D8064601E000F104064FEA84056C
:1008A00001D9A5F12005D6F8008007FA05FC28EA51
:1008B0000C0803FA05F548EA0508C6F800804D68FB
:1008C000ED0062D5374DAE6946F00106AE61AD6907
:1008D00024F0030605F001050095334D06EB050CE9
:1008E000DCF80850A607360F07FA06F825EA0805CF
:1008F000DFF8B880404503D14FF0000817E044E02E
:10090000DFF8AC80404502D14FF001080FE0DFF87E
:10091000A480404502D14FF0020808E0DFF898803B
:10092000404502D14FF0030801E04FF0040808FAF7
:1009300006F848EA0508CCF808804D68D9F8006048
:10094000ED034D4601D5164300E096432E604D68F9
:10095000DAF80060AD03554601D5164300E0964332
:100960002E604D68DBF80060ED025D4601D5164350
:1009700000E096432E604D68DEF80060AD027546DB
:1009800001D5164300E096432E60641C0D682A468C
:10099000E5407FF431AFBDE8F88F0000000401406E
:1009A000000011100010024000000140000801404A
:1009B000000C014000100140001401400148806813
:1009C000704700000400002002488168027811444A
:1009D0008160704704000020074810B5016841F0AD
:1009E00010010160032000F08FF80F2000F006F8DE
:1009F00000F03EF8002010BD0020024000B5014686
:100A000087B000221E2000F05FF81E2000F04EF894
:100A10001348C16941F00401C161C06905A900F032
:100A200004000690684600F0F1F900F00FFA0D4955
:100A30000D4AB0FBF1F10D48491E0260416040F2E1
:100A4000E7320021C0E90321816000F0E7FB10B12B
:100A5000012007B000BD054800F00EFCF9E70000DA
:100A60000010024040420F000008004044000020F7
:100A70000C4808B5816941F001018161816901F08B
:100A800001010091C16941F08051C161C06900F06C
:100A9000805000900448416821F0E06141F000710D
:100AA000416008BD0010024000000140002809DB41
:100AB00000F01F02012191404009800000F1E02078
:100AC000C0F8001170470000F0B40E4B1B680C46D4
:100AD000C3F30223C3F10705042D00D90425191D12
:100AE000072901D2002300E0DB1E012606FA05F1EA
:100AF000491E214099409E40761E16403143F0BC6D
:100B000000F047BD0CED00E0064900F00702086860
:100B10004FF6FF03184040EA0220034A10430860E2
:100B2000704700000CED00E00000FA0510B529A4A4
:100B300001461DCC86B08DE81D002AA02A4C006815
:100B400004900020012923D002293AD010291DD178
:100B500061682268D20119D5C1F38342C9031DF827
:100B6000020009D5616804AAC1F34041515C1F4AE3
:100B7000B2FBF1F1484301E01D4948436168490275
:100B800004D440005FF00301B0FBF1F006B010BDEB
:100B9000226AC2F30121012903D1920701D5C803BA
:100BA000F4E7022905D1626A920702D549F640406E
:100BB000ECE70329EAD121688903E7D54FF2244005
:100BC000E4E700F053F96168C1F38131491C490041
:100BD000DAE7000002030405060708090A0B0C0DFA
:100BE0000E0F1010010200000010024000127A00E7
:100BF00000093D002DE9F84305460078354CC00753
:100C000054D0E0690026C00008D4E06940F080506C
:100C1000E061E069012600F0805000902E480168F4
:100C2000C90512D40168804641F480710160FFF764
:100C3000C5FE074605E000BFFFF7C0FEC01B6428E5
:100C400023D8D8F80000C005F6D5206A10F440700B
:100C500021D0A98801F4407181421CD0206A1F492B
:100C6000012220F440700A6000220A602062C0075E
:100C700011D0FFF7A3FE074641F2883808E000BF15
:100C8000FFF79CFEC11B414502D90320BDE8F88354
:100C9000206A8007F4D5206A696820F44070084310
:100CA00020621EB1E06920F08050E0612878800762
:100CB00005D56068A96820F4404008436060287842
:100CC000C00605D56068E96820F4800008436060CC
:100CD0000020DBE700100240007000404004424268
:100CE0002DE9F0470F46050061D0434E306800F013
:100CF0000700B84209D2306820F00700384330605E
:100D0000306800F00700B84251D128683B4C810799
:100D100012D5400703D5606840F4E0606060287831
:100D2000000703D5606840F4605060606068A9689F
:100D300020F0F000084360602878C00728D0686879
:100D4000012810D02168022810D0890700292EDA46
:100D5000616821F0030101436160FFF72FFE8046C7
:100D600041F288390DE021688903EFE78901EDE759
:100D7000FFF724FEA0EB0801494502D90320BDE896
:100D8000F0876068696800F00C00B0EB810FEFD16C
:100D9000306800F00700B8420BD9306820F0070037
:100DA00038433060306800F00700B84201D00120BD
:100DB000E5E72878400705D56068E96820F4E06039
:100DC000084360602878000706D56068296920F428
:100DD000605040EAC100606000F058F86168084A5D
:100DE000C1F30311515CC840064908600648006819
:100DF000FFF704FE0020C2E700200240001002407E
:100E00001016000810000020080000200F220260C9
:100E10000C4A536803F003034360536803F0F00384
:100E20008360536803F4E063C36052684FF4E06387
:100E300003EAD20202610448006800F0070008607B
:100E4000704700000010024000200240044805499D
:100E500000684968044AC1F30221515CC8407047E8
:100E60001000002000100240201600080448054928
:100E700000684968044AC1F3C221515CC840704708
:100E800010000020001002402016000812A185B0BA
:100E90000FC98DE80F0014A0144A0068049051682F
:100EA000134801F00C03042B10D0082B0ED1C1F312
:100EB0008343C9031DF803000AD5516804AAC1F38E
:100EC0004041515C0A4A5043B0FBF1F005B0704715
:100ED00008494843FAE70000020304050607080929
:100EE0000A0B0C0D0E0F1010010200000010024042
:100EF00000127A0000093D002DE9F84F040070D07F
:100F00002078C04DC00749D06868C0F3810001282F
:100F100007D06868C0F38100022809D16868C0035F
:100F200006D52868800339D560680028E7D035E009
:100F30006068B0F5803F0BD010B1B0F5A02F11D094
:100F4000286820F480302860286820F4802002E09F
:100F5000286840F480302860606890B1FFF72EFD6B
:100F600006460AE0286840F480202860F0E700BFC9
:100F7000FFF724FD801B642873D828688003F7D509
:100F80000CE0FFF71BFD064605E000BFFFF716FD6E
:100F9000801B6428F0D828688003F7D420789A4E04
:100FA00080074FF001094FF0000839D5686810F04C
:100FB0000C0F07D06868C0F38100022809D1686867
:100FC000C00306D42868800714D52069012808D1F9
:100FD00010E02069B0B1C6F80090FFF7EFFC0746BB
:100FE00005E00AE1FFF7EAFCC01B0228C4D8286824
:100FF0008007F7D52868616920F0F80040EAC10051
:1010000028600DE0C6F80080FFF7D8FC074604E032
:10101000FFF7D4FCC01B022823D828688007F7D428
:10102000207800072CD57948A169D9B1C0F8009083
:10103000FFF7C4FC074604E0FFF7C0FCC01B022812
:101040000FD8686A8007F7D571484FF4FA510068E5
:10105000B0FBF1F0009000BF0098411E0091FAD261
:101060000EE080E0C0F80080FFF7A8FC074604E02F
:10107000FFF7A4FCC01B022875D8686A8007F7D464
:101080002078400760D5E8690027C00008D4E869E7
:1010900040F08050E861E869012700F0805000903E
:1010A0005C480168C90513D40168834641F4807126
:1010B0000160FFF783FC824606E000BFFFF77EFC7D
:1010C000A0EB0A0064284ED8DBF80000C005F5D577
:1010D000E06801280AD008B1052813D0286A20F05A
:1010E00001002862286A20F0040002E0286A40F02B
:1010F00001002862E06841F2883B98B1FFF75EFC8E
:1011000082460BE0286A40F004002862EEE700BF48
:10111000FFF754FCA0EB0A0159455AD8286A80070A
:10112000F6D50CE0FFF74AFC824605E0FFF746FCE7
:10113000A0EB0A0159454CD8286A8007F6D41FB1A4
:10114000E86920F08050E861E06988B36968C1F31C
:101150008101022944D00228C6F8608004D0FFF73C
:101160002DFC044638E034E0FFF728FC074604E095
:10117000FFF724FCC01B02282BD828688001F7D475
:10118000206AB0F5803F05D16868A16820F400307E
:1011900008436860D4E908010843696821F47411C0
:1011A00008436860C6F86090FFF708FC044606E054
:1011B00025E000BFFFF702FC001B022809D82868C1
:1011C0008001F7D51BE000BFFFF7F8FB001B0228EA
:1011D00002D90320BDE8F88F28688001F4D40EE01E
:1011E0000128F7D06868226A00F48031914204D166
:1011F000616A00F47010884201D00120EAE7002003
:10120000E8E7000000100240000042428004424231
:1012100010000020007000407047704710B50400B7
:1012200003D094F83D0010B107E0012010BD00206C
:1012300084F83C00204600F01EF8022084F83D00AF
:10124000211D206800F06EF9012084F8460084F822
:101250003E0084F83F0084F8400084F8410084F8A0
:10126000420084F8430084F8440084F8450084F880
:101270003D00002010BD704790F83D10012901D0BD
:1012800001207047022180F83D100168CA6842F0D1
:101290000102CA6000680B49884208D0B0F1804F53
:1012A00005D00949884202D00849884204D18168A2
:1012B00001F00701062903D0016841F00101016036
:1012C00000207047002C014000040040000800404E
:1012D000704770B50446006801694FF00005C943C6
:1012E000890715D4C168C943890711D4E91E016172
:1012F00001202077206880698007204602D0FFF710
:10130000E7FF04E000F098F8204600F096F8257713
:1013100020680169C943490717D4C168C94349070F
:1013200013D46FF0040101610220207720688069E6
:1013300010F4407F204602D0FFF7CAFF04E000F01F
:101340007BF8204600F079F8257720680169C943C9
:10135000090716D4C168C943090712D46FF0080100
:101360000161042020772068C0698007204602D0F0
:10137000FFF7AEFF04E000F05FF8204600F05DF8F4
:10138000257720680169C943C90617D4C168C943D4
:10139000C90613D46FF0100101610820207720687E
:1013A000C06910F4407F204602D0FFF791FF04E0AF
:1013B00000F042F8204600F040F8257720680169E7
:1013C000C943C90708D1C168C943C90704D1891EE7
:1013D0000161204600F032F820680169C94309061E
:1013E00009D4C168C943090605D46FF080010161C1
:1013F0002046FFF711FF20680169C943490609D457
:10140000C168C943490605D46FF040010161204617
:1014100000F01EF820680169C94389060BD4C16831
:10142000C943890607D46FF0200101612046BDE859
:101430007040FFF7F2BE70BD704770470068034907
:10144000884201D1FFF7C0BA704700000008004091
:101450007047FEE73EB500241148009401940294C1
:101460000E498460016004730475012505614FF421
:1014700060214460C161FEF7F9FF08B172B6FEE772
:101480000620CDE90005694602940548FEF76CFF89
:10149000002801D072B6FEE73EBD000000240140E6
:1014A00014000020FEE7FEE770477047704730B534
:1014B00093B028216846FEF787FE14210AA8FEF79C
:1014C00083FE002401200F94022504900095102033
:1014D000119405901094129407946846FFF70CFD40
:1014E00008B172B6FEE70F20CDE90A040C940D9402
:1014F00000210AA80E94FFF7F3FB08B172B6FEE7CD
:101500000FA80F951194FFF775FB002801D072B654
:10151000FEE713B030BD70470148FFF7DABE0000A8
:1015200044000020F0B50268164B174C174D4FF0E1
:101530008047984205D0B84203D0A04201D0A842CB
:1015400003D122F070064A683243984205D0B8426F
:1015500003D0A04201D0A84203D122F44074CA684B
:1015600022434C6922F08002224302608A68C262F0
:101570000A688262984201D10969016301214161CF
:10158000F0BD0000002C01400004004000080040B5
:10159000FEE70907090E002804DB00F1E02080F8CF
:1015A0000014704700F00F0000F1E02080F8141DD7
:1015B0007047000008B5FFF70FFAFFF778FF1148F2
:1015C000816941F020018161816901F02001009170
:1015D000816941F004018161806900F0040000909C
:1015E000FFF738FF084C4FF496750848FFF796F858
:1015F00029460648FEF7F4FF0448FEF733FF208033
:10160000F3E700000010024000000020140000205A
:1016100000000000000000000102030406070809A2
:10162000000000000102030448160008000000202A
:1016300014000000280100085C16000814000020B7
:10164000DC0600004401000800000000010000006A
:0C16500010000000000000000024F40066
:04000005080000ED02
:00000001FF
