:020000040800F2
:100000005009002089010008CF1400086514000879
:10001000CD1400081D040008451800080000000069
:10002000000000000000000000000000D3140008E1
:100030001F04000800000000D1140008D5140008B7
:10004000A3010008A3010008A3010008A301000800
:10005000A3010008A3010008A3010008A3010008F0
:10006000A3010008A3010008A3010008A3010008E0
:10007000A3010008A3010008A3010008A3010008D0
:10008000A3010008A3010008A3010008A3010008C0
:10009000A3010008A3010008A3010008A3010008B0
:1000A000A3010008A3010008A3010008A3010008A0
:1000B00039150008A301000879150008A3010008FC
:1000C000A3010008A3010008A3010008A301000880
:1000D000A301000809180008A3010008A3010008F3
:1000E000A3010008A3010008A301000800F002F822
:1000F00000F03AF80AA090E8000C82448344AAF188
:100100000107DA4501D100F02FF8AFF2090EBAE885
:100110000F0013F0010F18BFFB1A43F0010318473B
:1001200080230000A0230000103A24BF78C878C1C3
:10013000FAD8520724BF30C830C144BF04680C60ED
:10014000704700000023002400250026103A28BF35
:1001500078C1FBD8520728BF30C148BF0B60704739
:100160001FB51FBD10B510BD00F006F91146FFF711
:10017000F7FF01F0E7FE00F024F903B4FFF7F2FF08
:1001800003BC00F09BF8000009488047094800477D
:10019000FEE7FEE7FEE7FEE7FEE7FEE7FEE7FEE737
:1001A000FEE7FEE704480549054A064B7047000094
:1001B00035150008ED00000850030020500900200C
:1001C000500500205005002010B5002000F07CF8FC
:1001D000FFF7C8FFBDE81040012000F06FB8032A08
:1001E00040F2308010F0030C00F0158011F8013B54
:1001F000BCF1020F624498BF11F801CB00F8013B3B
:1002000038BF11F8013BA2F1040298BF00F801CBFE
:1002100038BF00F8013B11F0030300F05C80083A9E
:10022000C0F0088051F8043B083A51F804CBA0E82C
:100230000810F5E7121D5CBF51F8043B40F8043B81
:10024000AFF30080D20724BF11F8013B11F801CBB6
:1002500048BF11F8012B24BF00F8013B00F801CB87
:1002600048BF00F8012B70474FF0000200B513465D
:1002700094469646203922BFA0E80C50A0E80C50C6
:10028000B1F12001BFF4F7AF090728BFA0E80C5077
:1002900048BF0CC05DF804EB890028BF40F8042B70
:1002A00008BF704748BF20F8022B11F0804F18BFDD
:1002B00000F8012B704770477047704701491820BC
:1002C000ABBEFEE72600020010B500F03DF8BDE829
:1002D000104000F033B810B5203AC0F00B80B1E800
:1002E0001850203AA0E81850B1E81850A0E818506B
:1002F000BFF4F5AF5FEA027C24BFB1E81850A0E874
:10030000185044BF18C918C0BDE810405FEA827C8D
:1003100024BF51F8043B40F8043B08BF7047D207A4
:1003200028BF31F8023B48BF11F8012B28BF20F845
:10033000023B48BF00F8012B70477047002801D0EE
:10034000FFF7BCBF7047000010B5002102A000F00D
:1003500041F8012010BD0000534947414252543A30
:100360002041626E6F726D616C207465726D696E92
:100370006174696F6E000000754600F04BF8AE4680
:1003800005006946534620F00700854618B020B5A1
:10039000FFF708FFBDE820404FF000064FF00007D0
:1003A0004FF000084FF0000B21F00701AC46ACE81D
:1003B000C009ACE8C009ACE8C009ACE8C0098D468A
:1003C000704710B50446AFF300802046BDE81040EA
:1003D000FFF7D3BE70B505460C460A2000E06D1C41
:1003E00000F011F835B128780028F8D102E0641C3B
:1003F00000F009F814B120780028F8D1BDE8704069
:100400000A20AFF3008008B569468DF8000003208C
:10041000ABBE08BD00487047F0020020FEE7704701
:1004200010B590F821100022022905D00421816323
:1004300080F82020012010BD01680B6823F00E0316
:100440000B6001680B6823F001030B6090F84030EB
:10045000C46B012101FA03F3636080F8211080F876
:100460002020104610BD000010B590F82110002487
:10047000022903D00421816301243DE001680A6858
:1004800022F00E020A6001680A6822F001020A6086
:100490001A4A0168914201D1012121E0174A143220
:1004A000914201D110211BE0144A2832914201D11E
:1004B000891515E0114A3C32914201D189140FE0AF
:1004C0000E4A5032914202D14FF4803108E00B4A7B
:1004D0006432914202D14FF4801101E04FF08071FB
:1004E000064A083A5160012180F82110002180F865
:1004F0002010416B01B18847204610BD0800024022
:100500002DE9F84FDFF8B891002409F1040A0AF147
:10051000040B23460F270BF1040EC9E00125A5406B
:100520002A40AA427DD1674ED1F804C0ACEB060840
:10053000B44532D014DCBCF1030F3AD009DCBCF175
:10054000000F2AD0BCF1010F1CD0BCF1020F31D139
:100550001DE0BCF1110F17D0BCF1120F2AD119E028
:10056000B8F5881F19D006DCB8F5803F15D0B8F56E
:10057000801F1FD111E0B8F5001F0ED0B8F5041F81
:1005800018D10AE0CB6815E0CB681B1D12E0CB68E0
:1005900008330FE0CB680C330CE08B682BB1012BD8
:1005A0004FF0080303D0456104E0042302E0056135
:1005B00000E00023FF2A01D8064601E000F104060E
:1005C0004FEA840501D9A5F12005D6F8008007FA85
:1005D00005FC28EA0C0803FA05F548EA0508C6F800
:1005E00000804D68ED0062D5374DAE6946F00106DA
:1005F000AE61AD6924F0030605F001050095334DA9
:1006000006EB050CDCF80850A607360F07FA06F8CB
:1006100025EA0805DFF8B880404503D14FF000080F
:1006200017E044E0DFF8AC80404502D14FF001080C
:100630000FE0DFF8A480404502D14FF0020808E047
:10064000DFF89880404502D14FF0030801E04FF0F9
:10065000040808FA06F848EA0508CCF808804D684E
:10066000D9F80060ED034D4601D5164300E09643EE
:100670002E604D68DAF80060AD03554601D516438B
:1006800000E096432E604D68DBF80060ED025D46A9
:1006900001D5164300E096432E604D68DEF80060F9
:1006A000AD02754601D5164300E096432E60641CEA
:1006B0000D682A46E5407FF431AFBDE8F88F0000B1
:1006C0000004014000001110001002400000014031
:1006D00000080140000C01400010014000140140DE
:1006E00001488068704700000000002002488168CF
:1006F000027811448160704700000020074810B55F
:10070000016841F010010160032000F08FF80F2014
:1007100000F006F800F03EF8002010BD0020024076
:1007200000B5014687B000221E2000F05FF81E20B1
:1007300000F04EF81348C16941F00401C161C0697D
:1007400005A900F004000690684600F017F900F0D3
:1007500035F90D494000B0FBF1F10D480B4A491E37
:100760000260416040F2E7320021C0E9032181606C
:1007700000F040FB10B1012007B000BD044800F0BC
:1007800083FBF9E70010024040420F0000080040E0
:10079000780100200C4808B5816941F001018161B0
:1007A000816901F001010091C16941F08051C1618D
:1007B000C06900F0805000900448416821F0E06179
:1007C00041F00071416008BD00100240000001408E
:1007D000002809DB00F01F02012191404009800040
:1007E00000F1E020C0F8001170470000F0B40E4B9B
:1007F0001B680C46C3F30223C3F10705042D00D97F
:100800000425191D072901D2002300E0DB1E012663
:1008100006FA05F1491E214099409E40761E164079
:100820003143F0BC01F00FB80CED00E0064900F0D8
:10083000070208684FF6FF03184040EA0220034A07
:1008400010430860704700000CED00E00000FA055E
:100850002DE9F0470F46050061D0434E306800F0A7
:100860000700B84209D2306820F0070038433060F2
:10087000306800F00700B84251D128683B4C81072E
:1008800012D5400703D5606840F4E06060602878C6
:10089000000703D5606840F4605060606068A96834
:1008A00020F0F000084360602878C00728D068680E
:1008B000012810D02168022810D0890700292EDADB
:1008C000616821F0030101436160FFF709FF804681
:1008D00041F288390DE021688903EFE78901EDE7EE
:1008E000FFF7FEFEA0EB0801494502D90320BDE851
:1008F000F0876068696800F00C00B0EB810FEFD101
:10090000306800F00700B8420BD9306820F00700CB
:1009100038433060306800F00700B84201D0012051
:10092000E5E72878400705D56068E96820F4E060CD
:10093000084360602878000706D56068296920F4BC
:10094000605040EAC100606000F058F86168084AF1
:10095000C1F30311515CC8400649086006480068AD
:10096000FFF7DEFE0020C2E7002002400010024038
:10097000882200080C000020040000200F220260E2
:100980000C4A536803F003034360536803F0F00319
:100990008360536803F4E063C36052684FF4E0631C
:1009A00003EAD20202610448006800F00700086010
:1009B0007047000000100240002002400448054932
:1009C00000684968044AC1F30221515CC84070477D
:1009D0000C0000200010024098220008044805493D
:1009E00000684968044AC1F3C221515CC84070479D
:1009F0000C000020001002409822000812A185B0CF
:100A00000FC98DE80F0014A0144A006804905168C3
:100A1000134801F00C03042B10D0082B0ED1C1F3A6
:100A20008343C9031DF803000AD5516804AAC1F322
:100A30004041515C0A4A5043B0FBF1F005B07047A9
:100A400008494843FAE700000203040506070809BD
:100A50000A0B0C0D0E0F10100102000000100240D6
:100A600000127A0000093D002DE9F84F040070D013
:100A70002078C04DC00749D06868C0F381000128C4
:100A800007D06868C0F38100022809D16868C003F4
:100A900006D52868800339D560680028E7D035E09E
:100AA0006068B0F5803F0BD010B1B0F5A02F11D029
:100AB000286820F480302860286820F4802002E034
:100AC000286840F480302860606890B1FFF708FE25
:100AD00006460AE0286840F480202860F0E700BF5E
:100AE000FFF7FEFD801B642873D828688003F7D5C4
:100AF0000CE0FFF7F5FD064605E000BFFFF7F0FD4F
:100B0000801B6428F0D828688003F7D420789A4E98
:100B100080074FF001094FF0000839D5686810F0E0
:100B20000C0F07D06868C0F38100022809D16868FB
:100B3000C00306D42868800714D52069012808D18D
:100B400010E02069B0B1C6F80090FFF7C9FD074674
:100B500005E00AE1FFF7C4FDC01B0228C4D82868DD
:100B60008007F7D52868616920F0F80040EAC100E5
:100B700028600DE0C6F80080FFF7B2FD074604E0EC
:100B8000FFF7AEFDC01B022823D828688007F7D4E2
:100B9000207800072CD57948A169D9B1C0F8009018
:100BA000FFF79EFD074604E0FFF79AFDC01B0228F1
:100BB0000FD8686A8007F7D571484FF4FA5100687A
:100BC000B0FBF1F0009000BF0098411E0091FAD2F6
:100BD0000EE080E0C0F80080FFF782FD074604E0E9
:100BE000FFF77EFDC01B022875D8686A8007F7D41E
:100BF0002078400760D5E8690027C00008D4E8697C
:100C000040F08050E861E869012700F080500090D2
:100C10005C480168C90513D40168834641F48071BA
:100C20000160FFF75DFD824606E000BFFFF758FD5B
:100C3000A0EB0A0064284ED8DBF80000C005F5D50B
:100C4000E06801280AD008B1052813D0286A20F0EE
:100C500001002862286A20F0040002E0286A40F0BF
:100C600001002862E06841F2883B98B1FFF738FD47
:100C700082460BE0286A40F004002862EEE700BFDD
:100C8000FFF72EFDA0EB0A0159455AD8286A8007C4
:100C9000F6D50CE0FFF724FD824605E0FFF720FDC6
:100CA000A0EB0A0159454CD8286A8007F6D41FB139
:100CB000E86920F08050E861E06988B36968C1F3B1
:100CC0008101022944D00228C6F8608004D0FFF7D1
:100CD00007FD044638E034E0FFF702FD074604E074
:100CE000FFF7FEFCC01B02282BD828688001F7D430
:100CF000206AB0F5803F05D16868A16820F4003013
:100D000008436860D4E908010843696821F4741154
:100D100008436860C6F86090FFF7E2FC044606E00E
:100D200025E000BFFFF7DCFC001B022809D828687B
:100D30008001F7D51BE000BFFFF7D2FC001B0228A3
:100D400002D90320BDE8F88F28688001F4D40EE0B2
:100D50000128F7D06868226A00F48031914204D1FA
:100D6000616A00F47010884201D00120EAE7002097
:100D7000E8E70000001002400000424280044242C6
:100D80000C000020007000407047704770B590F86C
:100D90003C20012A26D0012480F83C40022280F821
:100DA0003D2003685A689D6822F070060A68324345
:100DB0005A600D4B02689A4208D0B2F1804F05D0BC
:100DC0000A4B9A4202D00A4B9A4204D1496825F054
:100DD00080031943916080F83D40002180F83C1069
:100DE000084670BD022070BD002C01400004004088
:100DF0000008004010B5040003D094F83D0010B185
:100E000007E0012010BD002084F83C00204600F0DF
:100E10001FF8022084F83D00211D206800F0B2FB7D
:100E2000012084F8460084F83E0084F83F0084F8EE
:100E3000400084F8410084F8420084F8430084F8BC
:100E4000440084F8450084F83D00002010BD0000F7
:100E500008B50068B0F1804F12D10A48C16941F06D
:100E60000101C161C069002200F00100009011463B
:100E70001C20FFF7BBFCBDE808401C20FFF7A8BC06
:100E800008BD00000010024090F83D10012901D07B
:100E900001207047022180F83D100168CA6842F0C5
:100EA0000102CA6000680B49884208D0B0F1804F47
:100EB00005D00949884202D00849884204D1816896
:100EC00001F00701062903D0016841F0010101602A
:100ED00000207047002C0140000400400008004042
:100EE0000168CA6822F00102CA6001680A6A41F218
:100EF00011131A4207D10A6A9B101A4203D10A68D9
:100F000022F001020A60012180F83D1000207047A4
:100F100070B5044690F83C00012817D0012584F8EC
:100F20003C50022084F83D002068826822F077025D
:100F300022F47F4282600868502830D00DDC2028DF
:100F40004DD005DC98B310283BD148E0022070BD9D
:100F5000302844D0402834D139E0602828D0702887
:100F600006D0B0F5805F2CD0B0F5005F29D10AE043
:100F7000CB68D1E90121206800F03AFB2068816844
:100F800041F0770109E0CB68D1E90121206800F048
:100F90002FFB2068816841F48041816011E0CA68BC
:100FA0004968206800F036FB5021206807E016E011
:100FB000CA684968206800F03EFB6021206800F0A4
:100FC00021FB84F83D50002084F83C0070BDCA68C5
:100FD0004968206800F01EFB40212068EFE7226886
:100FE00001461046EBE7704770B50446006801699A
:100FF0004FF00005C943890715D4C168C943890763
:1010000011D4E91E016101202077206880698007E2
:10101000204602D0FFF7E7FF04E000F098F82046F2
:1010200000F096F8257720680169C943490717D46D
:10103000C168C943490713D46FF00401016102205C
:1010400020772068806910F4407F204602D0FFF7A7
:10105000CAFF04E000F07BF8204600F079F825771D
:1010600020680169C943090716D4C168C943090743
:1010700012D46FF008010161042020772068C06954
:101080008007204602D0FFF7AEFF04E000F05FF8D3
:10109000204600F05DF8257720680169C943C9063C
:1010A00017D4C168C943C90613D46FF01001016198
:1010B000082020772068C06910F4407F204602D0C5
:1010C000FFF791FF04E000F042F8204600F040F8FE
:1010D000257720680169C943C90708D1C168C94398
:1010E000C90704D1891E0161204600F033F8206849
:1010F0000169C943090609D4C168C943090605D471
:101100006FF0800101612046FFF73EFE2068016913
:10111000C943490609D4C168C943490605D46FF0DB
:1011200040010161204600F01FF820680169C943B1
:1011300089060BD4C168C943890607D46FF0200122
:1011400001612046BDE87040FFF71FBE70BD7047CB
:101150007047000000680349884201D1FFF7C6BA12
:10116000704700000008004070477047704700005B
:10117000F8B5026804461068D168536910F00F0F83
:101180004FF0000553D003F0010601F49077374388
:101190005FD0C20705D0CA0503D5226C42F0010218
:1011A0002264420705D5DA0703D0226C42F002021E
:1011B0002264820705D5DA0703D0226C42F00402CC
:1011C0002264020707D501F02002324303D0226CCB
:1011D00042F008022264226C002A34D0800604D532
:1011E000880602D5204600F058FA20684069216C34
:1011F000C0F38010090700D430B3204600F035FA60
:101200002068416949061BD5416921F040014161CF
:10121000A06BA8B158494163A06BFFF725F90028DE
:1012200011D0A06B416B01B0BDE8F04008478306C8
:101230000FD58B060DD52046BDE8F84000F02DBA3D
:101240002046FFF793FFF8BD2046FFF78FFF256488
:10125000F8BD266B2023012E52D1C60650D5CE06EE
:101260004ED5106850680090506940062AD5A16B91
:10127000086840680004000CEAD0A68D8642E7D9D1
:10128000E0858869202818D0D06820F48070D0606C
:101290002068416921F0010141612068416921F024
:1012A0004001416184F83E3025632068C16821F027
:1012B0001001C160A06BFFF7B3F8A08DE18D401A5B
:1012C00081B219E0A08DE18D401A81B2E08D002835
:1012D000BED00029BCD0D06820F49070D0602068C7
:1012E000426922F00102426184F83E3025632068A1
:1012F000C26822F01002C2602046FFF736FFF8BD38
:1013000005062BD50D0629D594F83D002128F6D1E8
:10131000A068B0F5805F01D12069B0B1206A411C9E
:101320002162216800784860E08C401E0004000CB7
:10133000E084E4D12068C16821F08001C1602068A8
:10134000C16841F04001C160F8BD206A0088C0F367
:1013500008005060206A801C2062E5E74006F3D553
:101360004806F1D5D168204621F04001D16084F8CB
:101370003D3000F076F8F8BD5B16000870B504004B
:1013800004D094F83D00002510B106E0012070BDA6
:1013900084F83C50204600F023F8242084F83D00D7
:1013A0002068C16821F40051C160204600F0D0F9E6
:1013B0002068016921F4904101612068416921F0B0
:1013C0002A0141612068C16841F40051C16025646F
:1013D000202084F83D0084F83E00002070BD00000D
:1013E00030B585B000240094019402940394006801
:1013F000184988422CD11848816941F480418161A3
:10140000816901F480410491816941F004018161A5
:101410008069124D00F0040004904FF400700090B9
:10142000022001900320039069462846FFF768F8E0
:101430002815CDE90004694628460294FFF760F8B4
:10144000002211462520FFF7D1F92520FFF7C0F92A
:1014500005B030BD003801400010024000080140D6
:1014600070477047FEE7000010B586B000241648AC
:10147000009401940294039404944FF080410594E5
:1014800001604721C0E901143121C0E903148461DE
:10149000FFF7B0FC08B172B6FEE74FF48050009041
:1014A00069460948FFF734FD08B172B6FEE70494B7
:1014B00004A905480594FFF769FC002801D072B61D
:1014C000FEE706B010BD0000EC000020FEE7FEE7DE
:1014D00070477047704730B58FB028216846FEF7D7
:1014E000C3FE14210AA8FEF7BFFE01210804CDE9BE
:1014F00000100024029402250491CDE907504FF416
:10150000E01009906846FFF7AFFA08B172B6FEE73F
:101510000F20CDE90A054FF48060CDE90C4002218F
:101520000AA80E94FFF794F9002801D072B6FEE7DE
:101530000FB030BD704700000D4810B5006801695C
:10154000C943C9070ED1C168C943C9070AD1891E59
:10155000016108480188491E0904090C018001D174
:1015600000F034FDBDE810400148FFF73DBD00002C
:10157000EC000020E80000200148FFF735BD000026
:1015800078010020F0B50268164B174C174D4FF04C
:101590008047984205D0B84203D0A04201D0A8426B
:1015A00003D122F070064A683243984205D0B8420F
:1015B00003D0A04201D0A84203D122F44074CA68EB
:1015C00022434C6922F08002224302608A68C26290
:1015D0000A688262984201D109690163012141616F
:1015E000F0BD0000002C0140000400400008004055
:1015F00010B5846842EA032224F47F440A4322435C
:10160000826010BD826822F070020A4342F0070136
:101610008160704710B5036A046A24F00104046213
:10162000846924F0F00444EA021423F00A020A4315
:101630008461026210BD10B5036A23F010030362D7
:101640008369046A23F4704343EA023224F0A0035E
:1016500043EA01118261016210BD10B5406A0021A8
:10166000C185C184FFF782FD10BD0168CA6822F4FC
:101670009072CA6001684A6922F001024A61016BF6
:10168000012904D10168CA6822F01002CA60202131
:1016900080F83E1000210163704708B590F83E10B5
:1016A000222901D0022008BD82684FF480539A425B
:1016B00001D1016921B1816A9A421BD04AB10AE085
:1016C0000268816A5268C2F308020A80816A891C32
:1016D00008E0026972B10268526802F07F020A7083
:1016E000816A491C8162C18D491E0904090CC185AA
:1016F00003D019E002685268F1E70168CA6822F075
:101700002002CA600168CA6822F48072CA60016857
:101710004A6922F001024A61202180F83E10016BE3
:10172000012903D0FFF79CFE002008BD00210163C2
:101730000168CA6822F01002CA6001680A68D2060D
:1017400002D50A6849680091818DFFF70EFDEBE72D
:1017500070B5044600680169E26821F44051114304
:1017600001612169A0680843616908432168CA686A
:1017700041F20C639A430243CA6020684169A2693E
:1017800021F44071114341611E492068884202D111
:10179000FFF724F901E0FFF711F900EBC00101EBBD
:1017A0000012606864218000B2FBF0F3B3FBF1F338
:1017B0006FF018067343B2FBF0F5B2FBF0F605EBE1
:1017C0008305322303EB0515B5FBF1F5B6FBF1F606
:1017D00005F0F00505EB0615B2FBF0F6B2FBF0F0F4
:1017E000B0FBF1F06FF01802504306EB800003EB02
:1017F0000010B0FBF1F0216800F00F002844886071
:1018000070BD00000038014010B50D4C2068016823
:10181000C943890604D4C068800601D500F0DCFB0A
:1018200020680168C943090604D4C068000601D5D0
:1018300000F0D8FBBDE810400148FFF799BC00005C
:1018400034010020FEE70907090E002804DB00F13F
:10185000E02080F80014704700F00F0000F1E02055
:1018600080F8141D7047000070B5064D00242878DC
:10187000012802D00624204670BD28698047002038
:101880002870F8E72800002070B50C46098800256C
:1018900005292FD1417840F2CF760A028178114391
:1018A000C278491C1302027989B21A43531EB3420B
:1018B00020D200232380012300F8013B2688761CD8
:1018C0002680560703D003EBD203DEB201E0C2F359
:1018D000C70600F8016B23885B1C2380002300F0FF
:1018E000CFFA18B100F066FB054604E020883044CA
:1018F000208000E00325284670BD70B50C4609889D
:10190000002505292FD1417840F2CF760A0281784F
:101910001143C278491C1302027989B21A43531E3B
:10192000B34220D200232380022300F8013B238806
:101930005B1C2380530704D0012303EBD203DEB2E8
:1019400001E0C2F3C70600F8016B23885B1C23800B
:1019500000F098FA18B100F02DFB054604E020884D
:101960003044208000E00325284670BD70B50C4649
:1019700009880026052925D1417805790A02817850
:101980001143491C6A1E89B27C2A1BD8002222807E
:10199000032200F8012B22880023521C22806A00B7
:1019A00000F8012B2288521C22802A4600F06CFA93
:1019B00018B100F0FFFA064605E0208800EB45006C
:1019C000208000E00326304670BD70B50C460988C3
:1019D0000026052927D1417805790A02817811432B
:1019E000C278491C45EA02256A1E89B27C2A1AD2AD
:1019F00000222280042200F8012B2288521C22801F
:101A00006A0000F8012B2288521C22802A4600F02E
:101A100073FA18B100F0CEFA064605E0208800EB14
:101A20004500208000E00326304670BD2DE9F041DE
:101A30000446088800270D460A2842D36078267994
:101A40000102A078227A0843401C1FFA80F8E0784F
:101A500046EA00266079731E0102A0790843401C03
:101A600081B2E0797C2B42EA0022607A28D83AB32E
:101A7000792A25D8B0EB420F22D1012304F10A00C4
:101A800000F002FA98B900212980172121702988D5
:101A9000601C491C2980710000F8011B2988002363
:101AA000491C29803246414600F0EEF918B100F099
:101AB00081FA074605E0288800EB4600288000E010
:101AC00003273846BDE8F08170B5064C0D4606493F
:101AD0002288401CFEF783FB2088401C28800020C1
:101AE00070BD0000D4000020D001002038B5098866
:101AF000002405290BD141780A0281781143491C41
:101B0000027989B21AB9C278FF2A03D012B103242C
:101B1000204638BD00228DF80120C078FF280CD067
:101B20008DF8002001231A46684600F0A9F9002824
:101B3000EED000F03FFA0446EAE701208DF80000FD
:101B4000F0E710B509880024052902D003242046B7
:101B500010BD417801230A028178C01C1143491C41
:101B600089B21A4600F090F90028F0D000F022FA6D
:101B70000446ECE72DE9F0410D46098800240529CB
:101B800026D9417843790A0281781143491C8EB2E3
:101B9000C178027942EA0122510704D0012101EB08
:101BA000D201C9B201E0C2F3C701571EB7F5F66F03
:101BB0000ED299420CD101233146801D00F060F90C
:101BC00018B100F0F7F9044603E00520288000E092
:101BD00003242046BDE8F08170B50D460988002435
:101BE00006291DD341780A0281781143C278491C25
:101BF0001302027989B21A434379561E772E0FD801
:101C00005606360E9E420BD10123801D00F03CF992
:101C100018B100F0CFF9044603E00520288000E069
:101C20000324204670BD00002DE9F0411D46069BAF
:101C30001746064629B1F72903D8134C08462171E7
:101C40000EB102251BE01149216111496161114961
:101C5000E1601149A1610021E1611049216210494F
:101C600061621049A1622A46394600F077F8050002
:101C700005D100F02DFA28B16671012020702846A8
:101C8000BDE8F0810325FAE7280000204D1E00087A
:101C90006D1E0008F11D00089D1D0008852100082B
:101CA0002D220008ED21000838B52B4C207808B112
:101CB000062038BD684600F0FDF901284AD19DF89C
:101CC0000000E8B3012802D0022843D10FE0224AE5
:101CD000A369921D911CC81F984788BB6078217921
:101CE000884200D060BB022000F0FAF932E0A06820
:101CF0000121194B0278A270E170002113F12C032D
:101D000013F8315065B1954207D103EBC1014A6820
:101D10001149891D9047E07002E0491C1029EFDB52
:101D2000607868B1E07880B10021E180A17841F06D
:101D30008002A1680A70E288521C92B2E28000E040
:101D400008E08854E088401CE080D4E90213E2886F
:101D500020799847002038BD2800002070B515462E
:101D60000846002472B60822294600F0C9F9012865
:101D70000DD1B5F5964F01D9232003E0064968003F
:101D8000B1FBF0F080B200F0C9F9012800D00324C3
:101D900062B6204670BD0000A07F17002DE9F0411B
:101DA000164688460746002572B60F4CA088FF28C5
:101DB00001D9FEF709FAA088042804D3A1880B48AA
:101DC00000F03AF920B1052562B62846BDE8F08159
:101DD000064800783870A088C01E30800348401C38
:101DE000C8F80000F0E70000D8000020F001002053
:101DF00070B50346002572B6124C6078012803D0F6
:101E0000052562B6284670BD491E0126A160084618
:101E100066800B70618811446180618800F00CF964
:101E20006188094A5318491C61801870010A60884A
:101E30000244401C6080117026700121002000F0D7
:101E400011F9DEE7D8000020F001002010B572B6CD
:101E50000020054948700146012000F003F900F018
:101E60001FF962B610BD0000D800002010B572B690
:101E70000021084600F0F6F800F00CF962B610BD3B
:101E8000012070470120704770B50025B1F5FA6F49
:101E90002CD38C18B4F5FB6F28D8164CA488091BDA
:101EA000144CA41D73B1012B21D11CE034F8113066
:101EB000521E1B0A00F8013B14F8113000F8013BD8
:101EC00092B2491C002AF1D111E000BF10F8013B89
:101ED000521E1B0224F8113010F8016B92B23343EA
:101EE00024F81130491C002AF0D100E001252846D1
:101EF00070BD00001000002030B50023B1F57A7FDE
:101F000017D38C18B4F57C7F13D80B4C6488091B4D
:101F10000A4C0BE034F81150521E2D0A00F8015BF8
:101F200014F8115000F8015B92B2491C002AF1D15B
:101F300000E00123184630BD10000020C001002041
:101F4000FFF7B2BE08B5FEF7D9FBFFF7C4FA164893
:101F5000816941F020018161816901F020010091D6
:101F6000816941F004018161806900F00400009002
:101F7000FFF77AFA0E480D490C2201604FF4E13167
:101F8000416000218160C160C0E904128161C161CA
:101F9000FFF7F4F908B172B6FEE700F029F800BFC8
:101FA000FFF7CEFFFCE700000010024000380140C0
:101FB00034010020002804D0012803D0072803D0D2
:101FC00004207047022070470620704701480068CF
:101FD0000047000050000020014800680047000052
:101FE0004800002001480068004700004C00002025
:101FF00038B50F480B214FF4E133018016214180A1
:10200000212181802C21C180372101814221418100
:102010004D2181815821C18100200322012100909E
:10202000FFF702FE034C2070FFF71EFC207038BD46
:10203000C00100201000002070B5094DFF231A4692
:1020400005F5807606E000BF10F8014B54402A5D8C
:102050005A40335D491E89B2F6D242EA032070BD70
:10206000A02200080A4B00281A68D06802D040F06D
:10207000200001E020F02000D06018680029C1682D
:1020800002D041F0800101E021F08001C160704781
:10209000340100200148FEF723BF0000EC000020BF
:1020A0000248018841800248FEF7EEBEE6000020AB
:1020B000EC0000200549024600204B78002B04D09C
:1020C000087810700020487001207047E40000205C
:1020D000024900204870012070470000E400002001
:1020E000024901224A70087010467047E40000203F
:1020F00002490968496801700120704734010020D5
:102100000120704704490A68506008680168490660
:10211000FCD50020704700003401002010B586B0C7
:1021200000241649009401940294039404944FF0FF
:10213000804205940A606322C1E901243122C1E989
:1021400003248C610E4908800C48FEF753FE78B9D1
:102150004FF48050009069460848FEF7D9FE38B920
:102160002020CDE9040404A90448FEF70FFE10B1B5
:10217000002006B010BD0120FBE70000EC000020AD
:10218000E600002038B5174C0025207808B1FEF78E
:102190001BF86846FFF7ACFF607830B1124A01289F
:1021A00007D0022810D0032801D1FFF779FF284675
:1021B00038BD0020A0809DF80000A1880A44491C79
:1021C000A180107002200BE0A088FF2807D89DF89E
:1021D0000010A0880244401CA0801170E5E7032095
:1021E0006070E2E7D8000020F001002070B50E4DCD
:1021F0000024687870B102280BD003280DD06878CD
:1022000058B16878022808D06878032805D0FDF70F
:10221000DBFF0120FFF764FF0446FFF73BFF0120CF
:102220006870204670BD0000D800002070B5154CC5
:1022300000256078012801D0FDF7C6FF207810B195
:1022400001281CD104E000210120FFF70BFF16E05C
:10225000608850B1A0680078FFF754FFA068401C68
:10226000A0606088401E608009E00320FFF738FF0F
:10227000054600210120FFF7F5FE002020702846CA
:1022800070BD0000D8000020000000000000000029
:10229000010203040607080900000000010203040C
:1022A00000C1814001C0804101C0804100C1814026
:1022B00001C0804100C1814000C1814001C0804116
:1022C00001C0804100C1814000C1814001C0804106
:1022D00000C1814001C0804101C0804100C18140F6
:1022E00001C0804100C1814000C1814001C08041E6
:1022F00000C1814001C0804101C0804100C18140D6
:1023000000C1814001C0804101C0804100C18140C5
:1023100001C0804100C1814000C1814001C08041B5
:1023200001C0804100C1814000C1814001C08041A5
:1023300000C1814001C0804101C0804100C1814095
:1023400000C1814001C0804101C0804100C1814085
:1023500001C0804100C1814000C1814001C0804175
:1023600000C1814001C0804101C0804100C1814065
:1023700001C0804100C1814000C1814001C0804155
:1023800001C0804100C1814000C1814001C0804145
:1023900000C1814001C0804101C0804100C1814035
:1023A00000C0C101C30302C2C60607C705C5C404F5
:1023B000CC0C0DCD0FCFCE0E0ACACB0BC90908C865
:1023C000D81819D91BDBDA1A1EDEDF1FDD1D1CDC55
:1023D00014D4D515D71716D6D21213D311D1D010C5
:1023E000F03031F133F3F23236F6F737F53534F4B5
:1023F0003CFCFD3DFF3F3EFEFA3A3BFB39F9F83825
:1024000028E8E929EB2B2AEAEE2E2FEF2DEDEC2C14
:10241000E42425E527E7E62622E2E323E12120E084
:10242000A06061A163A3A26266A6A767A56564A474
:102430006CACAD6DAF6F6EAEAA6A6BAB69A9A868E4
:1024400078B8B979BB7B7ABABE7E7FBF7DBDBC7CD4
:10245000B47475B577B7B67672B2B373B17170B044
:102460005090915193535292965657975595945434
:102470009C5C5D9D5F9F9E5E5A9A9B5B99595898A4
:10248000884849894B8B8A4A4E8E8F4F8D4D4C8C94
:102490004484854587474686824243834181804004
:1024A000C024000800000020EC0000002801000803
:1024B000AC250008EC00002064080000440100087E
:1024C0000100000010000000000000000024F400E3
:1024D0000000E803D00700000000B400B4000000D2
:1024E00000000000000000000200000000000000EA
:1024F00000000000000000000000000000000000DC
:1025000000000000000000000000000000000000CB
:102510000000000011000000C91A000804000000BB
:10252000CB190008030000006D190008100000001E
:10253000D91B000806000000431B0008170000001C
:102540002D1A00080100000089180008050000008D
:10255000ED1A00080F000000751B000802000000C3
:10256000FB18000800000000000000000000000050
:10257000000000000000000000000000000000005B
:10258000000000000000000000000000000000004B
:10259000000000000000000000000000000000003B
:0C25A0000000000000000000000000002F
:04000005080000ED02
:00000001FF
