:020000040800F2
:10000000D807002089010008F31100082911000811
:10001000F11100088F0200081D1500080000000003
:10002000000000000000000000000000F7110008C0
:100030009102000800000000F5110008F911000805
:10004000A3010008A3010008A3010008A301000800
:10005000A3010008A3010008A3010008A3010008F0
:10006000A3010008A3010008A3010008A3010008E0
:10007000A3010008A3010008A3010008A3010008D0
:10008000A3010008A3010008A3010008A3010008C0
:10009000A3010008A3010008A3010008A3010008B0
:1000A000A3010008A3010008A3010008A3010008A0
:1000B000A3010008A30100085D120008A3010008C5
:1000C000A3010008A3010008A3010008A301000880
:1000D000A3010008A3010008ED140008A301000813
:1000E000A3010008A3010008A301000800F002F822
:1000F00000F03AF80AA090E8000C82448344AAF188
:100100000107DA4501D100F02FF8AFF2090EBAE885
:100110000F0013F0010F18BFFB1A43F0010318473B
:100120000016000020160000103A24BF78C878C1DD
:10013000FAD8520724BF30C830C144BF04680C60ED
:10014000704700000023002400250026103A28BF35
:1001500078C1FBD8520728BF30C148BF0B60704739
:100160001FB51FBD10B510BD00F058F81146FFF7C0
:10017000F7FF01F02BFA00F076F803B4FFF7F2FF77
:1001800003BC00F07DF8000009488047094800479B
:10019000FEE7FEE7FEE7FEE7FEE7FEE7FEE7FEE737
:1001A000FEE7FEE704480549054A064B7047000094
:1001B00059120008ED000008D8010020D8070020DF
:1001C000D8030020D80300204FF0000200B51346EA
:1001D00094469646203922BFA0E80C50A0E80C5067
:1001E000B1F12001BFF4F7AF090728BFA0E80C5018
:1001F00048BF0CC05DF804EB890028BF40F8042B11
:1002000008BF704748BF20F8022B11F0804F18BF7D
:1002100000F8012B7047704770477047754600F033
:100220002BF8AE4605006946534620F00700854688
:1002300018B020B5FFF7B6FFBDE820404FF000062C
:100240004FF000074FF000084FF0000B21F00701BE
:10025000AC46ACE8C009ACE8C009ACE8C009ACE801
:10026000C0098D46704710B50446AFF300802046A4
:10027000BDE81040FFF781BF0048704778010020BB
:1002800001491820ABBEFEE7260002007047FEE7DA
:10029000704700002DE9F84FDFF8B891002409F10C
:1002A000040A0AF1040B23460F270BF1040EC9E0E0
:1002B0000125A5402A40AA427DD1674ED1F804C04D
:1002C000ACEB0608B44532D014DCBCF1030F3AD0D5
:1002D00009DCBCF1000F2AD0BCF1010F1CD0BCF12D
:1002E000020F31D11DE0BCF1110F17D0BCF1120F7C
:1002F0002AD119E0B8F5881F19D006DCB8F5803F7F
:1003000015D0B8F5801F1FD111E0B8F5001F0ED031
:10031000B8F5041F18D10AE0CB6815E0CB681B1DA7
:1003200012E0CB6808330FE0CB680C330CE08B682D
:100330002BB1012B4FF0080303D0456104E00423E7
:1003400002E0056100E00023FF2A01D8064601E033
:1003500000F104064FEA840501D9A5F12005D6F87D
:10036000008007FA05FC28EA0C0803FA05F548EABC
:100370000508C6F800804D68ED0062D5374DAE69BE
:1003800046F00106AE61AD6924F0030605F00105F3
:100390000095334D06EB050CDCF80850A607360F28
:1003A00007FA06F825EA0805DFF8B880404503D1CA
:1003B0004FF0000817E044E0DFF8AC80404502D180
:1003C0004FF001080FE0DFF8A480404502D14FF064
:1003D000020808E0DFF89880404502D14FF003089A
:1003E00001E04FF0040808FA06F848EA0508CCF8DE
:1003F00008804D68D9F80060ED034D4601D51643DD
:1004000000E096432E604D68DAF80060AD03554673
:1004100001D5164300E096432E604D68DBF800607E
:10042000ED025D4601D5164300E096432E604D680F
:10043000DEF80060AD02754601D5164300E0964334
:100440002E60641C0D682A46E5407FF431AFBDE89C
:10045000F88F00000004014000001110001002405D
:100460000000014000080140000C01400010014064
:10047000001401400148806870470000140000200B
:10048000024881680278114481607047140000209E
:10049000074810B5016841F010010160032000F029
:1004A0008FF80F2000F006F800F03EF8002010BD95
:1004B0000020024000B5014687B000221E2000F057
:1004C0005FF81E2000F04EF81348C16941F00401A6
:1004D000C161C06905A900F004000690684600F0FB
:1004E00017F900F035F90D494000B0FBF1F10D4866
:1004F0000B4A491E0260416040F2E7320021C0E928
:100500000321816000F06AFB10B1012007B000BD3B
:10051000044800F091FBF9E70010024040420F0050
:1005200000080040300100200C4808B5816941F006
:1005300001018161816901F001010091C16941F00E
:100540008051C161C06900F080500090044841684A
:1005500021F0E06141F00071416008BD00100240EF
:1005600000000140002809DB00F01F02012191403A
:100570004009800000F1E020C0F800117047000041
:10058000F0B40E4B1B680C46C3F30223C3F10705FE
:10059000042D00D90425191D072901D2002300E0EC
:1005A000DB1E012606FA05F1491E214099409E40B6
:1005B000761E16403143F0BC00F0B1BF0CED00E0F8
:1005C000064900F0070208684FF6FF03184040EAAA
:1005D0000220034A10430860704700000CED00E061
:1005E0000000FA052DE9F0470F46050061D0434EA3
:1005F000306800F00700B84209D2306820F00700E8
:1006000038433060306800F00700B84251D12868A4
:100610003B4C810712D5400703D5606840F4E06089
:1006200060602878000703D5606840F4605060601F
:100630006068A96820F0F000084360602878C0076F
:1006400028D06868012810D02168022810D08907B6
:1006500000292EDA616821F0030101436160FFF790
:1006600009FF804641F288390DE021688903EFE7F0
:100670008901EDE7FFF7FEFEA0EB0801494502D92D
:100680000320BDE8F0876068696800F00C00B0EBFB
:10069000810FEFD1306800F00700B8420BD9306805
:1006A00020F0070038433060306800F00700B8429F
:1006B00001D00120E5E72878400705D56068E968A2
:1006C00020F4E060084360602878000706D5606881
:1006D000296920F4605040EAC100606000F058F8D9
:1006E0006168084AC1F30311515CC84006490860BB
:1006F00006480068FFF7DEFE0020C2E70020024047
:1007000000100240081700082000002018000020F8
:100710000F2202600C4A536803F0030343605368DE
:1007200003F0F0038360536803F4E063C36052682E
:100730004FF4E06303EAD20202610448006800F06B
:1007400007000860704700000010024000200240CF
:100750000448054900684968044AC1F30221515C14
:10076000C840704720000020001002401817000801
:100770000448054900684968044AC1F3C221515C34
:10078000C8407047200000200010024018170008E1
:1007900012A185B00FC98DE80F0014A0144A00689B
:1007A00004905168134801F00C03042B10D0082B5F
:1007B0000ED1C1F38343C9031DF803000AD5516864
:1007C00004AAC1F34041515C0A4A5043B0FBF1F026
:1007D00005B0704708494843FAE7000002030405E2
:1007E000060708090A0B0C0D0E0F1010010200007D
:1007F0000010024000127A0000093D002DE9F84F78
:10080000040070D02078C04DC00749D06868C0F39C
:100810008100012807D06868C0F38100022809D14F
:100820006868C00306D52868800339D56068002849
:10083000E7D035E06068B0F5803F0BD010B1B0F57F
:10084000A02F11D0286820F480302860286820F478
:10085000802002E0286840F480302860606890B111
:10086000FFF708FE06460AE0286840F4802028606A
:10087000F0E700BFFFF7FEFD801B642873D82868EF
:100880008003F7D50CE0FFF7F5FD064605E000BF55
:10089000FFF7F0FD801B6428F0D828688003F7D4A8
:1008A00020789A4E80074FF001094FF0000839D5A3
:1008B000686810F00C0F07D06868C0F38100022848
:1008C00009D16868C00306D42868800714D5206958
:1008D000012808D110E02069B0B1C6F80090FFF7F8
:1008E000C9FD074605E00AE1FFF7C4FDC01B022869
:1008F000C4D828688007F7D52868616920F0F80017
:1009000040EAC10028600DE0C6F80080FFF7B2FDA4
:10091000074604E0FFF7AEFDC01B022823D8286875
:100920008007F7D4207800072CD57948A169D9B180
:10093000C0F80090FFF79EFD074604E0FFF79AFD20
:10094000C01B02280FD8686A8007F7D571484FF49A
:10095000FA510068B0FBF1F0009000BF0098411E12
:100960000091FAD20EE080E0C0F80080FFF782FD2F
:10097000074604E0FFF77EFDC01B022875D8686AB1
:100980008007F7D42078400760D5E8690027C000C9
:1009900008D4E86940F08050E861E869012700F078
:1009A000805000905C480168C90513D401688346F3
:1009B00041F480710160FFF75DFD824606E000BFF3
:1009C000FFF758FDA0EB0A0064284ED8DBF80000C2
:1009D000C005F5D5E06801280AD008B1052813D074
:1009E000286A20F001002862286A20F0040002E052
:1009F000286A40F001002862E06841F2883B98B123
:100A0000FFF738FD82460BE0286A40F004002862B8
:100A1000EEE700BFFFF72EFDA0EB0A0159455AD8BB
:100A2000286A8007F6D50CE0FFF724FD824605E032
:100A3000FFF720FDA0EB0A0159454CD8286A800732
:100A4000F6D41FB1E86920F08050E861E06988B30E
:100A50006968C1F38101022944D00228C6F8608088
:100A600004D0FFF707FD044638E034E0FFF702FD4D
:100A7000074604E0FFF7FEFCC01B02282BD82868BD
:100A80008001F7D4206AB0F5803F05D16868A1687D
:100A900020F4003008436860D4E90801084369681D
:100AA00021F4741108436860C6F86090FFF7E2FC17
:100AB000044606E025E000BFFFF7DCFC001B02282F
:100AC00009D828688001F7D51BE000BFFFF7D2FCEA
:100AD000001B022802D90320BDE8F88F2868800196
:100AE000F4D40EE00128F7D06868226A00F480315F
:100AF000914204D1616A00F47010884201D0012053
:100B0000EAE70020E8E7000000100240000042424F
:100B1000800442422000002000700040704770476F
:100B200010B590F83C20012A22D0012280F83C2008
:100B3000CA688C6822F4407222434C6822F48062B6
:100B400022430C6822F4006222430C6922F4805292
:100B500022434C6922F400522243C969002322F443
:100B600080420A4301684A6480F83C30002010BD8E
:100B7000022010BD70B590F83C20012A26D0012437
:100B800080F83C40022280F83D2003685A689D6846
:100B900022F070060A6832435A600D4B02689A428E
:100BA00008D0B2F1804F05D00A4B9A4202D00A4BCE
:100BB0009A4204D1496825F080031943916080F876
:100BC0003D40002180F83C10084670BD022070BDF9
:100BD000002C0140000400400008004010B5040053
:100BE00003D094F83D0010B107E0012010BD0020B3
:100BF00084F83C00204600F01EF8022084F83D00F6
:100C0000211D206800F030FB012084F8460084F8A4
:100C10003E0084F83F0084F8400084F8410084F8E6
:100C2000420084F8430084F8440084F8450084F8C6
:100C30003D00002010BD704790F83D10012901D003
:100C400001207047022180F83D100168CA6842F017
:100C50000102CA6000680B49884208D0B0F1804F99
:100C600005D00949884202D00849884204D18168E8
:100C700001F00701062903D0016841F0010101607C
:100C800000207047002C0140000400400008004094
:100C9000704770B50446006801694FF00005C9430C
:100CA000890715D4C168C943890711D4E91E0161B8
:100CB00001202077206880698007204602D0FFF756
:100CC000E7FF04E000F0BEF8204600F061F9257768
:100CD00020680169C943490717D4C168C943490756
:100CE00013D46FF00401016102202077206880692D
:100CF00010F4407F204602D0FFF7CAFF04E000F066
:100D0000A1F8204600F044F9257720680169C9431D
:100D1000090716D4C168C943090712D46FF0080146
:100D20000161042020772068C0698007204602D036
:100D3000FFF7AEFF04E000F085F8204600F028F948
:100D4000257720680169C943C90617D4C168C9431A
:100D5000C90613D46FF010010161082020772068C4
:100D6000C06910F4407F204602D0FFF791FF04E0F5
:100D700000F068F8204600F00BF92577206801693B
:100D8000C943C90708D1C168C943C90704D1891E2D
:100D90000161204600F04CF920680169C943090649
:100DA00009D4C168C943090605D46FF08001016107
:100DB0002046FFF7B3FE20680169C943490609D4FC
:100DC000C168C943490605D46FF04001016120465E
:100DD00000F038F920680169C94389060BD4C1685D
:100DE000C943890607D46FF0200101612046BDE8A0
:100DF0007040FFF794BE70BD00B585B00021009132
:100E000001910291039100680B49884212D10B486D
:100E1000816941F0040181618069694600F0040044
:100E200004904FF4E0600090022001900390044889
:100E3000FFF730FA05B000BD002C01400010024061
:100E400000080140704770B5044690F83C000D461C
:100E500001280AD0012084F83C0042B1042A18D0AD
:100E6000082A2AD00C2A4DD139E0022070BD206812
:100E700000F03EFA2068816941F008018161206834
:100E8000816921F004018161206881692A69114327
:100E900011E0206800F054FA2068816941F4006193
:100EA00081612068816921F48061816120688169A4
:100EB0002A6941EA0221816124E0206800F06CFA8D
:100EC0002068C16941F00801C1612068C16921F051
:100ED0000401C1612068C1692A69114311E02068D9
:100EE00000F086FA2068C16941F40061C1612068A0
:100EF000C16921F48061C1612068C1692A6941EA40
:100F00000221C161002084F83C0070BD10B50400CE
:100F100003D094F83D0010B107E0012010BD00207F
:100F200084F83C00204600F01FF8022084F83D00C1
:100F3000211D206800F098F9012084F8460084F80B
:100F40003E0084F83F0084F8400084F8410084F8B3
:100F5000420084F8430084F8440084F8450084F893
:100F60003D00002010BD000008B500680649884219
:100F700008D10648816941F400618161806900F40B
:100F80000060009008BD0000002C014000100240ED
:100F90007047000010B50446022249B104290ED062
:100FA000082913D094F84100012816D0012010BD63
:100FB00094F83E000128F9D184F83E200FE094F81F
:100FC0003F000128F2D184F83F2008E094F8400067
:100FD0000128EBD184F8402001E084F8412001226F
:100FE000206800F077F90F492068884203D1426CED
:100FF00042F4004242642068884208D0B0F1804F39
:1010000005D00949884202D00849884204D1816844
:1010100001F00701062903D0016841F001010160D8
:10102000002010BD002C01400004004000080040DA
:1010300000680349884201D1FFF722BA70470000D7
:1010400000080040704770B5040004D094F83D00DB
:10105000002510B106E0012070BD84F83C50204608
:1010600000F022F8242084F83D002068C16821F4B3
:101070000051C160204600F0DDF92068016921F4CB
:10108000904101612068416921F02A014161206895
:10109000C16841F40051C1602564202084F83D00FE
:1010A00084F83E00002070BD30B585B00024009467
:1010B0000194029403940068184988422BD118487F
:1010C000C16941F40031C161C16901F40031049189
:1010D000816941F0040181618069124D00F00400D2
:1010E00004900420009002200190032003906946A0
:1010F0002846FFF7CFF80820CDE9000469462846C6
:101100000294FFF7C7F8002211462620FFF738FAAD
:101110002620FFF727FA05B030BD0000004400404C
:101120000010024000080140FEE7000010B592B038
:1011300000240F941C2168461094FFF745F82021E5
:1011400007A8FFF741F829482749C0E900142021E2
:1011500081604FF46171C0E9031444618461FFF759
:10116000D5FE08B172B6FEE70F940FA91F48109480
:10117000FFF700FD08B172B6FEE77020CDE900046C
:101180000220CDE902040494059400226946174820
:101190000694FFF758FE08B172B6FEE704226946CE
:1011A0001248FFF750FE08B172B6FEE70822694602
:1011B0000E48FFF748FE08B172B6FEE707940894A0
:1011C00009944FF400500A94CDE90B4007A9074851
:1011D0000E94FFF7A5FC08B172B6FEE70348FFF7CF
:1011E0000BFE12B010BD0000002C01406400002076
:1011F000FEE7FEE770477047704730B58FB0282193
:101200006846FEF7E1FF14210AA8FEF7DDFF012181
:101210000804CDE900100024029402250491CDE9D0
:1012200007504FF4E01009906846FFF7E7FA08B15D
:1012300072B6FEE70F20CDE90A054FF48060CDE9D4
:101240000C4002210AA80E94FFF7CCF9002801D027
:1012500072B6FEE70FB030BD704700000148FFF7DF
:1012600018BD000030010020F0B50268164B174C85
:10127000174D4FF08047984205D0B84203D0A042A6
:1012800001D0A84203D122F070064A683243984246
:1012900005D0B84203D0A04201D0A84203D122F425
:1012A0004074CA6822434C6922F0800222430260E3
:1012B0008A68C2620A688262984201D10969016340
:1012C00001214161F0BD0000002C014000040040FC
:1012D0000008004010B501F01F030121046A994085
:1012E0008C430462016A9A401143016210BD000000
:1012F00030B5026A22F001020262026A4368846920
:1013000024F073050C682C4322F002058A682A43F6
:101310000A4DA8420BD122F00805CA6823F4407395
:101320002A434D6922F004021D438B692B4343601D
:10133000846149684163026230BD0000002C0140B5
:1013400030B5026A22F010020262026A43688469C0
:101350000D6824F4E64444EA05248D6822F0200256
:1013600042EA05120B4DA8420ED1CD6822F0800250
:1013700042EA05124D6923F4406343EA85038D690F
:1013800022F0400243EA8503436084614968816337
:10139000026230BD002C014030B5026A22F4807236
:1013A0000262036A4268C46923F4007324F073057F
:1013B0000C682C438D6843EA05230C4DA8420ED1DE
:1013C000CD6823F4006343EA05234D6922F44052BB
:1013D00042EA05128D6923F4806342EA05124260F5
:1013E000C4614968C163036230BD0000002C014044
:1013F00030B5026A22F480520262046A4268C3690C
:101400000D6823F4E64343EA05238D6824F4005471
:1014100044EA0534064DA84204D14D6922F48042C5
:1014200042EA85124260C36149680164046230BDCA
:10143000002C014070B5044600680169E26821F49F
:101440004051114301612169A06808436169084363
:101450002168CA6841F20C639A430243CA6020685B
:101460004169A26921F44071114341611E4920681C
:10147000884202D1FFF77CF901E0FFF769F900EB40
:10148000C00101EB0012606864218000B2FBF0F340
:10149000B3FBF1F36FF018067343B2FBF0F5B2FB48
:1014A000F0F605EB8305322303EB0515B5FBF1F5EB
:1014B000B6FBF1F605F0F00505EB0615B2FBF0F60C
:1014C000B2FBF0F0B0FBF1F06FF01802504306EB06
:1014D000800003EB0010B0FBF1F0216800F00F007A
:1014E0002844886070BD000000380140094810B5EC
:1014F0000368186880060CD5074A91685468481C30
:1015000000F03F00A04204D05B68024C883C63546A
:10151000906010BDAC00002000000020FEE709072D
:10152000090E002804DB00F1E02080F80014704769
:1015300000F00F0000F1E02080F8141D704700005B
:10154000FCB5064600208DF804001E4C01270090D3
:1015500024E000BFA5F141011A2924D2401C8DF8D6
:1015600004006A4601A9304600F09AF8002827D006
:10157000502D06D0582D09D0592D0AD05A2D0DD1F5
:101580000AE00098012809D1277007E000986080E0
:1015900004E00098A08001E00098E0809DF804003D
:1015A000355C002DD6D12078012809D16188064804
:1015B00002685163A18802689163E1880068C16391
:1015C000FCBD00000C0000206400002008B5FEF700
:1015D0005FFFFFF712FE2E48816941F02001816113
:1015E000816901F020010091816941F0040181616C
:1015F000806900F004000090FFF798FD264C254814
:10160000002520604FF41650C4E901050C20E56068
:10161000C4E90450A5612046E561FFF714FD08B157
:1016200072B6FEE72168C86840F02000C8601A481A
:1016300000214838FFF7AEFC174804214838FFF76F
:10164000A9FC154808214838FFF7A4FC124E134C9A
:1016500016F1440600F046F86070FF28FAD00A2818
:1016600006D00D2804D02178402908D32570F1E751
:101670002078355408484430FFF762FFF6E7A0F1C0
:101680006102192A00D820387054491C2170E1E702
:101690000010024000440040AC0000200000002088
:1016A000F0B50B78002503442E4613F8014BA4F146
:1016B00030070A2F01D30020F0BD303CE4B2092CE2
:1016C0000AD26D1CEDB2082D06D206EB860604EB9D
:1016D000460613F8014BF0E7181A401E1660087012
:1016E0000120F0BD064AFF20D2E90113994205D03E
:1016F0000448405C491C01F03F0151607047000004
:101700000000002024000020000000000000000075
:101710000102030406070809000000000102030497
:1017200040170008000000202400000028010008E5
:101730006417000824000020B407000044010008DA
:101740000000000000000000000000000000000099
:101750000000000001000000100000000000000078
:041760000024F4006D
:04000005080000ED02
:00000001FF
