:020000040800F2
:10000000005000206913000857080008590800082C
:100010005B0800085D0800085F0800080000000099
:10002000000000000000000000000000610800085F
:100030006308000800000000650800086708000861
:10004000B1130008B1130008B1130008B113000880
:10005000B1130008B1130008B1130008B113000870
:10006000B1130008B1130008B1130008B113000860
:10007000B1130008B1130008B1130008B113000850
:10008000B1130008B1130008B1130008B113000840
:10009000B1130008B1130008B1130008B113000830
:1000A000B1130008B1130008B1130008B113000820
:1000B000B1130008B113000869080008B113000863
:1000C000B1130008B1130008B1130008B113000800
:1000D000B1130008B1130008B1130008B1130008F0
:1000E000B1130008B1130008B113000800000000AC
:1000F0000000000000000000000000000000000000
:0C01000000000000000000005FF808F1A3
:10010C0010402DE928409FE50030D4E5000053E372
:10011C000500001A1C309FE5000053E318009F15E2
:10012C0000F020130130A0E30030C4E51040BDE81E
:10013C001EFF2FE10C000020000000003C14000802
:10014C001C309FE5000053E31EFF2F0110402DE9EA
:10015C0010109FE510009FE500F020E31040BDE873
:10016C001EFF2FE100000000100000203C140008CE
:10017C00020120E2000000EA021121E28020B0E13D
:10018C008130B0110300321142CCF01143CCF0118C
:10019C004700000A222CA0E1233C72E0032082C01D
:1001AC00011020C0000021C0011020C0003063B23B
:1001BC00190053E31EFF2F81020110E3020580E3B7
:1001CC00FF04C0E300006012020111E3021581E399
:1001DC00FF14C1E300106112030032E12E00000A8B
:1001EC00012042E2510390E0203063E21113A0E1C0
:1001FC00023100E20100005A001071E20000E0E25E
:10020C00020550E30B00003A010450E30400003AED
:10021C00A000B0E16110A0E1012082E2FE0052E3F7
:10022C003800002A020151E3820BA0E00100C00358
:10023C00030080E11EFF2FE18110B0E10000A0E07F
:10024C00020510E3012042E2F5FFFF1A20C6B0E1DF
:10025C000006A0010C204202FF0810E30004A001DC
:10026C00082042020F0610E30002A0010420420203
:10027C00030510E30001A00102204202020550E335
:10028C008000A0310020D2E2820B80A0002062B25C
:10029C00030080A1300283B11EFF2FE1000032E386
:1002AC00021521E2020520020120820201304312D4
:1002BC00CAFFFFEA8130A0E142CCF0E143CCF0115F
:1002CC001300000A030032E10200000A000032E3CE
:1002DC000100A0011EFF2FE1010030E10000A0137E
:1002EC001EFF2F11FF0412E30200001A8000B0E180
:1002FC00020180231EFF2FE1022492E202058032CC
:10030C001EFF2F31023100E27F0483E3020580E3FC
:10031C001EFF2FE1422CF0E10100A011433CF00143
:10032C000010A0118024B0E18134B0010100300133
:10033C00010580131EFF2FE10030A0E3010000EA4D
:10034C00023110E20000604200C0B0E11EFF2F013C
:10035C004B3483E30010A0E10000A0E30F0000EA9F
:10036C00012090E11EFF2F010030A0E3050000EA00
:10037C00012090E11EFF2F01023111E20100005A11
:10038C00000070E20010E1E201C0B0E100C0A00189
:10039C000010A0010000A0035B3483E30132430290
:1003AC00023543E21720A0E301085CE32CC8A0212E
:1003BC0010204222010C5CE32CC4A0210820422214
:1003CC0010005CE32CC2A0210420422204005CE358
:1003DC0002204222AC204230AC2152E0823B43E06E
:1003EC00060000BA113283E010C2A0E1202062E2C4
:1003FC0002015CE33002A3E00100C0031EFF2FE109
:10040C00202082E211C2A0E1202062E28C0090E167
:10041C003102A3E0AC0FC0011EFF2FE1FFC0A0E32F
:10042C00A02B1CE0A13B1C100C0032110C00331152
:10043C003E00000A032082E001C020E08004B0E10D
:10044C008114B0111000000A0233A0E3A00283E172
:10045C00A11283E1903181E002010CE2020551E32B
:10046C008110A031A31F81318330A031010080E1C4
:10047C007F20C2E2FD0052E30F00008A020153E329
:10048C00820BA0E00100C0031EFF2FE1000030E34F
:10049C0002C10CE28114A001A0048CE1A10480E152
:1004AC007F2052E2FF3072C2820B80C11EFF2FC12F
:1004BC00020580E30030A0E3012052E2350000CABF
:1004CC00190072E3020100D21EFF2FD1002062E25C
:1004DC008010B0E13112A0E1202062E210C2A0E154
:1004EC006100B0E10000A0E28C3093E1AC0FC001E0
:1004FC001EFF2FE1000032E302C100E28000A001E8
:10050C000205100301204202FBFFFF0A0C0080E1F0
:10051C00000033E302C101E28110A00102051103C6
:10052C0001304302FBFFFF0A0C1081E1C0FFFFEA20
:10053C00A13B0CE00C0032E10C0033110500000A69
:10054C0002C1D0E302C1D113E9FFFF1A010020E080
:10055C00020100E21EFF2FE1000030E30201301324
:10056C000100A00100003113020131130D00000A3B
:10057C000C0032E10100001A8024B0E10900001ADD
:10058C000C0033E10200001A8134B0E10100A0112B
:10059C000400001A010020E0020100E27F0480E365
:1005AC00020580E31EFF2FE17F0480E3030580E357
:1005BC001EFF2FE1FFC0A0E3A02B1CE0A13B1C10F1
:1005CC000C0032110C0033113A00000A032042E0F7
:1005DC0001C020E08114B0E18004A0E11C00000AFD
:1005EC000132A0E3211283E1203283E102010CE20B
:1005FC00010053E18330A0317D20A2E202C5A0E3CB
:10060C00010053E1013043200C008021A10053E193
:10061C00A1304320AC008021210153E12131432042
:10062C002C018021A10153E1A1314320AC01802197
:10063C000332B0E12CC2B011F0FFFF1AFD0052E3FF
:10064C009DFFFF8A010053E1820BA0E00100C00373
:10065C001EFF2FE102C10CE2A0048CE17F2092E28C
:10066C00FF3072C2820B80C11EFF2FC1020580E3D6
:10067C000030A0E3012052E28FFFFFEA000032E3DA
:10068C0002C100E28000A001020510030120420219
:10069C00FBFFFF0A0C0080E1000033E302C101E222
:1006AC008110A0010205110301304302FBFFFF0A78
:1006BC000C1081E1C4FFFFEAA13B0CE00C0032E11D
:1006CC000500001A8024B0E1B6FFFF1A0C0033E1DC
:1006DC00AFFFFF1A0100A0E1B2FFFFEA0C0033E10B
:1006EC000300001A8134B0E197FFFF0A0100A0E17A
:1006FC00ACFFFFEA02C1D0E302C1D113DEFFFF1A47
:10070C000221D0E3A2FFFF1A0231D1E38EFFFF1AC0
:10071C00A4FFFFEA38B5114D114B2B60114C124B55
:10072C00236028682168FFF729FD104B18602868A2
:10073C002168FFF721FD0E4B186028682168FFF730
:10074C006DFE0C4B186028682168FFF733FF0A4BCD
:10075C0018600A4B4FF0F0321A6038BD3C00002094
:10076C00A01ACF3F280000209EEF47402C0000200D
:10077C003400002038000020400000203000002011
:10078C007047000082B00A4B9A6942F020029A61CD
:10079C009A6902F020020092009A9A6942F00402CF
:1007AC009A619B6903F004030193019B02B07047AB
:1007BC000010024008B50268034B9A4200D008BDF5
:1007CC0000F026FAFBE700BF0008004072B6FEE717
:1007DC0000B591B00023089309930B930C930193EC
:1007EC000293039304930593012206924FF48033F2
:1007FC0007930A9202220D920E934FF4E0130F937B
:10080C0006A800F02DFA80B90F2301930221029162
:10081C00002303934FF480620492059301A800F027
:10082C005FFC20B911B05DF804FBFFF7CFFFFFF7B9
:10083C00CDFF08B500F0DAF9FFF7CAFFFFF7A2FF0A
:10084C00FFF768FFFFF79CFFFCE7FEE7FEE7FEE71C
:10085C00FEE7FEE7704770477047704708B50248DF
:10086C0000F09EF808BD00BF4400002082B00E4B83
:10087C009A6942F001029A619A6902F001020092AF
:10088C00009ADA6942F08052DA61DB6903F0805336
:10089C000193019B054A536823F0E06343F0007316
:1008AC00536002B0704700BF0010024000000140CE
:1008BC0000B589B0002201461E2000F00BFD1E2061
:1008CC0000F03CFD154BDA6942F00402DA61DB6999
:1008DC0003F004030193019B02A903A800F0CAFCD6
:1008EC0000F0B8FC43000E48A0FB03239B0C013B1B
:1008FC000C480D4A026040F2E732C26043600023AC
:10090C000361836000F044F918B1012009B05DF86F
:10091C0004FB044800F00CF8F8E700BF001002409C
:10092C0083DE1B4344000020000800407047000099
:10093C0090F83D30DBB2012B01D00120704702232F
:10094C0080F83D300268D36843F00103D36003683C
:10095C00104A934210D0B3F1804F0DD0A2F59432CF
:10096C00934209D002F58062934205D01A6842F096
:10097C0001021A60002070479A6802F00702062AEA
:10098C0005D01A6842F001021A600020704700205E
:10099C00704700BF002C014070477047704770478C
:1009AC0010B5044603681A6912F0020F11D0DA6808
:1009BC0012F0020F0DD06FF002021A6101230377BF
:1009CC0003689B6913F0030F70D0FFF7E6FF002359
:1009DC00237723681A6912F0040F12D0DA6812F028
:1009EC00040F0ED06FF004021A61022323772368E0
:1009FC009B6913F4407F5FD02046FFF7CEFF0023A6
:100A0C00237723681A6912F0080F12D0DA6812F0F3
:100A1C00080F0ED06FF008021A61042323772368A5
:100A2C00DB6913F0030F4ED02046FFF7B6FF00230F
:100A3C00237723681A6912F0100F12D0DA6812F0BB
:100A4C00100F0ED06FF010021A6108232377236861
:100A5C00DB6913F4407F3DD02046FFF79EFF002357
:100A6C00237723681A6912F0010F03D0DA6812F0A9
:100A7C00010F36D123681A6912F0800F03D0DA689F
:100A8C0012F0800F34D123681A6912F0400F03D092
:100A9C00DA6812F0400F32D123681A6912F0200F75
:100AAC0003D0DA6812F0200F30D110BDFFF774FFBD
:100ABC002046FFF773FF8AE72046FFF76DFF2046BD
:100ACC00FFF76CFF9BE72046FFF766FF2046FFF71A
:100ADC0065FFACE72046FFF75FFF2046FFF75EFFA0
:100AEC00BDE76FF001021A612046FFF763FEC1E714
:100AFC006FF080021A61204600F076F8C3E76FF0C1
:100B0C0040021A612046FFF74AFFC5E76FF020024A
:100B1C001A61204600F067F8C7E7000003681B4A1B
:100B2C0090420AD0B0F1804F07D0A2F59432904297
:100B3C0003D002F58062904203D123F070034A681F
:100B4C001343124A90420AD0B0F1804F07D0A2F55D
:100B5C009432904203D002F58062904203D123F488
:100B6C004073CA68134323F080034A69134303603C
:100B7C008B68C3620B688362044B984202D00123DA
:100B8C00436170470B690363F9E700BF002C014018
:100B9C0038B310B5044690F83D30EBB1022384F81D
:100BAC003D30211D2068FFF7B9FF012384F8463042
:100BBC0084F83E3084F83F3084F8403084F841307B
:100BCC0084F8423084F8433084F8443084F845305B
:100BDC0084F83D30002010BD80F83C30FFF7A6FEB5
:100BEC00DCE70120704770477047000008B5074AE2
:100BFC00136843F010031360032000F059FB0F201F
:100C0C00FFF756FEFFF732FE002008BD0020024021
:100C1C00034A1168034B1B780B441360704700BFE9
:100C2C008C00002000000020014B1868704700BFAA
:100C3C008C00002082B0084B1B68084AA2FB0323DF
:100C4C005B0A00FB03F0019000BF019B5A1E01924E
:100C5C00002BF9D102B0704708000020D34D621070
:100C6C00002800F0F58170B582B00446036813F0DB
:100C7C00010F2CD0AB4B5B6803F00C03042B1DD085
:100C8C00A84B5B6803F00C03082B12D06368B3F518
:100C9C00803F41D0002B55D103F1804303F5043341
:100CAC001A6822F480321A601A6822F480221A60C0
:100CBC0037E09C4B5B6813F4803FE7D0994B1B6883
:100CCC0013F4003F03D06368002B00F0C38123684A
:100CDC0013F0020F76D0934B5B6813F00C0F5FD0C0
:100CEC00904B5B6803F00C03082B54D02369002B4A
:100CFC0000F08A808C4B01221A60FFF795FF0546A5
:100D0C00884B1B6813F0020F75D1FFF78DFF401B4A
:100D1C000228F5D90320A0E1824A136843F48033FA
:100D2C001360636843B3FFF77FFF05467D4B1B6879
:100D3C0013F4003FCBD1FFF777FF401B6428F5D9A4
:100D4C0003208AE1B3F5A02F09D0764B1A6822F460
:100D5C0080321A601A6822F480221A60E1E703F1EB
:100D6C008043A3F53C331A6842F480221A601A6857
:100D7C0042F480321A60D4E7FFF756FF0546694B00
:100D8C001B6813F4003FA2D0FFF74EFF401B6428F2
:100D9C00F5D9032061E1634B5B6813F4803FA5D167
:100DAC00604B1B6813F0020F04D02369012B01D098
:100DBC00012052E15B4A136823F0F803616943EAAE
:100DCC00C1031360236813F0080F32D0A369002B02
:100DDC005BD0564B01221A60FFF726FF0546514B9C
:100DEC005B6A13F0020F21D1FFF71EFF401B022894
:100DFC00F5D9032031E14B4A136823F0F8036169FC
:100E0C0043EAC1031360DDE7474B00221A60FFF78A
:100E1C000BFF0546434B1B6813F0020FD2D0FFF7B4
:100E2C0003FF401B0228F5D9032016E10120FFF730
:100E3C0001FF236813F0040F00F09880394BDB6935
:100E4C0013F0805F33D1374BDA6942F08052DA61AC
:100E5C00DB6903F080530193019B0125344B1B6824
:100E6C0013F4807F25D0E368012B36D0002B4CD1B6
:100E7C0003F1804303F504331A6A22F001021A626B
:100E8C001A6A22F004021A622CE0284B00221A6023
:100E9C00FFF7CAFE0546234B5B6A13F0020FC8D05E
:100EAC00FFF7C2FE401B0228F5D90320D5E0002530
:100EBC00D4E71F4A136843F480731360FFF7B4FE42
:100ECC0006461B4B1B6813F4807FCCD1FFF7ACFE9E
:100EDC00801B6428F5D90320BFE0124A136A43F043
:100EEC0001031362E3687BB3FFF79EFE06460D4BCE
:100EFC001B6A13F0020F38D1FFF796FE801B41F2EC
:100F0C0088339842F3D90320A7E0052B12D0054B68
:100F1C001A6A22F001021A621A6A22F004021A6298
:100F2C00E0E700BF00100240000042428004424251
:100F3C00007000404C4B1A6A42F004021A621A6AA2
:100F4C0042F001021A62CDE7FFF76EFE0646464BF1
:100F5C001B6A13F0020F08D0FFF766FE801B41F2EC
:100F6C0088339842F3D9032077E0E5B9E369002B85
:100F7C0072D03D4A526802F00C02082A56D0022B5D
:100F8C0017D03A4B00221A60FFF74EFE0446364B40
:100F9C001B6813F0007F47D0FFF746FE001B0228AA
:100FAC00F5D9032059E0304AD36923F08053D3613B
:100FBC00DCE72E4B00221A60FFF736FE05462A4B63
:100FCC001B6813F0007F06D0FFF72EFE401B022893
:100FDC00F5D9032041E0236AB3F5803F1AD02249AA
:100FEC004B6823F47413226A606A024313434B6008
:100FFC001E4B01221A60FFF717FE04461A4B1B68A2
:10100C0013F0007F0ED1FFF70FFE001B0228F5D95D
:10101C00032022E0144A536823F40033A1680B43E5
:10102C005360DCE7002018E0002016E0012B16D0FE
:10103C000D4B5B6803F48031226A914201D0012090
:10104C000BE003F47013626A93420AD0012004E0AF
:10105C0001207047012000E0002002B070BD01208B
:10106C00FBE70020F9E700BF00100240600042429D
:10107C0010B487B0164C94E80F000DF1180C0CE965
:10108C000F00238AADF80430124B5B6803F00C029E
:10109C00082A1AD1C3F38342624412F8102C13F4B9
:1010AC00803F05D10C4800FB02F007B010BC704724
:1010BC00084B5B68C3F34043634413F8143C074884
:1010CC0000FB02F0B0FBF3F0EFE70448EDE700BFE4
:1010DC006C1400080010024000093D0000127A0058
:1010EC00002800F0A38070B50446524B1B6803F037
:1010FC0007038B420CD24F4A136823F007030B43B0
:10110C001360136803F007038B4201D0012070BDFC
:10111C00236813F0020F17D013F0040F04D0464AC3
:10112C00536843F4E0635360236813F0080F04D052
:10113C00414A536843F4605353603F4A536823F069
:10114C00F003A068034353600D46236813F0010FAE
:10115C0031D06368012B20D0022B25D0364A12687F
:10116C0012F0020F64D034494A6822F00302134390
:10117C004B60FFF759FD06462F4B5B6803F00C03E1
:10118C006268B3EB820F16D0FFF74EFD801B41F265
:10119C0088339842F0D90320B9E7274A126812F431
:1011AC00003FE0D10120B2E7234A126812F0007F21
:1011BC00D9D10120ABE71F4B1B6803F00703AB42EF
:1011CC000CD91C4A136823F007032B4313601368D4
:1011DC0003F00703AB4201D0012098E7236813F01A
:1011EC00040F06D0144A536823F4E063E1680B4300
:1011FC005360236813F0080F07D00F4A536823F489
:10120C006053216943EAC1035360FFF731FF0A4B76
:10121C005B68C3F30313094AD35CD840084B1860CE
:10122C00084B1868FFF744FB002070E7012070475B
:10123C0001206CE7002002400010024080140008DE
:10124C000800002004000020014B1868704700BF04
:10125C000800002008B5FFF7F7FF044B5B68C3F3E9
:10126C000223034AD35CD84008BD00BF00100240E3
:10127C00901400080F2303600B4B5A6802F0030212
:10128C0042605A6802F0F00282605A6802F4E0622E
:10129C00C2605B68DB0803F4E0630361034B1B680B
:1012AC0003F007030B60704700100240002002405F
:1012BC00074AD36823F4E0631B041B0C000200F400
:1012CC00E060184340F0BF6040F40030D0607047DD
:1012DC0000ED00E030B4174BDB68C3F30223C3F11D
:1012EC000704042C28BF04241D1D062D18D9033B0C
:1012FC004FF0FF3505FA04F421EA0401994005FA90
:10130C0003F322EA0303194300280BDB0901C9B2DA
:10131C0000F1604000F5614080F8001330BC70476C
:10132C000023E5E700F00F000901C9B2024B195484
:10133C00F4E700BF00ED00E014ED00E0002807DB4F
:10134C0000F01F02400901239340024A42F820306A
:10135C00704700BF00E100E0704700000C480D49E9
:10136C000D4A002302E0D458C4500433C4188C42F4
:10137C00F9D30A4A0A4C002301E013600432A2425A
:10138C00FBD3FFF7E9FF00F00FF8FFF752FA7047B5
:10139C00000000200C000020A01400080C0000200D
:1013AC0090000020FEE7000070309FE570402DE9B2
:1013BC000050A0E30360A0E164409FE5034044E0DB
:1013CC004441A0E1040055E10A00001A170000EBAB
:1013DC0050309FE50050A0E30360A0E148409FE53A
:1013EC00034044E04441A0E1040055E10600001A2A
:1013FC007040BDE81EFF2FE1053196E70FE0A0E13C
:10140C0013FF2FE1015085E2EDFFFFEA053196E76E
:10141C000FE0A0E113FF2FE1015085E2F1FFFFEA9D
:10142C009814000898140008981400089C140008DC
:10143C000DC0A0E1F8DF2DE904B04CE228D04BE25E
:10144C00F06F9DE81EFF2FE10DC0A0E1F8DF2DE944
:10145C0004B04CE228D04BE2F06F9DE81EFF2FE168
:10146C0002030405060708090A0B0C0D0E0F1010D9
:10147C000102000000000000000000000102030453
:0C148C000607080900000000010203042C
:041498004C010008FB
:04149C000C01000837
:0C14A00001000000100000000024F40017
:040000050800136973
:00000001FF
