:020000040800F2
:1000000000500020910D0008570200085902000816
:100010005B0200085D0200085F02000800000000AB
:100020000000000000000000000000006102000865
:100030006302000800000000650200086702000873
:10004000D90D0008D90D0008D90D0008D90D0008F8
:10005000D90D0008D90D0008D90D0008D90D0008E8
:10006000D90D0008D90D0008D90D0008D90D0008D8
:10007000D90D0008D90D0008D90D0008D90D0008C8
:10008000D90D0008D90D0008D90D0008D90D0008B8
:10009000D90D0008D90D0008D90D0008D90D0008A8
:1000A000D90D0008D90D0008D90D0008D90D000898
:1000B000D90D0008D90D000869020008D90D000803
:1000C000D90D0008D90D0008D90D0008D90D000878
:1000D000D90D0008D90D0008D90D0008D90D000868
:1000E000D90D0008D90D0008D90D00080000000046
:1000F0000000000000000000000000000000000000
:0C01000000000000000000005FF808F1A3
:10010C0010B5054C237833B9044B13B10448AFF345
:10011C0000800123237010BD0C00002000000000A3
:10012C00240E000808B5034B1BB103490348AFF379
:10013C00008008BD0000000010000020240E000804
:10014C00054A936943F010039361A2F5803253681A
:10015C0043F4C003536070470010024010B5084CC4
:10016C00E36843F40053E360FA2000F063FAE368B9
:10017C0023F40053E360FA2000F05CFA10BD00BFDA
:10018C000010014082B00A4B9A6942F020029A6139
:10019C009A6902F020020092009A9A6942F00402D5
:1001AC009A619B6903F004030193019B02B07047B1
:1001BC000010024008B50268034B9A4200D008BDFB
:1001CC0000F026FAFBE700BF0008004072B6FEE71D
:1001DC0000B591B00023089309930B930C930193F2
:1001EC000293039304930593012206924FF48033F8
:1001FC0007930A9202220D920E934FF4E0130F9381
:10020C0006A800F041FA80B90F2301930221029154
:10021C00002303934FF480620492059301A800F02D
:10022C0073FC20B911B05DF804FBFFF7CFFFFFF7AB
:10023C00CDFF08B500F0DAF9FFF7CAFFFFF7A2FF10
:10024C00FFF77EFFFFF78AFFFCE7FEE7FEE7FEE71E
:10025C00FEE7FEE7704770477047704708B50248E5
:10026C0000F09EF808BD00BF2800002082B00E4BA5
:10027C009A6942F001029A619A6902F001020092B5
:10028C00009ADA6942F08052DA61DB6903F080533C
:10029C000193019B054A536823F0E06343F000731C
:1002AC00536002B0704700BF0010024000000140D4
:1002BC0000B589B0002201461E2000F01FFD1E2053
:1002CC0000F050FD154BDA6942F00402DA61DB698B
:1002DC0003F004030193019B02A903A800F0DEFCC8
:1002EC0000F0CCFC43000E48A0FB03239B0C013B0D
:1002FC000C480D4A026040F2E732C26043600023B2
:10030C000361836000F044F918B1012009B05DF875
:10031C0004FB044800F00CF8F8E700BF00100240A2
:10032C0083DE1B43280000200008004070470000BB
:10033C0090F83D30DBB2012B01D001207047022335
:10034C0080F83D300268D36843F00103D360036842
:10035C00104A934210D0B3F1804F0DD0A2F59432D5
:10036C00934209D002F58062934205D01A6842F09C
:10037C0001021A60002070479A6802F00702062AF0
:10038C0005D01A6842F001021A6000207047002064
:10039C00704700BF002C0140704770477047704792
:1003AC0010B5044603681A6912F0020F11D0DA680E
:1003BC0012F0020F0DD06FF002021A6101230377C5
:1003CC0003689B6913F0030F70D0FFF7E6FF00235F
:1003DC00237723681A6912F0040F12D0DA6812F02E
:1003EC00040F0ED06FF004021A61022323772368E6
:1003FC009B6913F4407F5FD02046FFF7CEFF0023AC
:10040C00237723681A6912F0080F12D0DA6812F0F9
:10041C00080F0ED06FF008021A61042323772368AB
:10042C00DB6913F0030F4ED02046FFF7B6FF002315
:10043C00237723681A6912F0100F12D0DA6812F0C1
:10044C00100F0ED06FF010021A6108232377236867
:10045C00DB6913F4407F3DD02046FFF79EFF00235D
:10046C00237723681A6912F0010F03D0DA6812F0AF
:10047C00010F36D123681A6912F0800F03D0DA68A5
:10048C0012F0800F34D123681A6912F0400F03D098
:10049C00DA6812F0400F32D123681A6912F0200F7B
:1004AC0003D0DA6812F0200F30D110BDFFF774FFC3
:1004BC002046FFF773FF8AE72046FFF76DFF2046C3
:1004CC00FFF76CFF9BE72046FFF766FF2046FFF720
:1004DC0065FFACE72046FFF75FFF2046FFF75EFFA6
:1004EC00BDE76FF001021A612046FFF763FEC1E71A
:1004FC006FF080021A61204600F076F8C3E76FF0C7
:10050C0040021A612046FFF74AFFC5E76FF0200250
:10051C001A61204600F067F8C7E7000003681B4A21
:10052C0090420AD0B0F1804F07D0A2F5943290429D
:10053C0003D002F58062904203D123F070034A6825
:10054C001343124A90420AD0B0F1804F07D0A2F563
:10055C009432904203D002F58062904203D123F48E
:10056C004073CA68134323F080034A691343036042
:10057C008B68C3620B688362044B984202D00123E0
:10058C00436170470B690363F9E700BF002C01401E
:10059C0038B310B5044690F83D30EBB1022384F823
:1005AC003D30211D2068FFF7B9FF012384F8463048
:1005BC0084F83E3084F83F3084F8403084F8413081
:1005CC0084F8423084F8433084F8443084F8453061
:1005DC0084F83D30002010BD80F83C30FFF7A6FEBB
:1005EC00DCE70120704770477047000008B5074AE8
:1005FC00136843F010031360032000F06DFB0F2011
:10060C00FFF756FEFFF732FE002008BD0020024027
:10061C00034A1168034B1B780B441360704700BFEF
:10062C007000002000000020014B1868704700BFCC
:10063C007000002038B50446FFF7F6FF0546B4F10C
:10064C00FF3F02D0044B1B781C44FFF7EDFF401B0F
:10065C00A042FAD338BD00BF0000002082B0084B86
:10066C001B68084AA2FB03235B0A00FB03F0019002
:10067C0000BF019B5A1E0192002BF9D102B07047AA
:10068C0008000020D34D6210002800F0F58170B5F1
:10069C0082B00446036813F0010F2CD0AB4B5B689F
:1006AC0003F00C03042B1DD0A84B5B6803F00C0368
:1006BC00082B12D06368B3F5803F41D0002B55D185
:1006CC0003F1804303F504331A6822F480321A6074
:1006DC001A6822F480221A6037E09C4B5B6813F492
:1006EC00803FE7D0994B1B6813F4003F03D063683D
:1006FC00002B00F0C381236813F0020F76D0934BCC
:10070C005B6813F00C0F5FD0904B5B6803F00C032D
:10071C00082B54D02369002B00F08A808C4B0122CB
:10072C001A60FFF781FF0546884B1B6813F0020F18
:10073C0075D1FFF779FF401B0228F5D90320A0E102
:10074C00824A136843F480331360636843B3FFF742
:10075C006BFF05467D4B1B6813F4003FCBD1FFF7B5
:10076C0063FF401B6428F5D903208AE1B3F5A02F61
:10077C0009D0764B1A6822F480321A601A6822F477
:10078C0080221A60E1E703F18043A3F53C331A6839
:10079C0042F480221A601A6842F480321A60D4E75C
:1007AC00FFF742FF0546694B1B6813F4003FA2D0CC
:1007BC00FFF73AFF401B6428F5D9032061E1634B36
:1007CC005B6813F4803FA5D1604B1B6813F0020FDC
:1007DC0004D02369012B01D0012052E15B4A13683C
:1007EC0023F0F803616943EAC1031360236813F033
:1007FC00080F32D0A369002B5BD0564B01221A6034
:10080C00FFF712FF0546514B5B6A13F0020F21D123
:10081C00FFF70AFF401B0228F5D9032031E14B4AB0
:10082C00136823F0F803616943EAC1031360DDE741
:10083C00474B00221A60FFF7F7FE0546434B1B6837
:10084C0013F0020FD2D0FFF7EFFE401B0228F5D9B0
:10085C00032016E10120FFF701FF236813F0040FBA
:10086C0000F09880394BDB6913F0805F33D1374B44
:10087C00DA6942F08052DA61DB6903F0805301934C
:10088C00019B0125344B1B6813F4807F25D0E36852
:10089C00012B36D0002B4CD103F1804303F50433EC
:1008AC001A6A22F001021A621A6A22F004021A620F
:1008BC002CE0284B00221A60FFF7B6FE0546234BAE
:1008CC005B6A13F0020FC8D0FFF7AEFE401B022884
:1008DC00F5D90320D5E00025D4E71F4A136843F46B
:1008EC0080731360FFF7A0FE06461B4B1B6813F4C6
:1008FC00807FCCD1FFF798FE801B6428F5D90320AC
:10090C00BFE0124A136A43F001031362E3687BB33E
:10091C00FFF78AFE06460D4B1B6A13F0020F38D107
:10092C00FFF782FE801B41F288339842F3D90320F3
:10093C00A7E0052B12D0054B1A6A22F001021A62AD
:10094C001A6A22F004021A62E0E700BF00100240AB
:10095C000000424280044242007000404C4B1A6A34
:10096C0042F004021A621A6A42F001021A62CDE7DE
:10097C00FFF75AFE0646464B1B6A13F0020F08D0CF
:10098C00FFF752FE801B41F288339842F3D90320C3
:10099C0077E0E5B9E369002B72D03D4A526802F06A
:1009AC000C02082A56D0022B17D03A4B00221A60A0
:1009BC00FFF73AFE0446364B1B6813F0007F47D016
:1009CC00FFF732FE001B0228F5D9032059E0304A0C
:1009DC00D36923F08053D361DCE72E4B00221A60DD
:1009EC00FFF722FE05462A4B1B6813F0007F06D04A
:1009FC00FFF71AFE401B0228F5D9032041E0236AB9
:100A0C00B3F5803F1AD022494B6823F47413226A41
:100A1C00606A024313434B601E4B01221A60FFF7BE
:100A2C0003FE04461A4B1B6813F0007F0ED1FFF730
:100A3C00FBFD001B0228F5D9032022E0144A536861
:100A4C0023F40033A1680B435360DCE7002018E06B
:100A5C00002016E0012B16D00D4B5B6803F480319F
:100A6C00226A914201D001200BE003F47013626AF8
:100A7C0093420AD0012004E001207047012000E0DD
:100A8C00002002B070BD0120FBE70020F9E700BF99
:100A9C00001002406000424210B487B0164C94E83B
:100AAC000F000DF1180C0CE90F00238AADF804307F
:100ABC00124B5B6803F00C02082A1AD1C3F3834271
:100ACC00624412F8102C13F4803F05D10C4800FB43
:100ADC0002F007B010BC7047084B5B68C3F340438F
:100AEC00634413F8143C074800FB02F0B0FBF3F02E
:100AFC00EFE70448EDE700BF3C0E00080010024091
:100B0C0000093D0000127A00002800F0A38070B5A7
:100B1C000446524B1B6803F007038B420CD24F4A1E
:100B2C00136823F007030B431360136803F00703E8
:100B3C008B4201D0012070BD236813F0020F17D037
:100B4C0013F0040F04D0464A536843F4E063536037
:100B5C00236813F0080F04D0414A536843F46053E0
:100B6C0053603F4A536823F0F003A068034353607B
:100B7C000D46236813F0010F31D06368012B20D090
:100B8C00022B25D0364A126812F0020F64D0344979
:100B9C004A6822F0030213434B60FFF745FD0646FB
:100BAC002F4B5B6803F00C036268B3EB820F16D01B
:100BBC00FFF73AFD801B41F288339842F0D90320AD
:100BCC00B9E7274A126812F4003FE0D10120B2E7DE
:100BDC00234A126812F0007FD9D10120ABE71F4BDA
:100BEC001B6803F00703AB420CD91C4A136823F0B3
:100BFC0007032B431360136803F00703AB4201D0C8
:100C0C00012098E7236813F0040F06D0144A5368A8
:100C1C0023F4E063E1680B435360236813F0080F7F
:100C2C0007D00F4A536823F46053216943EAC10388
:100C3C005360FFF731FF0A4B5B68C3F30313094A98
:100C4C00D35CD840084B1860084B1868FFF730FB92
:100C5C00002070E70120704701206CE70020024063
:100C6C0000100240500E0008080000200400002074
:100C7C00014B1868704700BF0800002008B5FFF74B
:100C8C00F7FF044B5B68C3F30223034AD35CD840E1
:100C9C0008BD00BF00100240600E00080F23036067
:100CAC000B4B5A6802F0030242605A6802F0F002E1
:100CBC0082605A6802F4E062C2605B68DB0803F48D
:100CCC00E0630361034B1B6803F007030B60704781
:100CDC000010024000200240074AD36823F4E0636E
:100CEC001B041B0C000200F4E060184340F0BF60D2
:100CFC0040F40030D060704700ED00E030B4174B8A
:100D0C00DB68C3F30223C3F10704042C28BF0424BB
:100D1C001D1D062D18D9033B4FF0FF3505FA04F4C1
:100D2C0021EA0401994005FA03F322EA030319436B
:100D3C0000280BDB0901C9B200F1604000F56140ED
:100D4C0080F8001330BC70470023E5E700F00F007B
:100D5C000901C9B2024B1954F4E700BF00ED00E0E1
:100D6C0014ED00E0002807DB00F01F02400901230E
:100D7C009340024A42F82030704700BF00E100E087
:100D8C00704700000C480D490D4A002302E0D4586E
:100D9C00C4500433C4188C42F9D30A4A0A4C0023B9
:100DAC0001E013600432A242FBD3FFF7E9FF00F02D
:100DBC000FF8FFF73EFA7047000000200C000020EF
:100DCC00700E00080C00002074000020FEE70000EC
:100DDC0070B500250C4E0D4CA41BA410A54209D1D6
:100DEC0000F01AF800250A4E0A4CA41BA410A542C8
:100DFC0005D170BD56F8253098470135EEE756F809
:100E0C00253098470135F2E7680E0008680E000897
:100E1C00680E00086C0E0008F8B500BFF8BC08BCE2
:100E2C009E467047F8B500BFF8BC08BC9E4670479C
:100E3C0002030405060708090A0B0C0D0E0F10100F
:100E4C000102000000000000000000000102030489
:0C0E5C0006070809000000000102030462
:040E6800310100084C
:040E6C000D0100086C
:0C0E700001000000100000000024F4004D
:0400000508000D9151
:00000001FF
